:100000000C9483060C94A0060C94A0060C94A006F5
:100010000C94A0060C94A0060C94A0060C94A006C8
:100020000C94A0060C94A0060C94491D0C94041C7E
:100030000C94BF1E0C94A0060C94A0060C94A00671
:100040000C94A0060C94A0060C94A0060C94A00698
:100050000C94A0060C947E1E0C94A0060C94A00692
:100060000C94A0060C94A0060C94A0060C94A00678
:100070000C94A0060C94A0060C94A0060C94A00668
:100080000C94A0060C94A0060C94A0060C94A00658
:100090000C94A0060C94A0060C94A0060C94A00648
:1000A0000C94A0060C94A0060C94A0067B084308B0
:1000B00049084F0855085B08610867086F0875080C
:1000C000220C220C510C510CB80CD40C680E680E8A
:1000D000DF0CBD0DCE0DCE0DD327D827E227D627B6
:1000E000DB27E027DE278E299129942997299A2951
:1000F0009D29A029CB2CF22C952EF22C952E3E2D4D
:10010000612D952E562E652E0102E201016201013C
:100110005901015C0101610103E2000102E20101F8
:100120005901015B0101620103E2000102E20101E8
:100130005901015B0101600103E2000102E20101DA
:100140005901015D0101590103E2000102E20101CF
:100150006201015901015D0101590103E20001023F
:10016000E201016201015901015D0101620103E245
:10017000000102E201015901015B01015D0103E29D
:10018000000102E201015901015B01015B0103E28F
:10019000000102E301012C0103E30035002B0029DB
:1001A00000D85C025300001E00140004001D00AEC5
:1001B0005D2D001F001A0015001B0005512A0020AC
:1001C0000009001600060003512C612100130017DE
:1001D0000019000451010022000A00070005000078
:1001E000000100075D2F0200002F000000E3000166
:1001F000533002000030000000160123000D000BF8
:10020000000E000000100324000F00110010000376
:100210005101002500180008003600055128642609
:10022000001C000C003700010004512700330012AD
:1002300000380001002E002D0031003400D95C018F
:1002400000000001000100010001000100000001A8
:100250000001000100010001000100010001001681
:100260000001000100010001000800070001000179
:10027000000100010015000900010001000100015A
:100280000017000A00010000000100010001000049
:100290000001000000010001000100000001000059
:1002A00000010001001C000100110000000100011C
:1002B0000018000D0001000100010001000C000EFB
:1002C00000010001000100010012000F0001000107
:1002D00000010001001300330001000100010001D2
:1002E0000001000100010001000000010001000107
:1002F00000010001000000010001000100010001F7
:100300000001000100010001000100E00001000106
:1003100000010001000100E2002C68010001000161
:1003200000010001000100010001000100010000C6
:1003300000010001000100000001000000B25D01A9
:1003400000010000000100000001000100010001A7
:100350000001000000010001000100010001000196
:100360000001000100010001000100010001000185
:100370000001000100010001000100010001000175
:100380000001000100010001000100010001000165
:100390000000000100010001000100010000003A1E
:1003A00000010001000100010001003B00240221C6
:1003B000021E02010001003C00250222021F020170
:1003C0000001003D00260223022002010001003E40
:1003D0000035002D002E000000010001000100008A
:1003E0000001000000010001000100000001000008
:1003F0000001003F00010001000100000001004079
:10040000005F005C00590062000100410060005D77
:10041000005A0037000100420061005E005B0001ED
:10042000000100430001000100010001000100443F
:100430000045000100010001000000010001000171
:10044000000100010000003A002900E1001D010147
:100450000001003B00F900FA001B01010001003C13
:1004600000B600E0000601010001003D00B700E217
:10047000001901010001003E00ED00EE0001000046
:100480000001000100010000000100000001000166
:1004900000010000000100000001003F004B004E81
:1004A00000F1000000010040004A005000F200018D
:1004B000000100410052005100EF00010001004224
:1004C000004D004F00F0000100010043004C002AE5
:1004D0000001000100010044004500005C01000132
:1004E0000000000100010001000100095D000001A1
:1004F000000100B35D0100010001000100010001E5
:100500000001000100CA5C010001000100B45D01AE
:1005100000CB5C01000100010001000100010001AD
:10052000000100010001000000C45C0100010000A6
:100530000001000000B15D045D0100000001000049
:1005400000C35C01000100010001000000B05D017A
:10055000000100B85D0100010001000100B75DB9B4
:100560005D01000100C65C010001000100BA5D01EF
:1005700000C75CB55D01000100010001000100B68B
:100580005D01000100010001000000000101010106
:10059000010101010102020202020202020203033E
:1005A000030303030303040404040404040505050E
:1005B00005050606060606070707070708080808D0
:1005C000090909090A0A0A0B0B0B0C0C0C0D0D0D7D
:1005D0000E0E0E0F0F0F1010111111121213131413
:1005E00014151516161717181819191A1A1B1B1C8B
:1005F0001D1D1E1E1F2020212222232424252626E5
:10060000272829292A2B2C2D2D2E2F303132323319
:100610003435363738393A3B3C3D3E3F4041424322
:100620004445464748494A4C4D4E4F505153545506
:100630005658595A5B5D5E5F616264656668696BB6
:100640006C6D6F7072737577787A7B7D7E80828334
:100650008587888A8C8E8F91939596989A9C9EA078
:10066000A2A3A5A7A9ABADAFB1B3B5B7BABCBEC085
:10067000C2C4C6C9CBCDCFD1D4D6D8DBDDDFE2E44E
:10068000E7E9EBEEF0F3F5F8FAFDFF00443454002F
:1006900074648400554565008575950036264600CE
:1006A000665676009686A60037274700776787004C
:1006B0003828480088789800392949006959790014
:1006C0009989A9003A2A4A006A5A7A003B2B4B00C2
:1006D0006B5B7B004C3C5C007C6C8C005D4D6D006A
:1006E0008D7D9D003E2E4E006E5E7E014434540191
:1006F000746484015545650185759501362646016A
:10070000665676019686A6013727470177678701E7
:1007100038284801887898013929490169597901AF
:100720009989A9013A2A4A016A5A7A013B2B4B015D
:100730006B5B7B014C3C5C017C6C8C015D4D6D0105
:100740008D7D9D013E2E4E016E5E7E0000000000FC
:100750000000000000000000000000000000000099
:100760000000000000000000000000000000000089
:100770000000000000000000000000000000000079
:100780000000000000000000000000000000000069
:100790000000000000000000000000000000000059
:1007A0000000000000000000000000000000000049
:1007B0000000000000000000000000000000000039
:1007C0000000000000000000000000000000000029
:1007D0000000000000000000000000FC77FFFC7734
:1007E000FFFC77FFFC77FFFC77FF00D1BDFC77FFB4
:1007F000FC77FFFC77FFFC77FFFC77FFFC77FFFCC3
:1008000077FFFC77FFFC77FFFC77FFFC77FFFC7737
:10081000FFFC77FFFC77FFFC77FFFC77FFFC77FF9F
:10082000FC77FFFC77FFFC77FFFC77FFFC77FFFC92
:1008300077FF00D1BD00D1BD00D1BD00D1BD00D139
:10084000BDFC77FFFC77FFFC77FFFC77FFFC77FFB1
:10085000FC77FFFC77FFFC77FFFC77FFFC77FFFC62
:1008600077FFFC77FFFC77FFFC77FF0000000000BC
:100870000000000000000000000000000000000078
:100880000000000000000000000000000000000068
:100890000000000000000000000000000000000058
:1008A0000000000000000000000000000000000048
:1008B0000000000000000000000000000000000038
:1008C0000000000000000000000000000000000028
:1008D0000000000000000000000000000000000018
:1008E0000000000000000000000000000000000008
:1008F000000000000000000000000086FFD586FF19
:10090000D586FFD586FFD586FFD500000055CB9E46
:1009100055CB9E55CB9E00000000000055CB9E5548
:10092000CB9E55CB9E00000000000055CB9E55CBC2
:100930009E55CB9E00000055CB9E55CB9E000000DF
:1009400000000086FFD586FFD586FFD586FFD586B9
:10095000FFD555CB9E55CB9E55CB9E55CB9E0000CB
:100960000055CB9E55CB9E55CB9E55CB9E0000008F
:1009700055CB9E55CB9E55CB9E55CB9E00000086F9
:10098000FFD586FFD586FFD5000000B4FFE9B4FF90
:10099000E9B4FFE9B4FFE9B4FFE986FFD586FFD5E6
:1009A00023FFFF86FFD5F3DEEA86FFD523FFFF2373
:1009B000FFFF23FFFFF9E4FF0000FF0000FF00003E
:1009C000FF0000FF00000000000000000000000029
:1009D000000000B4FFE9B4FFE9B4FFE9B4FFE9B4F3
:1009E000FFE90000FF86FFD586FFD523FFFFF9E46E
:1009F000FF0000FF55CB9E55CB9E23FFFF55CB9E9E
:100A0000000000F9E4FFF9E4FFF9E4FFF9E4FF0076
:100A100000000000000000000000000000000000D6
:100A20000000000000000055CB9E00000000000008
:100A300055CB9E00000000000000000055CB9E55E5
:100A4000CB9E00000000000000000000000000003D
:100A50000055CB9E000000000000000000000000D8
:100A60000000000000000000000000000000000086
:100A70000000000000000000000000000000000076
:100A80000000000000000000000000000055CB9EA8
:100A900000000000000055CB9E0000000000000098
:100AA0000000000000000000000000000000000046
:100AB0000000000000000000000000000000000036
:100AC0000000000000000000000000000000007EA8
:100AD0000F00D4FFFFFFC7000000780000000000F7
:100AE0000000002A2B280000000000000000000089
:100AF00000000000000029000000002C1E3420210E
:100B00002224342627252E362D3738271E1F202154
:100B100022232425263333362E37381F04050607B3
:100B200008090A0B0C0D0E0F1011121314151617CD
:100B300018191A1B1C1D2F3130232D3504050607EB
:100B400008090A0B0C0D0E0F1011121314151617AD
:100B500018191A1B1C1D2F3130354C05010980A1B5
:100B600001850319012AB700150126B70095017503
:100B7000108100C0050C0901A101850419012AA0FA
:100B800002150126A002950175108100C00501091A
:100B900006A1018506050719E029E715002501953D
:100BA00008750181020507190029EF150025019537
:100BB000F075018102050819012905950575019156
:100BC00002950175039101C005010902A101090106
:100BD000A1000509190129081500250195087501CD
:100BE00081020501093009311581257F95027508BB
:100BF000810609381581257F950175088106050C48
:100C00000A38021581257F950175088106C0C00547
:100C1000010906A101050719E029E715002501953D
:100C200008750181029501750881010507190029E0
:100C3000FF150026FF0095067508810005081901BB
:100C40002905950575019102950175039101C0096A
:100C5000025400030100A0FA09040000010301018D
:100C6000000921110100012240000705810308004D
:100C70000109040100010301020009211101000121
:100C8000224700070582030800010904020001034E
:100C9000000000092111010001226D0007058303F6
:100CA000200001120100020000000897327649017D
:100CB000000102000120034500720067006F00443C
:100CC000006F007800200045005A00200047006CAB
:100CD000006F007700000028035A005300410020F5
:100CE0000054006500630068006E006F006C006FC8
:100CF000006700790020004C006100620073000072
:100D000000040309040011241FBECFEFDAE0DEBFA8
:100D1000CDBF12E0A0E0B1E0E8E6F7E702C0059041
:100D20000D92AA35B107D9F728E0AAE5B2E001C0D3
:100D30001D92AF33B207E1F70E9498220C94B23BA8
:100D40000C940000ADE0B0E0E8EAF6E00C94BB34AF
:100D5000FC018081918123813481232B31F09F3FDD
:100D600031F491E08F3F19F403C091E001C090E0AD
:100D700090FF02C00C940E0F7F0185E0DE011996F2
:100D800001900D928A95E1F7D70112962C918985F1
:100D90009A85222349F00E944231182F682F8985B5
:100DA0009A850E94C03103C00E948B31182F69853B
:100DB0007A85812F0E94570F8C0180915C058111EB
:100DC00047C0F7018281811142C10530FDE51F074F
:100DD00029F198F404303DE5130709F0A9C00E94F9
:100DE000F7290E947C320E944B328CE592E090936E
:100DF000F3078093F20781E01EC007308DE51807E6
:100E0000E9F008309DE5190709F092C060910A01E8
:100E100070910B014FEF86E595E017C00E94F7290E
:100E20000E947C320E944B3286E595E09093F30756
:100E30008093F20782E080935C052AC260910C01E6
:100E400070910D0141E08CE592E00E94B21F20C23A
:100E5000980124503D452330310508F052C091E0FF
:100E60000630ADE51A0709F490E0F7012281291751
:100E700009F40EC28130A1F0823009F03FC0009128
:100E8000F2071091F3071092E10560916E077091DF
:100E90006F0780917007909171070E94B92726C053
:100EA0000091F2071091F3071092E10560916E072F
:100EB00070916F0780917007909171070E94B92718
:100EC000F2E00C351F0739F0F8013697828188234C
:100ED00011F08F01F5CF10930D0100930C010EC09E
:100EE000F80136968281882329F08F0125E00635A6
:100EF0001207B1F710930B0100930A0110925C05E1
:100F0000C7C1813059F0823099F460910C01709121
:100F10000D0197014FEF86E595E008C060910A0149
:100F200070910B01970141E08CE592E00E94182A34
:100F30000F3AFDE51F0709F043C0D70112968C91C7
:100F4000882309F4FEC09091FF0781E0890F877024
:100F5000987F853020F4892B8093FF0702C09093FF
:100F6000FF078091FF078770BFEF8B9FC00111249F
:100F70009595879595958795992790938900809366
:100F8000880090938B0080938A0090938D008093CB
:100F90008C004091FF07509100086091010870910A
:100FA00002088FE090E00E94983560916E07709182
:100FB0006F0780917007909171070E94B927C1C097
:100FC000003B2DE5120721F5F7018281882309F402
:100FD000B8C08091FF0783FB222720F991E0922778
:100FE00090FB83F98093FF07992329F040E060E0AC
:100FF00080E00E9400174091FF0750910008609127
:101000000108709102088FE090E00E94983599C025
:10101000033C3CE5130749F5D70112968C918823D0
:1010200009F436C19091FA078091F4079F3F59F473
:101030001092FA0781608093F40740E060E080E05E
:101040000E94001725C19FEF9093FA0767C00F3ADF
:10105000FDE51F0709F471CF003B2DE5120709F4E8
:10106000B3CF033C3CE51307E9F2F801E15BFD4532
:10107000EA30F10508F065C0EA5AFF4FD701129631
:101080008C910C94BD37882309F47BC081E991E0F1
:1010900023C0882309F475C081E891E01DC088232E
:1010A00009F46FC081E791E017C0882309F469C093
:1010B0008EE591E011C0882309F463C08BE491E0D0
:1010C0000BC0882309F45DC08BE391E005C0882341
:1010D00009F457C08BE291E00E94112752C0882387
:1010E00009F44FC08BE191E0F7CF882309F449C0A0
:1010F00088E091E0F1CF882309F4CAC017C0033C0F
:101100003CE5130709F0E1C29091F50781E08927DA
:101110008093F507109223018091F40781608093FA
:10112000F407B6C00E3CACE51A0711F481E006C026
:101130000F3CBCE51B0709F0C8C285E00E94FF29EF
:10114000A7C00E3A8DE51807E1F4F70182818823E4
:1011500009F49EC080916D07882319F00E94E91F51
:1011600097C0109247070E9486110E94B31E8857AD
:101170009C4E9093BA078093B90781E080936D07E6
:1011800087C080916D07882389F0D0904707C09071
:10119000D6050E94B31E88579C4E9093BA07809341
:1011A000B907D70112968C91811185C00E94B31E98
:1011B0005C01D70112968C91882309F4A3C1809118
:1011C000100182FF07C043EB57E0B50180E090E0DB
:1011D0000E941A200931BCE51B0709F414C108F468
:1011E000E1C00B313CE5130709F0EBC08091100121
:1011F000816080931001C8019056811520E292070A
:1012000008F47BC1905E8115904108F476C180910D
:10121000100180FFFBC1F70182810B32110509F03B
:101220008EC1882309F4C8C18091D60590914707E3
:10123000982B292F2D7F09F498C110926C071092DA
:101240006B07F80124E0F695E7952A95E1F7EE0F94
:10125000FF1FE75BF84F98012F70332781E090E084
:1012600002C0880F991F2A95E2F7809590952081FA
:1012700031818223932391838083C8010E949F2719
:101280008091D6058D7F0E948C1182E00E94F91119
:101290008091B505877009F4C1C5D70112968C916C
:1012A000882309F4BBC58091810782FFB7C582E01E
:1012B0000E94F911B3C58C2D8D298D7909F06CC070
:1012C0000115B5E51B07B0F40115E3E51E0708F0AD
:1012D0006DCF0115F0E51F0740F4011520E412075A
:1012E00008F5063E110539F561CF011532E5130702
:1012F00010F55CCF011589E5180750F4011598E544
:10130000190708F053CF0431A5E51A07A1F44ECF11
:10131000C80190568115904270F4F7018581807F55
:1013200039F43AC0D70115968C91807F09F43ECFED
:101330006801DD2401C068018091100180FF02C0B6
:101340008DEF01C08FEF0E949611B8E2CB16D10449
:1013500048F4EEE1CE16D10410F5F4E0CF16D10436
:10136000D8F014C02DE2C216D10481F028F48AE22C
:10137000C816D104A1F010C09CE4C916D10479F0BC
:10138000ADE2CA16A2E0DA0651F006C08091480725
:1013900082608093480703C00E94E91F07CF0E9424
:1013A000A41104CF0731FCE51F0719F108312CE522
:1013B000120709F020CF80910E0190910F0105973F
:1013C0001DC00B318CE5180748F00C319CE519075E
:1013D00009F011CF809110018E7F06C0809110011D
:1013E000982F909590FB80F9809310010E94F31F35
:1013F00002CF80910E0190910F01059690930F01FD
:1014000080930E01F8CE80910F018F9380910E0191
:101410008F9389E291E09F938F931F9288E08F933F
:10142000DE0111966D01BF93AF930E94F1380FB6A4
:10143000F894DEBF0FBECDBF4AE0742ED6018C916A
:10144000882309F4D8CE813009F051C011968C91CF
:10145000813049F44601B2E08B0E911CF601828185
:101460000E948E330BC0823059F44601F2E08F0E99
:10147000911CD60112968C910E94E932640139C008
:10148000833049F44601B2E08B0E911CF601828153
:101490000E94B432F3CF843021F0FFEFCF1ADF0A7D
:1014A00028C0D60112962C91F60132966F0180E089
:1014B00090E030E0205331092A30310570F4789EF5
:1014C000A001799E500D1124C901840F951FFFEFD3
:1014D000CF1ADF0AD6012C91ECCF009751F0EFE93B
:1014E000FFE03197F1F700C000000197F6CF0E94AE
:1014F000B426FFEFCF1ADF0AA1CF10926C0710922B
:101500006B0784C0013E110521F4809110018F7E8C
:1015100006C0053E110531F4809110018F7D809346
:10152000100175CEC80190568115A0E29A0708F403
:101530006DC0905E8115904108F069CE67C00C3295
:10154000110538F498012450310924323105D0F5C1
:1015500068CE0D321105B0F10933110508F461CEE2
:101560000436110509F45DCE2DC026E0F701A3EB8A
:10157000B7E001900D922A95E1F71092B50710920D
:10158000B7071092B607969591702091100190FBC5
:1015900021F9209310018D7F0E948C1110936C070C
:1015A00000936B07B0926A07A092690780911001BF
:1015B00084608093100169CEA701B501C8010E9423
:1015C0001A2066CE882311F110926C0710926B07D7
:1015D000043FFCE51F07B9F178F4093D3CE513072A
:1015E00061F10A3D8CE5180709F44EC0083D9CE501
:1015F000190709F058C01BC0063FACE51A07A1F156
:1016000068F1073FECE51E07C9F14DC0043FBCE59A
:101610001B07C9F0F0F4093DFCE51F0771F00A3D16
:101620002CE5120789F1083D3CE51307B1F506E208
:1016300021EE41EE68ED7CE52CC007E225EE45EE9B
:1016400069ED7CE526C006E221EE40EE64EF7CE524
:1016500020C0063F8CE5180739F060F407E225EE5C
:1016600044EE65EF7CE515C006E221EE42EE66EF42
:101670007CE50FC0073FACE51A0779F407E225EED9
:1016800046EE67EF7CE505C008E221E045EE6AED35
:101690007CE5C7010E94491FFBCDD70112968C91B2
:1016A000882309F443C3109274070FC0013D2CE551
:1016B000120708F499C3073DECE51E0708F4A7C319
:1016C0000F352DE5120709F4E3CDF7018281882358
:1016D00009F46CC00C35FDE51F0709F462C060F425
:1016E00001153CE51307A9F00F3D8CE5180709F03B
:1016F0005DC00E940A114AC00E359DE5190709F424
:1017000048C008F450C0093ABDE51B0709F43EC0C3
:101710004DC00E947C32EFEFF4E30CE0E150F0406A
:101720000040E1F700C00000F89481E08093E00001
:1017300080E28093D8001092C9008FE19EE4019767
:10174000F1F700C000001DBA109268001CBC10BE6A
:101750001FBA10927A0010926E0010926F001092D1
:101760007100109272001092C9001092BC0014B85F
:1017700017B81AB81DB810BA1092BC0015B818B82E
:101780001BB81EB811BA0C94003F82CD0E946F277F
:101790007FCD8091810782FB882780F991E089279E
:1017A00003C081E001C080E00E941612F70182812F
:1017B00000811181882349F0C8010E944231D82E4E
:1017C000682FC8010E94C03104C0C8010E948B313B
:1017D000D82EB8018D2D0E94570F0E94700F8C01DA
:1017E000A82EF701D280B580B2949FE0B9228091F3
:1017F000B5058770B9F0DD20A9F0812F807F803496
:1018000021F080E2800F883068F08091810782FFAC
:1018100009C082E00E94F9118091B5058770CC243F
:10182000C3948111C12C912E92948FE09822892D1E
:1018300090E08C30910508F04BC2FC01E05AFF4F5C
:101840000C94BD37812F807F1F70882311F0129573
:10185000107FDD20B9F0112309F427C280E2800F48
:10186000883010F0A11006C080914707182B109304
:10187000470705C080914807182B109348070E941E
:10188000A41113C2802F0E94B432112309F420C284
:10189000005E812F083060F1AA2051F10E9496115C
:1018A00029C0812F807F1F70803211F01295107F28
:1018B000AA2021F0F1E0AF16C1F144C08091810768
:1018C00082FD1BC0DD2069F0112339F080914707AC
:1018D000182B109347070E94A41180E00E94E93260
:1018E000F7C180E00E94B432112309F4F1C1812FC5
:1018F0000E949D110E94A411EBC1DD2069F080912E
:10190000D605B11002C0812B17C001E0812BB012A7
:1019100013C00E948C11DCC1BB2021F021E0B21663
:1019200009F4D6C10E9486111FC0DD2041F031E0CC
:101930003B1508F4CDC1812F0E94AA32C9C1B11054
:10194000C7C112C0DD2019F0BB20A9F3AEC1BB2076
:1019500059F0093309F0B9C18FEF97EEA3E0815038
:101960009040A040E1F7AFC1812F0E94A332B0C1E7
:10197000812F86958695837019F0813059F0A8C122
:10198000DD2019F0C801937002C080E090E00E9451
:10199000261FA4C1DD2019F0C801937002C080E0A9
:1019A00090E00E94101F9AC1802FDD2019F00E9444
:1019B0003D2202C00E94C6210E94ED1A8FC1812FD4
:1019C000837009F069C0D11087C1902F92959695C8
:1019D0009770990F990F802F8F70882E912CA12CC2
:1019E000B12C092E04C0880C991CAA1CBB1C0A949B
:1019F000D2F704FF12C04FE050E060E070E004C096
:101A0000440F551F661F771F9A95D2F7DB01CA0155
:101A100080959095A095B09503C080E090E0DC01A2
:101A200016951695412F4370423019F1C8F4009174
:101A3000D7051091D8052091D9053091DA054130AC
:101A400059F088299929AA29BB29BC01CD01602315
:101A50007123822393230AC0802A912AA22AB32ABF
:101A6000BC01CD01682979298A299B290E9451321C
:101A700033C188299929AA29BB290091D70510913A
:101A8000D8052091D9053091DA05BC01CD01602738
:101A9000712782279327EACFDD2019F0812F8170EB
:101AA00001C08695882309F417C1902F92959695C9
:101AB0009770990F990F802F8F70882E912CA12CE1
:101AC000B12C092E04C0880C991CAA1CBB1C0A94BA
:101AD000D2F704FF12C04FE050E060E070E004C0B5
:101AE000440F551F661F771F9A95D2F7DB01CA0175
:101AF00080959095A095B09503C080E090E0DC01C2
:101B000016951695412F43704230D9F068F5009133
:101B10006E0710916F072091700730917107413067
:101B200059F088299929AA29BB29BC01CD01602334
:101B30007123822393231EC0802A912AA22AB32ACA
:101B400013C088299929AA29BB2900916E071091F1
:101B50006F072091700730917107BC01CD0160279C
:101B600071278227932706C0BC01CD0168297929F6
:101B70008A299B290E94F631AFC01F70DD2039F001
:101B8000812F0E942932802F0E94AA32A5C0802F67
:101B90000E94A332812F0E9403329EC0802FB2EF99
:101BA000AB1609F441C0BA1538F0E0EFAE1659F0A3
:101BB000F1EFAF16A1F174C023EFA216E1F134EFFB
:101BC000A31649F16DC0DD2009F1B11081C01F716C
:101BD00081E090E0A0E0B0E0AC01BD0104C0440FA2
:101BE000551F661F771F1A95D2F780916E07909147
:101BF0006F07A0917007B09171078A019B010827B8
:101C000019272A273B27C901B80125C021E02B1538
:101C100008F45EC0DCCF8091810782FD22C0DD2008
:101C200029F0812F8F712FC0DD20D9F3812F8F7183
:101C30000E9403324DC0DD2089F01F7181E090E0E9
:101C4000A0E0B0E0BC01CD0104C0660F771F881F83
:101C5000991F1A95D2F70E94F6313AC00E944B3272
:101C600037C0DD2099F01F71812F0E9429328091A9
:101C7000810782FF07C038E0139FC00111248360F1
:101C80008093B505812F0E94293222C081E00E94F5
:101C9000F91181E08B15E0F482E00E94F91118C07F
:101CA000DD2029F0BB2009F4BCCF802F17CEBB204C
:101CB00009F4BCCF893349F49FEFA7EEB3E091500C
:101CC000A040B040E1F700C00000802F0E94B43275
:101CD00088EF890D843010F40E943C1FCC20A9F0BD
:101CE0008091B50580FD11C0F7011282859585951B
:101CF00085950E942932C7010E94A2068091B505F0
:101D00008595859585950E94033285E0F701DE0172
:101D1000119601900D928A95E1F709811A81C80107
:101D20000E948B31B8010E94570F78C080914707FD
:101D300082720B3C9CE51907A1F448E95FE26BE86D
:101D40007FE20CC0073CECE51E0710F5043CFCE507
:101D50001F07A1F443ED5FE26DED7FE20E94D82002
:101D600097CA0C3CACE51A07C0F5063CBCE51B075E
:101D700049F74FEB5FE269EC7FE2F0CF053C2CE5E1
:101D8000120708F4BCC94DED5FE263ED7FE2E6CFD8
:101D9000083C9CE5190729F445EA5FE262EB7FE223
:101DA000DDCF083CACE51A0728F449EC5FE26FEBA5
:101DB0007FE2D4CF093CBCE51B0729F442EB5FE28C
:101DC00065EA7FE2CBCF0A3CECE51E0709F07DCC4B
:101DD0004BE85FE268E97FE2C1CF003DFCE51F0709
:101DE00009F064CC8CE0AAC90D3C3CE5130729F44A
:101DF0004BEB5EE26DEA7EE2B1CF0D3C9CE519074C
:101E000008F090C94DEA5EE26BEB7EE2A7CF023D9F
:101E1000FCE51F0708F03CCA81E190C92D96EDE072
:101E20000C94D73480E008959091800792FF0DC004
:101E3000282F2871283019F4877F846006C0282F46
:101E40002471243011F48B7F886093FF0DC0282FFC
:101E50002871283119F4877E846106C0282F2471E7
:101E6000243111F48B7E88612091810720FF0DC001
:101E7000382F3871383019F4877F816006C0382FC9
:101E80003171313011F48E7F886021FF0DC0282F11
:101E90002871283119F4877E816106C0282F2171AD
:101EA000213111F48E7E886194FD877E08957E3005
:101EB000A0F4663090F494E5899FF001112486E047
:101EC000789FE00DF11D1124E60FF11DEE0FFF1FAD
:101ED000E556FE4F85919491089580E090E0089535
:101EE000CF93DF938238910569F1B0F48133910586
:101EF00009F46FC048F48932910509F465C08A324B
:101F0000910509F46BC08AC08533910509F457C067
:101F100089339105B9F082C0833E910571F138F49F
:101F2000803E9105B1F0823E910511F177C0863E69
:101F30009105B9F1873E9105C9F1843E910509F0FB
:101F40006DC024C02091800720FD53C021FD51C0E9
:101F500065C08091800780FD46C08091810780FF29
:101F600048C08091800784FD50C183EE90E04FC14E
:101F70008091800782FF3AC0F4CF8091800782FD74
:101F800035C08091810780FD34C0EBCF80918107FF
:101F900081FF35C08091800784FD37C187EE90E0D6
:101FA00036C18091800783FF27C0F4CF80918007DE
:101FB00083FD22C08091810781FD21C0EBCF8091FC
:101FC000800785FD1FC021C08091800785FD1DC051
:101FD00019C08091800786FD1BC01DC080918007BD
:101FE00086FD19C015C089E390E011C182EE90E032
:101FF0000EC180EE90E00BC186EE90E008C184EE49
:1020000090E005C189E290E002C185E390E0FFC065
:102010008AE290E0FCC081E390E0F9C0811531E5EF
:10202000930708F069C0811540E59407F0F09C0122
:1020300074E0369527957A95E1F7922F9370482FA3
:10204000437021E030E002C0220F331F4A95E2F7CF
:102050003C68392B982F9F709695969540E2949FF7
:10206000C0011124822B932BD2C0883E910568F5C4
:10207000803E910508F0CBC0883A9105B8F4853AC6
:10208000910548F0855AE82FF0E0E25DFE4F80812F
:1020900090E09064BCC08130910509F4B3C008F4AD
:1020A000B4C08430910508F4B0C0B1C08F3B910535
:1020B00008F0ABC0885AE82FF0E0EE0FFF1FEF5C8E
:1020C000FE4F808191819464A2C0811520E2920725
:1020D00058F4811531E0930708F099C08D3E9105C1
:1020E00008F493C0906593C0811540E4940708F408
:1020F0008CC09F70906A8BC0811525E5920708F00F
:1021000042C0811534E5930728F0982F8827846F03
:10211000906A7DC0811543E59407B0F09C0123705F
:10212000332741E050E002C0440F551F2A95E2F7E3
:10213000282F2695269580E2289F90011124CA0118
:10214000822B932B9A6863C0811522E5920728F4AD
:10215000982F8827816F906A5AC09C01237033277B
:1021600041E050E002C0440F551F2A95E2F7282FA6
:102170002695269580E2289F90011124CA01822B82
:10218000932B9C6844C0EC01811539E59307A8F4B2
:102190008115984528F09C2F8827806F906A37C05A
:1021A000C11586E5D80788F58C2F0E94140F8F7112
:1021B00090E0982F882790622AC081152AE592071F
:1021C00090F48C2F8F700E94140F94E0D695C795D1
:1021D0009A95E1F7CF70D0E0DC2FCC27D0699E0133
:1021E000282BC90114C090568115904270F48D2F90
:1021F0008F710E94140F282F2F71CE0199279062A2
:10220000922B05C081E090E002C080E090E0DF9179
:10221000CF91089568EE7EEF80E090E00E94A435B3
:1022200060E082E090E00E94863560E083E090E02C
:102230000E9486351092D7051092D8051092D905C4
:102240001092DA0560E084E090E00E94863564E058
:1022500082E290E00E94863560E085E090E00E9496
:10226000863560E086E090E00E9486356FEF87E07B
:1022700090E00E94863540E050E0BA0188E090E0AE
:102280000E94983560E08DE090E00E94863540E045
:1022900050E0BA0188E190E00E94983560E087E163
:1022A00090E00E94863540E050E0BA018CE190E079
:1022B0000E94983560E070E080E290E00E94A435D2
:1022C00040E050E0BA0188E190E00E949835109219
:1022D000FF0710920008109201081092020884E093
:1022E0008093FF074091FF0750910008609101081B
:1022F000709102088FE090E00E94983540E050E035
:10230000BA0183E190E00E94983508958091D60546
:1023100081111092D60508959091810792FF05C012
:102320009091D60598138093D60508958095909145
:10233000480789238093480708958095909147071F
:102340008923809347070895909147078091480714
:10235000982B90935D058091D6058823D9F0892B21
:1023600080935D0580911F01882331F08091800763
:1023700087FF02C08EE101C086E0EFE5F5E090E066
:10238000815028F021912223D9F39F5FF9CF911139
:102390000E94861140E250E066EB75E08DE595E025
:1023A0000E94E438892B21F180E2EDE5F5E0A6EB0F
:1023B000B5E001900D928A95E1F7E0917707F091F1
:1023C00078073097A9F080911F01882359F08091F8
:1023D000800787FF07C080915D0580935E0586E0DA
:1023E00080935D050280F381E02D8DE595E00995F0
:1023F00008952091B505809582238093B505982F87
:10240000977099F430E0482F082E000C550B2417D4
:10241000350759F09091810792FF07C08595859502
:1024200085950E9403321092B5050895CF93C0910F
:102430008107C2FB992790F9981791F080FBC2F9A8
:10244000C09381076091800784E090E00E94863508
:102450006C2F82E290E00E94863582E00E94F911A2
:10246000CF9108958091B40590918305891719F053
:102470008F5F8770FBCF08950F931F93CF93DF93E8
:102480008091820582958F7009F05AC080917F05F6
:10249000882309F455C08091B4051091830560919B
:1024A0007D0570917E05C0918005D091810591E0F8
:1024B0006F3F09F090E0292F06E0811709F440C032
:1024C000209721F07F3F21F030E003C031E001C0D0
:1024D000322F90E030FD31C0089FF001099FF00DD0
:1024E0001124DF01AC57BA4F11963C911197371365
:1024F00024C03C91361321C012963C9112973111A1
:102500001CC013964D915C9114974C1B5D0B483C7D
:10251000510598F4809182058F70806180938205C7
:10252000E757FA4F80818F70806180838DE795E057
:102530000E94A2060E94321203C001968770BDCF8E
:10254000DF91CF911F910F910895A1E1B0E0EBEAE7
:10255000F2E10C94BD348C0185E0F801DE011D969A
:1025600001900D928A95E1F7F801E28090917D0546
:1025700060917E054091800550918105411551057E
:1025800031F06F3F31F481E09F3F19F403C081E0E7
:1025900001C080E0F82FF1709F2E80FD1BC1F80173
:1025A00030812181C380D4808DE7A82E85E0B82EAC
:1025B000F0907F05F601E41BF50BFF2009F4C7C07E
:1025C00080918205E83CF10508F092C0482F407FD9
:1025D00009F051C0621311C093130FC0FE2CE1101B
:1025E0000CC08F70806180938205C5010E94A20695
:1025F00080918205F80185832AC1C114D10431F08C
:102600002F3F31F481E03F3F19F403C081E001C066
:1026100080E080FD03C081E08E2502C080E090E074
:10262000F82FF170FF2E80FF1CC08091B4054091FF
:10263000830556E0841709F4E8C090E0589FF00144
:10264000599FF00D1124EC57FA4F6181261306C0F3
:102650006081631303C06281E61203C00196877034
:10266000E9CFFE2CEE2009F4F2C080918205816052
:102670008093820549C0621306C0931304C0E11021
:1026800002C0F80186C0C8010E945C32882351F163
:10269000EE2041F120918205822F82958F7090E08B
:1026A000029774F080917D0590917E0598878F83C5
:1026B0001986DB86CA862C87CE0107960E94A20661
:1026C00086E0F801ADE7B5E001900D928A95E1F75B
:1026D0000E943C120AC06217C9F0C8010E945C3215
:1026E00081111EC0C8010E94A206FF24F394AFC04E
:1026F000482F407F81F78DE795E00E94A20686E093
:10270000F50111928A95E9F7F12CA1C09313E5CF59
:10271000E110E3CFF8018583C8010E94A20654C0EE
:10272000EE2001F320918205822F82958F7090E038
:10273000029734F280917D0590917E059A8389837A
:102740001B82DD82CC822E83CE010196B7CFE83C7E
:10275000F105D0F5FE2CEE2029F2621327C0931369
:1027600025C02091820520FD18C0822F82958F7090
:10277000482F50E04115510581F0F80125834F3075
:10278000510541F08F5F982F9295907F822F8F7027
:10279000892B8583C8010E94A20686E0F801ADE777
:1027A000B5E001900D928A95E1F751C0C8010E94F1
:1027B0005C32811185CF8091820581608093820592
:1027C000C8010E94A20643C086E0F50111928A95D5
:1027D000E9F73DC0EE2009F485CFC8010E945C32C4
:1027E000F82E882309F47ECF86E0F801ADE7B5E046
:1027F00001900D928A95E1F780917D0590917E057B
:102800000E947E310E943C1222C03D872E878D851A
:102810009E850E947E31292F22952F70223028F428
:102820009F7039F0811105C00BC0243028F49F70CF
:1028300049F4805E883020F0C8010E94A2069F2CD7
:10284000F92C05C0F8019581907F99F7F9CF8F2D6C
:102850006196EBE00C94D934A0E0B0E0E2E3F4E15F
:102860000C94BF3480911D0190911E01892BA1F021
:102870008091DB058F5F8093DB0581110DC00E9485
:10288000692890E090931E0180931D01892B21F40B
:102890000E94E0280E94613008E817E07801B12C1E
:1028A000C0E087E0C82ECC0E8C2F0E9450298C2DC2
:1028B0000E9450298C2F0E94B3298F73F7019081B9
:1028C000891721F08083DD24D39401C0D12C8C2D75
:1028D0000E94B3298F73F7019781891719F08783B5
:1028E00081E001C080E0D82ABD280E94A429CF5FE2
:1028F000FFEFEF1AFF0AC730A1F6C091DF05CC2326
:10290000C9F10E94B31E2091DD053091DE05AC01B6
:10291000421B530B9A019093DE058093DD054F3FD8
:10292000510509F020F4452B09F465C002C02FEFD2
:1029300030E01092DF051092DC05E0918607F091FF
:102940008707AF01425F5F4F90E030E080818823CE
:1029500041F0281718F010829C2F03C0821B80833F
:102960003C2F3196E417F50789F73093DF059093F4
:10297000DC0541C0BB20B9F10E94B31E9093DE0577
:102980008093DD05E0918607F09187078091DF0550
:10299000A6E9B7E09F01225F3F4F42E3E80199912A
:1029A0008E015C91591731F05081511103C0408361
:1029B0009C9381E031961196E217F30779F78093A3
:1029C000DF058091E1058823D1F025982D9880912D
:1029D000E0058F5F8093E005853610F0259A2D9AEB
:1029E0000E94B31E0CC080E09091DC05992349F34E
:1029F0008111C8CFC1CFB110C5CF81E0F5CF8B2DEC
:102A0000CDB7DEB7E9E00C94DB340F931F9310E0F1
:102A1000F801EE0FFF1FE653FE4F9081905797FD90
:102A20009195000F111FF801E553FE4FE081F0E092
:102A3000B097DF01AA0FBB1F8D010E0F1F1F2003D0
:102A4000D001219FB00D1124E8E3F0E0E91BF1096A
:102A500097FDF3959F01220F331F89010E0F1F1F52
:102A600040039001419F300D11242A0F3B1F37FF77
:102A700002C021583F4F220F232F221F330B620F1A
:102A80001F910F9108950F931F93522F10E0F8019B
:102A9000EE0FFF1FE553FE4FE081F0E0B097EE0F21
:102AA000FF1F9F015203D001539FB00D1124000F4F
:102AB000111FF801E653FE4F008110E00057110985
:102AC000000F111F40039001419F300D11242A0F68
:102AD0003B1F37FF02C021583F4F220F232F221FD9
:102AE000330B620F1F910F9108950F931F93522F75
:102AF00010E0F801EE0FFF1FE553FE4FE081F0E01C
:102B0000B0979F015203D001539FB00D1124000FC5
:102B1000111FF801E653FE4F008110E00057110924
:102B200040039001419F300D11242A0F3B1F37FFB6
:102B300002C021583F4F220F232F221F330B620F59
:102B40001F910F910895EF920F931F9393E0099FA8
:102B500080011124159507956E2D600F1F910F911F
:102B6000EF900895A22F50E0FA01EE0FFF1FE553FA
:102B7000FE4F9081905297FD9195440F551FFA0199
:102B8000E653FE4F3081232F30E02A1B3109290FF5
:102B9000311D97FD3A95620F0895E42FF0E0EE0F96
:102BA000FF1FE553FE4F6081621B0895E42FF0E0A4
:102BB000EE0FFF1FE653FE4F6081621B0895E42F66
:102BC000F0E0EE0FFF1FE653FE4F408134EE439FCF
:102BD000412D1124E82FF0E050E0445E5F4FDA0110
:102BE000A21BB1099D01B7FF03C0319521953109A1
:102BF00093E0220F331F9A95E1F7AF01421B530B6D
:102C00009A0157FF02C020E030E0582F259F212D68
:102C10001124822F0895E42FF0E0EE0FFF1FE653FA
:102C2000FE4F408134EE439F412D1124E72FF0E009
:102C300050E0445E5F4FDA01A21BB1099D01B7FF6E
:102C400003C031952195310993E0220F331F9A95E6
:102C5000E1F7AF01421B530B9A0157FF02C020E07E
:102C600030E0279F212D1124722F0895FC019B0134
:102C7000009721F477FF2BC080E80895AC0197FFFF
:102C800004C044275527481B590BB901640F751F11
:102C900037FD0CC0241B350BC901A5E0880F991F17
:102CA000AA95E1F70E94A93780E20CC0CB0165E04C
:102CB000880F991F6A95E1F7BA01621B730B0E9496
:102CC000A93780E6861BF7FF03C08195089580E051
:102CD0000895EF920F93CF93DF93D72FC82FC90199
:102CE0000E19BA010E943616602F681B7D2F8C2F9B
:102CF000DF91CF910F91EF9008950F93CF93DF93D2
:102D0000D72FC82FC901BA010E943616682F600F4D
:102D10007D2F8C2FDF91CF910F910895EF920F931C
:102D20001F93CF93DF93D62FC72F182FC9010E19EA
:102D3000010FBA010E943616081B202F219F212D5A
:102D40001124822F6D2F7C2FDF91CF911F910F9136
:102D5000EF900895EF920F931F93CF93DF93D62FA9
:102D6000172FC82FC9010E19070FBA010E94361676
:102D7000702F781B719F712D11246D2F8C2FDF9177
:102D8000CF911F910F91EF900895FF920F931F9392
:102D9000CF93DF93F62ED72F182FC901C12FC01B59
:102DA000BA010E943616982F990F890FC81B2C2F35
:102DB000219F212D1124822F6F2D7D2FCDB7DEB7BE
:102DC000E5E00C94DF34FF920F931F93CF93DF93D2
:102DD000F62E172FD82FC901C72FC01BBA010E948A
:102DE0003616982F990F890F7C2F781B719F712DA4
:102DF00011246F2D8D2FCDB7DEB7E5E00C94DF34B5
:102E00000E94EB1B08950E94AD1B0895E5EFF7E0CB
:102E100081E380838091260190912701A091280170
:102E200081839283A3838CE384838FEF858346E041
:102E300050E06CE170E0CF010E9476351092F4070B
:102E40000895482F982F46FD9095E92FEF739F70B6
:102E500046FD9F5FE295EF70EE0FF0E0E15AFE4F06
:102E60002181299F802D212D112482958F702295FB
:102E7000207F822B3081982F930F892F47FD8195DA
:102E800080580895BC018230910508F40895613E90
:102E90008EE1780748F49B0195E0369527959A9541
:102EA000E1F748E0420F01C04FEF91E0242F30E0FE
:102EB000290F311D35952795229FF001239FF00D95
:102EC000F00D11246E177F0718F44FEF420F04C066
:102ED0002F3F39F091E0920F491740F78FEF890F9C
:102EE00008958FEF08950F93CF93DF93D72FC82FB7
:102EF00047FD4195E8E3F0E0CF01841B910947FDD0
:102F00009395889FB001899F700D700D1124229FA9
:102F1000C001239F900D900D1124860F971F0E94D2
:102F20004217682F660F860F682F600F7D2F8C2F3A
:102F3000DF91CF910F91089520E030E0869F212D01
:102F4000969F200D311D1124C9010895A0E0B0E025
:102F5000ECEAF7E10C94C034F62E472FE82FF0E0AE
:102F6000711106C0E557FA4F8491782F682F73C00E
:102F7000272F30E0E557FA4FE491FE2F0E2F10E097
:102F800056E0659FC0011124CFEFD0E0BE010E9442
:102F9000A2345BEA5603C001579F900D11248F0D98
:102FA000911D8F0D911D982F990F980F7E01E21A98
:102FB000F30AE09ED001E19EB00DF09EB00D112409
:102FC0008B2F499FA0011124452F55277E01E41A1C
:102FD000F50AE09EA001E19E500DF09E500D1124D7
:102FE0006E01C91AD108C29E7001C39EF00CD29E18
:102FF000F00C11242F2D3327C21BD30BC09F90013F
:10300000C19F300DD09F300D1124932F6230710578
:1030100091F048F461157105E1F061307105B9F482
:103020009E2FE52F16C06430710569F040F06630C0
:10303000710579F00CC09E2FEB2F832F0AC0EB2F68
:103040008F2F952F06C09B2F8E2FE32F02C09B2F13
:10305000852F7E2F692FCDB7DEB7E8E00C94DC34E6
:10306000A0E0B0E0E6E3F8E10C94BF34C82F809113
:1030700025018C130DC02091F507237030E040919D
:10308000240150E081E02417350719F480E001C0E5
:1030900081E08170809322018091FA079091210153
:1030A000981739F08093210140E060E080E00E94B1
:1030B0000017CC3029F486ED95E10E94642B39C0CD
:1030C000CD3008F097C1C53009F447C008F06FC192
:1030D000C23009F085C080912001D82FDD0FDD0FAF
:1030E000D80FA5E0EA2EED0E20E32E1510F4F0E344
:1030F000EF2E0091F7071091F807F090F6076F2D6B
:10310000702F812F0E94A617D62EC72EB82E609141
:10311000F9076F0D702F812F0E94A617162F072F0A
:10312000F82EDE1508F48CC081E03FE23E1508F46D
:1031300085C0909120019F5F90932001811148C22A
:1031400082E08093230180912201811141C2C1114B
:103150003FC283E0809323013BC280912001D82F9E
:10316000DD0FDD0FD80F15E01D0F113308F010E350
:10317000F090F6070091F707E090F8076091F907E3
:103180006695669566958091EE079091EF070E948F
:103190009C170E942117805887FD8195880F282F42
:1031A0003E2D239F212D1124822F6F2D702F0E94E1
:1031B000A617062FF72EE82ED11790F5ED2FF0E089
:1031C000DF01A65DBD4F8C9190912101982331F0D4
:1031D0002E2D402F6F2DCF010E940317DF5FECCF04
:1031E000C33008F056C0CC2301F1C13009F058C0FB
:1031F00080912001D82FDD0FDD0FD80F15E01D0FB6
:10320000113308F010E36091F6077091F707809191
:10321000F8070E94A617062FF72EE82ED11738F1CF
:1032200081E0103308F485CF09C080912201882302
:1032300029F040E060E080E00E94001780E079CF54
:103240008D2F90E0FC01E65DFD4F30812091210142
:10325000232359F030FF04C02F2D412F602F03C0CE
:103260002B2D4D2D6C2D0E940317DF5F5ACFED2FB4
:10327000F0E0DF01A65DBD4F8C9190912101982374
:1032800031F02E2D402F6F2DCF010E940317DF5FED
:10329000C5CF80912001C33049F0C43009F44AC041
:1032A000809120018F5F809320014ACFD82FDD0FBE
:1032B000DD0FD80FE5E0FE2EFD0E80E38F1510F434
:1032C00070E3F72ED090F707C090F8072091F90728
:1032D00060E4E62E3E2D329F312D1124E32EDF15C2
:1032E00018F50D2F10E0F801E65DFD4F90818091FB
:1032F00021018923B9F0F801EE0FFF1FE553FE4FBE
:10330000808182958F706091F6078E9D600D1124EB
:103310007D2D8C2D0E94A617462F282F672FC801C0
:103320000E940317DF5FDBCF81E09FE29F1508F06B
:1033300000CF84CFD82FDD0FDD0FD80F15E01D0F84
:10334000113308F010E3D090F707C090F8072091F0
:10335000F90700E4029F012D1124D11708F060CF76
:10336000ED2EF12CF701E65DFD4F9081809121015A
:103370008923D9F0F701EE0FFF1FE653FE4F60815E
:10338000069FB001112445E0759567954A95E1F7D0
:103390008091F607680F7D2D8C2D0E94A617462F71
:1033A000282F672FC7010E940317DF5FD6CFC830D1
:1033B00051F483EE96E104C0CB30B8F485EC96E18D
:1033C0000E940E2BB6CEC93058F4C63019F48BE0EB
:1033D00096E173CEC73009F063CF8FED95E16DCEE6
:1033E000CA3051F78AEA96E102C08EE896E10E945F
:1033F000922A9FCEC23119F489E696E1F8CFC33103
:10340000E8F4CF3019F483EA95E1F1CFC03158F4F4
:10341000CD3019F48DEC95E150CECE3009F040CF8F
:1034200082EB95E14ACEC03119F483E797E1C8CF2A
:10343000C13109F035CF8DE796E1C2CFC53129F40E
:1034400085E095E10E943D2A74CEC63158F4C3311F
:1034500019F485E795E1F6CFC43109F021CF83E473
:1034600095E1F0CFC73109F040C080912201811170
:103470001EC06091F90720E1620F08F46FEF8091A0
:10348000EE079091EF070E949C1765E070E00E94A4
:10349000A234892B09F0D2CE0E94393560E370E066
:1034A0000E94A937609121010E94F52FC7CE80911B
:1034B0002001082F000F000F080FD5E0D00FD133E7
:1034C00008F0D0E310E0ED2EF12C0E151F0544F4AA
:1034D00060912101C8010E94F52F0F5F1F4FF5CFAA
:1034E00081E0D03308F425CEA9CEC73108F03CC026
:1034F0008091220181111EC06091F90720E1620FC5
:1035000008F46FEF8091EE079091EF070E949C17EF
:103510006AE070E00E94A234892B09F08FCE0E94ED
:10352000393560E370E00E94A937609121010E9463
:10353000193084CE80912001082F000F000F080F52
:10354000D5E0D00FD13308F0D0E310E0ED2EF12C10
:103550000E151F050CF0C4CF60912101C8010E9417
:1035600019300F5F1F4FF4CFCF3F09F099CE8091F4
:10357000EE079091EF07A091F007B091F10788272F
:103580009C70AA27BB272AE0B695A79597958795A3
:103590002A95D1F782309105A105B10571F08330EC
:1035A0009105A105B10569F040E00197A105B105BC
:1035B00011F060E008C064E102C044E160E080E036
:1035C00003C044E164E184E10E94001782E0C2CDBF
:1035D000CDB7DEB7E9E00C94DB340E94B31E209136
:1035E000E705211104C02091E805222321F09093E2
:1035F000E5058093E4052091E905211104C020919F
:10360000EA05222321F09093E3058093E205E091FF
:103610007707F0917807309731F00480F581E02D3D
:1036200086EE95E00995089508958091C107089563
:103630008093820770938407609383078091E407E7
:10364000843001F583E08093E9008FEF9091E800EA
:10365000815095FD06C095ED9A95F1F70000811116
:10366000F5CF8091E80085FF0DC040E050E063E0B9
:1036700070E082E897E00E94BE2B8091E8008E7790
:103680008093E8000895BC0184E00E94181B08950F
:10369000BC0183E00E94181B089522E02093E900FA
:1036A0002FEF3091E800215035FD06C035ED3A95F9
:1036B000F1F700002111F5CF2091E80025FF0BC0A4
:1036C00040E050E065E070E00E94BE2B8091E80091
:1036D0008E778093E8000895CF93DF9320911F01A8
:1036E000222339F02091800727FF03C060E223E006
:1036F00002C068E021E02093E9002FEF3091E8005C
:10370000215035FD06C035ED3A95F1F70000211145
:10371000F5CF2091E80025FF1DC0EC0180911F012D
:10372000811105C040E050E068E070E003C070E047
:1037300040E050E0CE010E94BE2B8091E8008E77E1
:103740008093E80080E2FE01A2ECB7E001900D92C8
:103750008A95E1F7DF91CF910895A4E0B0E0E3EB23
:10376000FBE10C94C3348033910588F5122F042FAC
:10377000F62EBC01660F771F660F771F6557794FCE
:1037800044E050E0CE0101960E9449358981837062
:103790004A81282F30E050E9859FC00111248F5FB6
:1037A000994FFC01E40FF11DB497F0824B81FC01AD
:1037B000E40FF11DB49700834C81840F911DFC012F
:1037C000B4971083F901E150FA4F81E08083249689
:1037D000E5E00C94DF34FF920F931F93CF93DF93B8
:1037E000182F062FF42EC0E0D0E02F2D402F612F90
:1037F000CE010E94AD1B2196C033D105B1F7CDB7E4
:10380000DEB7E5E00C94DF341F920F920FB60F92F3
:1038100011242F933F934F935F936F937F938F93D5
:103820009F93AF93BF93CF93DF93EF93FF93C09199
:10383000E900CF708091EC00D82FD17080FDD0E8E6
:103840001092E9008091F000877F8093F0007894D7
:103850000E94E82B1092E9008091F000886080932C
:10386000F000CD2BCF70C093E900FF91EF91DF9175
:10387000CF91BF91AF919F918F917F916F915F9108
:103880004F913F912F910F900FBE0F901F90189561
:10389000E8EDF0E080818E7F80831092E20010924C
:1038A000DA001092E100A0EEB0E08C9181608C9380
:1038B00080818F77808319BCA7EDB0E08C918E7FDB
:1038C0008C9380818F7E808310928507089520914C
:1038D000E4003091E50095E64091EC00842F817082
:1038E00040FF23C08091E80080FD1DC08091E40767
:1038F000882399F0853099F08091EB0085FD11C007
:103900004091E4005091E5002417350729F39150C8
:1039100011F09A01E1CF84E0089582E0089583E0F8
:10392000089581E0089580E008954091E80042FF05
:10393000DDCF08958091E60787FF11C08091E800F0
:1039400082FD05C08091E4078111F8CF11C08091FC
:10395000E8008B770BC08091E407882349F08091C1
:10396000E80080FFF8CF8091E8008E778093E80030
:103970000895982F973068F59093E900981739F0DB
:103980007091EC002091ED005091F00003C0242FC5
:10399000762F50E021FD02C09F5FECCF3091EB000D
:1039A0003E7F3093EB003091ED003D7F3093ED0092
:1039B0003091EB0031603093EB007093EC0020937A
:1039C000ED005093F0002091EE0027FDE5CF80E060
:1039D00008958F708093E90081E00895A0E0B0E041
:1039E000E4EFFCE10C94C034C8EDD0E088818F7E18
:1039F0008883E7EDF0E080818160808384E082BF8E
:103A000081E08093850788818E7F888302EE10E0B5
:103A1000F80110821092DA0081EEC82ED12CF60146
:103A2000108288818F7788838881806888838881E5
:103A30008F7D888319BC1092E4071092E5071092DD
:103A4000E3071092E20790EEE92EF12CF701808156
:103A50008B7F808388818160888342E060E080E0A2
:103A60000E94B91CF60180818E7F8083F8018081DD
:103A700081608083808188608083F70180818E7F70
:103A80008083888180618883CDB7DEB7E8E00C94BD
:103A9000DC341F920F920FB60F9211242F933F9395
:103AA0004F935F936F937F938F939F93AF93BF9346
:103AB000EF93FF938091E10082FF09C08091E200C3
:103AC00082FF05C08091E1008B7F8093E1008091AF
:103AD000DA0080FF2AC08091D80080FF26C0809144
:103AE000DA008E7F8093DA008091D90080FF18C0C1
:103AF00080E189BD82E189BD09B400FEFDCF81E08E
:103B00008093E4078091850781110FC00E94481CB3
:103B10000E94EE1C8091E20084608093E20005C068
:103B200019BC1092E407109285078091E10080FF94
:103B300017C08091E20080FF13C08091E2008E7F69
:103B40008093E2008091E20080618093E2008091A6
:103B5000D80080628093D80019BC85E08093E40788
:103B60008091E10084FF30C08091E20084FF2CC08E
:103B700080E189BD82E189BD09B400FEFDCF80915D
:103B8000D8008F7D8093D8008091E1008F7E809354
:103B9000E1008091E2008F7E8093E2008091E2005C
:103BA00081608093E2008091E507882311F084E032
:103BB00007C08091E30087FD02C081E001C083E07F
:103BC0008093E4078091E4078091E10083FF27C0A0
:103BD0008091E20083FF23C08091E100877F809382
:103BE000E10082E08093E4071092E5078091E10014
:103BF0008E7F8093E1008091E2008E7F8093E200CF
:103C00008091E20080618093E20042E060E080E029
:103C10000E94B91C8091F00088608093F000FF91B1
:103C2000EF91BF91AF919F918F917F916F915F9134
:103C30004F913F912F910F900FBE0F901F901895AD
:103C40002091EC073091ED072617370748F06115F2
:103C5000710539F42091E8002E772093E80001C027
:103C6000B901FC0120E06115710579F18091E4074B
:103C70008823F1F18530F1F18091E80083FD3CC0AB
:103C80008091E80082FD2EC08091E80080FFEBCF9C
:103C90002091F3008091F20090E0922B6115710564
:103CA00051F08830910538F421912093F100615052
:103CB00071090196F3CF21E0089709F020E0809187
:103CC000E8008E778093E800CECF2111CFCF0AC0D5
:103CD0008091E407882361F0853061F08091E800ED
:103CE00083FD0AC08091E80082FFF2CF80E0089552
:103CF00082E0089583E0089581E0089578941F920A
:103D00000F920FB60F9211248F939F93AF93BF938F
:103D100080917C0790917D07A0917E07B0917F07ED
:103D20000196A11DB11D80937C0790937D07A09300
:103D30007E07B0937F07BF91AF919F918F910F90B6
:103D40000FBE0F901F9018959C014FB7F89480916B
:103D50007C0790917D07A0917E07B0917F074FBFB0
:103D6000821B930B08952FB7F89480917C07909154
:103D70007D07A0917E07B0917F072FBF08951F9206
:103D80000F920FB60F9211248F939F93AF93BF930F
:103D900080917B07811113C080917C0790917D07F2
:103DA000A0917E07B0917F074196A11DB11D809320
:103DB0007C0790937D07A0937E07B0937F07BF9108
:103DC000AF919F918F910F900FBE0F901F901895FC
:103DD00020911F012223C9F02091800727FF15C0E1
:103DE000262F2695269526952E31C8F4FC01E20F44
:103DF000F11D677081E090E001C0880F6A95EAF7D5
:103E000080959281892382830895FC010696228100
:103E1000621301C012823196E817F907C1F70895BD
:103E20002091790730917A072817390771F090931C
:103E30007A0780937907E0917707F09178073097B8
:103E400021F00084F185E02D0995089520917507F2
:103E5000309176072817390771F090937607809391
:103E60007507E0917707F0917807309721F0068089
:103E7000F781E02D09950895E0917707F091780793
:103E8000309729F00190F081E02D0995089580E0A8
:103E900008950F931F93CF93DF93C42FD22FFC016C
:103EA00082818823B1F0409374070E94B31E9093DF
:103EB00073078093720780E28C0F883008F04DC042
:103EC000C77081E001C0880FCA95EAF70E94AA3244
:103ED00044C080917407481330C08091720790915C
:103EE00073070E94A41E883C910538F510E21D0F4F
:103EF000CD17B9F080E28C0F883040F4C77081E0B4
:103F000001C0880FCA95EAF70E94A332183010F555
:103F100081E09D2F977001C0880F9A95EAF70E9463
:103F2000AA32802F0E948E331830B8F4D77081E007
:103F300001C0880FDA95EAF70AC080E28C0F88305A
:103F400060F4C77081E001C0880FCA95EAF70E944B
:103F5000A33203C0802F0E948E33DF91CF911F9137
:103F60000F9108958F929F92AF92BF92EF92FF921E
:103F70000F931F93CF93DF93EC017B01042F80906D
:103F80006E0790906F07A0907007B09071070E9425
:103F90007C320E944B3286E0080280011124CE154B
:103FA000DF0531F0CE010E94A206C00FD11FF7CF6E
:103FB0000E947C32C501B4010E94F631DF91CF919D
:103FC0001F910F91FF90EF90BF90AF909F908F90B7
:103FD000089580916D07882329F082E20E94923231
:103FE00010926D07089580911001877F80931001D2
:103FF00080916D07811103C082E00E94961180912B
:10400000100184FF08C08F7E8093100180914707C4
:104010008260809347078091100185FF08C08F7DE3
:1040200080931001809147078062809347070E9428
:10403000A4110895A0E0B0E0E0E2F0E20C94C134F5
:10404000EC018B018091100182FF8FC0E0906B0723
:10405000F0906C07EC16FD0619F0209709F085C06A
:10406000809110018B7F8093100181FD11C08091A0
:10407000690790916A07A801481B590B81E02091BC
:104080000E0130910F014217530718F480E001C070
:1040900081E08170D82E80911001D0FA81F980934F
:1040A0001001E701DD27FE0184E0F695E7958A958A
:1040B000E1F797012F703327EE0FFF1FE75BF84FF3
:1040C00081E090E002C0880F991F2A95E2F7DD2079
:1040D00029F020813181822B932B06C08095909509
:1040E00020813181822393239183808380914707AC
:1040F00081FF08C08091100180618093100182E0EF
:104100000E949D118091470785FF08C08091100192
:1041100080628093100180E20E949D11DD2029F0D1
:1041200080914807826080934807C70190568115A7
:1041300020E2920720F0905E8115904108F47E0104
:10414000C7010E949F2780916B0790916C079C018B
:104150003056211540E2340720F0305E2115304101
:1041600008F499270E94852718C09E013327CE01A5
:104170009056811540E2940720F0905E81159041A1
:1041800010F4C90101C0CE010E94852780916B0700
:1041900090916C07C817D90711F40E94F31F109370
:1041A0006A0700936907CDB7DEB7E7E00C94DD340A
:1041B000882311F0FA0101C0FB0109950895A0E0E0
:1041C000B0E0E5EEF0E20C94C134262F30E0A90116
:1041D0004B5B584F7A01FA019081911107C0F701AA
:1041E0001082CDB7DEB7E7E00C94DD34D82EF2E1D3
:1041F0006F9FE001112400E010E0F801EC0FFD1FBB
:10420000EF5DF84F4081602F8D2D0E94E82F0F5FEA
:104210001F4F0231110589F7E2CFCF93DF93C82FEB
:104220004BE06DEF0E94E82F40E06AE08C2F0E9487
:10423000E82F8FE39CE90197F1F700C0000040E010
:1042400060E08C2F0E94E82F40E061E08C2F0E94FC
:10425000E82F40E066E08C2F0E94E82F40E06DEFF1
:104260008C2F0E94E82FD0E040E06D2F8C2F0E9411
:10427000E82FDF5FD231C1F740E06D2F8C2F0E9415
:10428000E82FDF5FD432C1F740E06D2F8C2F0E9402
:10429000E82FDF5FD43BC1F74BE06DEF8C2F0E941E
:1042A000E82F41E06AE08C2F0E94E82F40E06DEF9C
:1042B0008C2F0E94E82FDF91CF9108950F931F93C9
:1042C000CF93DF93082F000FEB0114E21093EB055F
:1042D000ECEEF5E0DE018D91819385E0EC3FF8078F
:1042E000D1F724E630E041E150E06BEE75E0802F3D
:1042F0000E947D34105F6096143B41F7DF91CF91AF
:104300001F910F9108958091BE0780FD18C081FD17
:1043100014C082FD16C08091BC07882381F08C33C5
:1043200080F427E0829FC00111246CE370E00E94BA
:10433000A937862F672B19F005C083E0089581E027
:10434000089587E008958091BE0780FD17C081FD24
:1043500017C082FD19C08091BD07882399F08C3366
:1043600098F428E3829FC00111246CE370E00E945E
:10437000A937862F672B49F481E008958EE00895D0
:104380008CE1089588E0089588E308958D3E39F41E
:104390009091E80597FF35C01092E80559C08E3E10
:1043A00029F49091E8051916BCF32BC09091E7050C
:1043B0008F3E29F497FF25C01092E70549C0803F42
:1043C00019F41916CCF31DC09091E905893F29F421
:1043D0001916BCF41092E9053BC08A3F19F497FF07
:1043E00010C0F8CF8B3F39F49091EA0597FF09C0D0
:1043F0001092EA052DC08C3F21F49091EA05191620
:10440000BCF39FE0980F983080F421E030E0A901E0
:1044100002C0440F551F9A95E2F7CA01809590910A
:10442000E60589238093E60513C08D3F21F4809132
:10443000BE078E7F0BC08E3F21F48091BE078D7F1B
:1044400005C08F3F29F48091BE078B7F8093BE0704
:104450008091E705811106C08091E805811102C0B5
:104460001092BD078091E905811106C08091EA058F
:10447000811102C01092BC0708958D3E21F40E9464
:10448000A321819504C08E3E29F40E94A32180932C
:10449000E80508958F3E21F40E94A321819504C070
:1044A000803F29F40E94A3218093E7050895893F66
:1044B00019F40E94832105C08A3F31F40E948321B0
:1044C00081958093E90508958B3F21F40E94832113
:1044D000819504C08C3F29F40E9483218093EA05D2
:1044E00008959FE0980F983078F421E030E0A9011A
:1044F00002C0440F551F9A95E2F7CA019091E60554
:10450000892B8093E60508958D3F21F48091BE07A5
:1045100081600BC08E3F21F48091BE07826005C090
:104520008F3F29F48091BE0784608093BE07089571
:10453000AFE0B0E0EEE9F2E20C94BC3485B78068FD
:1045400085BF85B7806885BF84B7877F84BF0FB676
:10455000F894A89580916000886180936000109223
:1045600060000FBE90E080E80FB6F8948093610081
:10457000909361000FBE82E19FE090935B02809375
:104580005A020E94481C0E94EE1C8091E200846046
:104590008093E20078948091E4078823A1F0109141
:1045A000E9001F709091EC00892F817090FD80E8E8
:1045B000182B1092E9008091E80083FD0E94E82BFF
:1045C0001F701093E90082E084BD93E095BD9AEFDF
:1045D00097BD80936E000E94692890E090931E0121
:1045E00080931D010E94A4290E94EA29E8E8F7E0CF
:1045F000A6E9B7E011921D9227E0E639F207D1F75C
:104600008EE090E00E94C3378093860790938707DF
:10461000FC010E961192E817F907E1F789EA8093F9
:10462000800089E08093810024982C983F988AB17B
:104630008F7C8AB96E98479A8BB180638BB9769AD2
:104640008FE090E00E946A356093FF077093000846
:10465000809301089093020867703FEF639FB00159
:1046600011247595679575956795772770938900DF
:104670006093880070938B0060938A0070938D0024
:1046800060938C000E94E02880E090E00E947035EA
:10469000883E9E4F11F00E940A1182E090E00E9435
:1046A00062358093A40784E090E00E946235182F61
:1046B00082E290E00E946235212F30E0382B309367
:1046C00081072093800783E090E00E946235682F85
:1046D00070E080E090E00E94513260916E0770912E
:1046E0006F0780917007909171070E94B9270E940F
:1046F00061300E9454300E9454308091F4078160F0
:104700008093F40781E191E0909378078093770795
:1047100098E1C92ED12C24EAE22E27E0F22EBB2408
:10472000B3949924939480E4A82E8091E407853073
:1047300009F069C003E010E18091E407853009F0D9
:104740005CC08091E407843009F436C00E947F3059
:104750008091030881110DC00E943018109225012C
:104760008091F5078370809324010E94C92E0093E5
:1047700023019092030810927B070FB6F894A89536
:10478000C09260000FBEA092600083B7817F8460FA
:1047900083BF83B7816083BF7894889583B78E7F0A
:1047A00083BF0FB6F894A8958091600088618093CC
:1047B0006000109260000FBE8091E307882309F427
:1047C000BBCF0E94692890E090931E0180931D0149
:1047D0000E94A4290E94EA29E6E9F7E01192EE1668
:1047E000FF06E1F70E942C14E6E9F7E081918111C0
:1047F00081C1EE16FF06D1F79FCF0E947C320E9446
:104800003C1F109203080E942C14882359F08FB784
:10481000F89440917C0750917D0760917E077091DC
:104820007F078FBFE5EAF7E0A6E9B7E000E010E018
:10483000302F2D919191922721F180E0882483944B
:10484000492F4821D1F089833A83282181E009F456
:1048500080E08B830E94B31E8160782F9D838C83C0
:1048600049815A816B818D810E94C725F801EB55E2
:10487000F84F80818826808219C08F5F880C86302F
:10488000F9F60F5F1F4F0E30110591F68FEF8E83F3
:104890008F8318860E94B31E8160782F9A8789873C
:1048A0004E815F8168858A850E94C72580911001AD
:1048B00082FF19C00E94B31E2091690730916A07D8
:1048C000AC01421B530B20910E0130910F01421796
:1048D000530748F043EB57E0BC0180916B07909180
:1048E0006C070E941A2080916D07882369F00E944E
:1048F000B31E2091B9073091BA07821B930B8F3FEB
:104900009F4710F40E94E91F0E947F3085E0E6EE89
:10491000F5E0DE011B9601900D928A95E1F7109269
:10492000E7051092E8051092E9051092EA051C854A
:10493000111104C08D85882309F450C08091E405CD
:104940009091E5050E94A41E9C019091BD079923BA
:1049500009F4E7C02531310508F440C09F3F19F044
:104960009F5F9093BD07112361F00E94A321111650
:1049700014F09FEF01C091E0899F802D1124809356
:10498000E7051D85112361F00E94A321111614F083
:104990009FEF01C091E0899F802D11248093E8054D
:1049A0003091E7053323D1F02091E8052223B1F0BF
:1049B00045EB3403C0011124992319F09093E705C6
:1049C00002C0B092E70535EB2303C00111249923FF
:1049D00019F09093E80502C0B092E8051E85111108
:1049E00004C08F85882309F450C08091E20590911E
:1049F000E3050E94A41E9C019091BC07992309F431
:104A000094C02531310508F440C09F3F19F09F5FE5
:104A10009093BC07112361F00E948321111614F0BA
:104A20009FEF01C091E0899F802D11248093E905BB
:104A30001F85112361F00E948321111614F09FEF4E
:104A400001C091E0899F802D11248093EA05309167
:104A5000E9053323D1F02091EA052223B1F045EB9B
:104A60003403C0011124992319F09093E90502C081
:104A7000B092E90535EB2303C0011124992319F005
:104A80009093EA0502C0B092EA0545E050E0BE010D
:104A9000655F7F4F86EE95E00E94E438892BA9F48C
:104AA0008091E70581110FC08091E80581110BC04D
:104AB0008091E905811107C081E09091EA0591118B
:104AC00003C080E001C081E080FD0E94ED1A85E016
:104AD000FE013B96A6EEB5E001900D928A95E1F7B6
:104AE0000E943C1F9091BB07891709F41ECE80934A
:104AF000BB0719CE19BD82E189BD09B400FEFDCF07
:104B00008091D8008F7D8093D8008091E0008260F2
:104B10008093E0008091E00081FDFCCF0E947C3218
:104B20000BCE232B09F01CCF59CF2139314008F08F
:104B30006ECFABCF9C013A9521153F4130F5BC01BA
:104B400066277270AC01442754709C01222738708C
:104B500094FF0FC090FF02C080E101C080E0672B8E
:104B600009F08062452B09F08064232B79F080687E
:104B70000895892F8170672B09F08260452B09F019
:104B80008460232B19F08860089580E00895A7E1E0
:104B9000B0E0EDECF5E20C94C5344B8B5C8B6D8B87
:104BA0007E8B8F8B61111092480786E09E01235FF8
:104BB0003F4FD901E82F1D92EA95E9F795E0FE01F4
:104BC0007396D90101900D929A95E1F79C894E89CF
:104BD0005F897B897D879E876F87598B488BF90119
:104BE000DE01179601900D928A95E1F7CE010796A6
:104BF0000E94A51281113EC086E0FE013796DE01BB
:104C0000119601900D928A95E1F7FF81E8856A85FA
:104C10007B856115710531F0EF3F31F481E0FF3F95
:104C200019F403C081E001C080E080FD23C0209121
:104C3000830530E0C9010196877099274091B4053A
:104C400050E08417950779F1F983EA837D836C83BB
:104C500096E0929FD001939FB00D1124AC57BA4FAC
:104C6000FE01319601900D929A95E1F780938305AC
:104C70000E94321216E08091B40590918305891745
:104C8000F9F0189FC00111248C579A4F0E94A51269
:104C90008823B1F08091B40590E001968770992740
:104CA0008093B405E8CF0E947C3210928305109265
:104CB000B405EDE7F5E086E0DF011D928A95E9F79E
:104CC0006796E3E00C94E134CF92DF92EF92FF928B
:104CD0006C01EE24FF24C114D104E104F10421F09D
:104CE000C701B60120E101C020E0C72ED82EE92E71
:104CF000FF24C114D104E104F10419F0285FC701B5
:104D0000B6016B017C0154E0F694E794D794C79404
:104D10005A95D1F7C114D104E104F10419F02C5FC4
:104D2000C701B6016B017C0142E0F694E794D79489
:104D3000C7944A95D1F7C114D104E104F10419F0E4
:104D40002E5FC701B601DC01CB01B695A7959795FB
:104D50008795892B8A2B8B2B09F02F5F822FFF9051
:104D6000EF90DF90CF900895A0E0B0E0EAEBF6E29C
:104D70000C94C134E82FF0E0E552F54FD490282F81
:104D800026952695269530E0F901E553F54F0491D7
:104D9000877010E0082E02C0159507950A94E2F777
:104DA00001701127F901E554F54FE490F12C082E1C
:104DB00002C0F594E7940A94E2F791E0E922FF2417
:104DC000F901E555F54FC491D0E002C0D595C795DE
:104DD0008A95E2F7C170DD270115110519F081EE02
:104DE0000E94E932E114F10419F086EE0E94E932E2
:104DF0008D2D0E948E33E114F10419F086EE0E948D
:104E0000B4320115110519F081EE0E94B432CD2B98
:104E100019F08CE20E948E33CDB7DEB7E7E00C9438
:104E2000DD34FF920F931F93CF93DF938C018AE0C1
:104E3000F82EF8018491882309F44CC0813009F0E0
:104E400042C0E8012196FE018491813031F421961F
:104E5000FE0184910E948E3339C0823039F4E8011A
:104E60002296FE0184910E94E93230C0833039F4E9
:104E7000E8012296FE0184910E94B43227C084305A
:104E800029F5E8012296FE01249180E090E030E0CF
:104E9000205331092A30310560F4F89EA001F99EB3
:104EA000500D1124C901840F951F2196FE012491F4
:104EB000EECF009759F0EFE9FFE03197F1F700C02E
:104EC00000000197F6CF0E94B426E8018E010F5F23
:104ED0001F4FAFCFCDB7DEB7E5E00C94DF340E94B3
:104EE0007C322FEF84E39CE0215080409040E1F73A
:104EF00000C000009AE088E10FB6F894A89580936E
:104F000060000FBE90936000FFCFCF93DF93EC0162
:104F10000E94B432CE01805E9109089710F020976C
:104F200031F4CE010E949A250E94A33205C0CE0121
:104F30000E949A250E949232DF91CF910895CF93DB
:104F4000DF93EC01805E9109089710F0209731F40F
:104F5000CE010E949A250E94AA3205C0CE010E946D
:104F60009A250E9499328C2F0E94E932DF91CF91CD
:104F70000895CF92DF92EF92FF926B017C010E9425
:104F8000642656985E9825982D9826982E982798EE
:104F90002F9890E0FC013197E730F105A8F4E4592F
:104FA000FF4F0C94BD37259A2D9A0EC0259A2D9A45
:104FB000269A2E9A09C0259A2D9A04C0259A2D9AD0
:104FC000269A2E9A279A2F9AC701B601FF90EF9042
:104FD000DF90CF900895A0E0B0E0E1EFF7E20C940D
:104FE000B73420E9289F7001299FF00C1124C0E0FC
:104FF000D0E000E010E067018FEFC81AD80A57012F
:1050000082E0A80EB11CF701EC0FFD1FE55BF84F25
:105010006491F601EC0FFD1FE55BF84F7491F5010B
:10502000EC0FFD1FE55BF84F8491611107C0711112
:1050300005C0811103C020E040E03CC00E94A617DB
:10504000962E372E882E6091F80770E080E090E071
:105050000E94AE3620E030E04FE753E40E940D3668
:105060002B013C01682D70E080E090E00E94B0369A
:10507000A30192010E943C370E947F36862E692D43
:1050800070E080E090E00E94B036A30192010E949F
:105090003C370E947F36962E632D70E080E090E0D2
:1050A0000E94B036A30192010E943C370E947F36D5
:1050B000282D492DC8010E9403170F5F1F4F23960B
:1050C000C039D10509F09FCFCDB7DEB7E1E10C942F
:1050D000D33480E290E090931E0180931D01809173
:1050E000BF0781110EC00E94AD3381E08093BF07DE
:1050F0002FEF83ED90E3215080409040E1F700C016
:10510000000064E670E080E40E94B33390931E01D7
:1051100080931D01892B09F04EC064E670E080E0A9
:105120000E94283490931E0180931D01892B09F061
:1051300042C064E670E080E00E94283490931E0133
:1051400080931D01892BB9F564E670E08FE30E941E
:10515000283490931E0180931D01892B61F50E94D4
:105160009E3464E670E080E40E94B33390931E01A5
:1051700080931D01892BF9F464E670E08CE00E94B5
:10518000283490931E0180931D01892BA1F464E6BD
:1051900070E080E00E94283490931E0180931D01EE
:1051A000892B49F464E670E08FE30E9428349093E1
:1051B0001E0180931D010E949E3480911D0108955F
:1051C000CF93DF9356985E9825982D9826982E9821
:1051D00027982F98C8E8D0E08FEF90E099838883D4
:1051E000AAE8B0E011969C938E93ECE8F0E09183EE
:1051F0008083259A2D9A2FEF80E792E021508040FE
:105200009040E1F700C00000269A2E9A2FEF80E729
:1052100092E0215080409040E1F700C00000279AC2
:105220002F9A2FEF80E792E0215080409040E1F7E5
:1052300000C0000025982D982FEF80E792E02150C4
:1052400080409040E1F700C0000026982E982FEF94
:1052500080E792E0215080409040E1F700C00000DC
:1052600027982F988091FF0787702FEF829FC001AA
:105270001124959587959595879599279983888386
:1052800011969C938E939183808356985E9825986F
:105290002D9826982E9827982F98DF91CF910895D2
:1052A000CF93E82F873080F580911D0190911E01EA
:1052B000892B09F047C0CE2F64E670E080E40E949D
:1052C000B33390931E0180931D01892BD1F464E6C2
:1052D00070E082E10E94283490931E0180931D01AA
:1052E000892B79F481E090E001C0880FCA95EAF734
:1052F00064E670E080950E94283490931E018093AC
:105300001D010E949E341EC090E0FC013797E730DB
:10531000F105C0F4ED58FF4F0C94BD37209A289842
:1053200011C0219A29980EC0229A2A980BC0239A5C
:105330002B9808C0529A5A9805C0539A5B9802C09D
:105340003E9A4698CF9108952098289821982998B8
:1053500022982A9823982B9852985A9853985B9899
:105360003E9846980895CF93873040F580911D016F
:1053700090911E01892B59F564E670E081E40E944A
:10538000B33390931E0180931D01892B11F0C0E06F
:1053900011C084E690E00E94583497FF05C09093B6
:1053A0001E0180931D01F3CFC82FC09510921E01DE
:1053B00010921D010E949E348C2F0AC09FB18FB1A4
:1053C000807F869586959370892B809501C080E0BB
:1053D000CF9108958098889A8198899A84988C9A18
:1053E00085988D9A86988E9A87988F9A089581E0ED
:1053F0008093E1050E94B31E259A2D9A08959091FD
:10540000F5079370A1F0811102C0946007C0883144
:1054100010F09C6503C0880F880F982B9093F507B8
:10542000109223018091F40781608093F40708951E
:10543000F9012281A091F207B091F307211103C075
:10544000A817B907C9F086E04802A0011124CD01D0
:10545000841B950B6817790779F086E001900D920F
:105460008A95E1F78091F2079091F307480F591F51
:105470005093F3074093F2070895A0E0B0E0E3E40F
:10548000FAE20C94BD346C0180912001C82FCC0F3E
:10549000CC0FC80F15E01C0F113308F010E360911A
:1054A000F907669566958091EE079091EF070E9447
:1054B0009C17D82F80E48D0F0E94211790E8F92EB9
:1054C000F80E8D2F0E94211720E8922E980EC117FA
:1054D00000F5AC2EB12CF501E65DFD4F9081809179
:1054E00021018923A1F06091F6077091F70780915F
:1054F000F807ED2E0C2F292D4F2DF60109950E944E
:10550000A617462F282F672FC5010E940317CF5FCC
:10551000DECF81E0103308F080E0CDB7DEB7EBE0FE
:105520000C94D9346F927F928F929F92AF92BF92D8
:10553000CF92DF92EF920F931F93CF93DF933C01B3
:1055400080912001C82FCC0FCC0FC80FD5E0DC0F05
:10555000D13308F0D0E36091F90766958091EE07AA
:105560009091EF070E949C17182FCD1708F044C0A8
:105570008C2E912CF401E65DFD4F908180912101EC
:105580008923C1F1F401EE0FFF1FE653FE4FC080E7
:10559000D12C80E7C81AD108F401EE0FFF1FE553A4
:1055A000FE4FA080B12CE0E2AE1AB108CC9C900175
:1055B000CD9C300D300D1124AA9CC001AB9C900DE8
:1055C000900D1124820F931F0E944217082F6091A3
:1055D000F6077091F7078091F807E12E9501A60173
:1055E000F30109950E94A617462F282F672FC401A3
:1055F0000E940317CF5FB9CF81E0D03308F080E07D
:10560000DF91CF911F910F91EF90DF90CF90BF90DE
:10561000AF909F908F907F906F900895A0E0B0E042
:10562000E4E1FBE20C94C0346C0180912001C82FAE
:10563000CC0FCC0FC80FD5E0DC0FD13308F0D0E38E
:105640006091F90766958091EE079091EF070E94AF
:105650009C17182FCD1778F5EC2EF12CF701E65D8D
:10566000FD4F908180912101892319F1F701EE0FFF
:10567000FF1FE553FE4F208130E020523109F70132
:10568000EE0FFF1FE653FE4F408150E04057510997
:105690006091F6077091F7078091F807012FF601E6
:1056A00009950E94A617462F282F672FC7010E9431
:1056B0000317CF5FCFCF81E0D03308F080E0CDB7C4
:1056C000DEB7E8E00C94DC34A0E0B0E0EAE6FBE210
:1056D0000C94C1348C0180912001C82FCC0FCC0FC9
:1056E000C80FD5E0DC0FD13308F0D0E36091F907A3
:1056F0006695669521E0620F08F46FEF8091EE07E2
:105700009091EF070E949C17D82ECD17F0F4EC2E45
:10571000F12CF701E65DFD4F9081809121018923F5
:1057200091F06091F6077091F7078091F8072D2DA1
:105730004C2FF80109950E94A617462F282F672F96
:10574000C7010E940317CF5FE0CF81E0D03308F09C
:1057500080E0CDB7DEB7E7E00C94DD349091F5073B
:10576000937059F08093F6076093F7074093F8071A
:105770008091F40781608093F4070895EF92FF927F
:105780000F931F93CF93DF937C018B010E94671CC3
:10579000811119C0E70101151105A1F08091E80000
:1057A00085FD0AC08091E8008E778093E8000E9412
:1057B000671C882381F307C089918093F100015011
:1057C0001109E9CF80E0CDB7DEB7E6E00C94DE3416
:1057D000AAE2B0E0EEEEFBE20C94C534E6EEF7E0B0
:1057E0008EEE97E02091F10021938E179F07D1F75D
:1057F0008091E707833009F463C030F4813071F0A1
:10580000823009F49DC0B4C08A3009F489C08B305D
:1058100009F46EC0893009F0ABC020C08091E60762
:10582000813A09F0A5C08091E800877F8093E80065
:105830008091EA079091EB07892B21F460E282ECDA
:1058400097E003C060E080E090E070E00E94201EDE
:105850008091E8008B778093E8008AC08091E6070A
:10586000813209F085C08091EA079091EB0700979B
:1058700019F0029709F07CC08091E800877F80933F
:10588000E8008091E80082FD05C08091E407811165
:10589000F8CF6EC02091F3008091F20090E0922B3F
:1058A000029731F48091F100813011F0863021F4BB
:1058B0008091F1008093C1078091E8008B7754C0FC
:1058C0008091E607813A09F053C08091EA079091F0
:1058D000EB07892B09F04CC08091E800877F80930B
:1058E000E8008091E80080FFFCCF80911F0137C065
:1058F0008091E6078132E1F58091EA079091EB070C
:10590000892BB1F58091E800877F8093E8000E94A1
:105910009A1C8091E80780931F010E947C3228C066
:105920008091E607813221F58091E800877F80939E
:10593000E8000E949A1C8091E9078093C00718C074
:105940008091E607813AA1F48091E800877F8093F7
:10595000E8008091E80080FFFCCF8091C007809331
:10596000F1008091E8008E778093E8000E949A1CF5
:105970008091E80083FFD9C18091E6079091E70705
:10598000492F50E04A30510508F0CFC1FA01E658DE
:10599000FF4F0C94BD37803821F0823809F0C5C123
:1059A00008C08091E2079091E307992389F0826013
:1059B0000FC08091EA078F70873008F0B6C18093DE
:1059C000E9008091EB0085FB882780F91092E900BF
:1059D0009091E800977F9093E8008093F1001092F7
:1059E000F1006FC1282F2D7F09F09FC1882319F086
:1059F000823061F09AC18091E807813009F095C149
:105A0000933009F080E08093E3072EC08091E8078F
:105A100081112AC08091EA078F702FEF280F26305E
:105A200008F083C18093E9002091EB0020FF1CC0A7
:105A3000933021F48091EB00806214C09091EB00D0
:105A400090619093EB0021E030E0A90102C0440F87
:105A5000551F8A95E2F74093EA001092EA00809180
:105A6000EB0088608093EB001092E9008091E800E1
:105A7000877F8093E8000E949A1C57C1811155C10D
:105A80001091E8071F778091E3008078812B809345
:105A9000E3008091E800877F8093E8000E949A1CD1
:105AA0008091E80080FFFCCF8091E30080688093C4
:105AB000E300111102C082E001C083E08093E4079B
:105AC00034C18058823008F030C12091E80730910D
:105AD000E9072C3D53E0350779F583E08A838AE2B4
:105AE00089834FB7F894DE01139620E03EE051E23F
:105AF000E32FF0E050935700E49120FF03C0E295BC
:105B0000EF703F5FEF708E2F90E0EA3010F0C79695
:105B100001C0C0968D939D932F5F243149F74FBFED
:105B20008091E800877F8093E8006AE270E0CE0110
:105B300001960E94201EB4C08091EA079091EB0765
:105B4000432F552743305105A9F068F441305105E2
:105B500009F4FAC04230510509F0E7C084E590E04D
:105B6000EFE4FCE04BC04132510529F142325105CE
:105B700089F1DBC0C901992781309105A1F058F066
:105B8000029709F0D2C0E5EBFCE0E4918E2F90E0A3
:105B9000E5EBFCE030C0E1E0FDE0E4918E2F90E029
:105BA000E1E0FDE028C0E7EDFCE0E4918E2F90E01D
:105BB000E7EDFCE020C08330910508F0B6C0880F07
:105BC000991FFC01E059FE4F0190F081E02D89E022
:105BD00090E014C08330910508F0A7C0FC01EE0FDF
:105BE000FF1FE659FE4F0190F081E02DDC01A9591D
:105BF000BE4F8C9190E0009709F497C02091E80087
:105C0000277F2093E8002091EC073091ED072817BB
:105C1000390708F4C90140E0009789F12091E407B1
:105C2000222309F43DC02530D9F12091E80023FD5D
:105C300037C02091E80022FD2FC02091E80020FF0E
:105C4000EBCF4091F3002091F20030E0342B00972D
:105C500059F02830310540F444914093F1003196D9
:105C600001972F5F3F4FF3CF41E02830310509F016
:105C700040E02091E8002E772093E800CDCF41113D
:105C8000CDCF0AC08091E407882351F0853041F0E0
:105C90008091E80083FD04C08091E80082FFF2CF8C
:105CA0008091E8008B778093E8003FC08038E9F569
:105CB0008091E800877F8093E8008091E5078093DA
:105CC000F1008091E8008E77D4CE81112EC08091B2
:105CD000E8079091E907992702973CF58091E80041
:105CE000877F8093E8001091E8071093E5070E94F2
:105CF0009A1C111106C08091E30087FD02C081E06B
:105D000001C084E08093E40742E061EC81E00E94FE
:105D1000B91C42E061EC82E00E94B91C42E261ECF5
:105D200083E00E94B91C8091E4078091E80083FF22
:105D300010C08091E800877F8093E8008091EB009D
:105D400080628093EB0005C082E190E0E3EAFCE032
:105D500055CFAA96E3E00C94E134E5EFF7E0248117
:105D600030E1231B08F420E024838091F407816054
:105D70008093F4070895E5EFF7E0248130E1230FE5
:105D800008F42FEF24838091F40781608093F40757
:105D900008958091FF05882329F061E076E084E78B
:105DA0000E945E211092FF0580910006882329F051
:105DB00061E976E087E70E945E211092000608956F
:105DC000A4E0B0E0E6EEFEE20C94BA340E94AD33FB
:105DD00084E70E940D2187E70E940D210BE816E061
:105DE00072E1772EE8E0CE2ED12CEE24E394F12C54
:105DF0006624639444E050E0B801CE0101960E940D
:105E000049352A8130E0C9018497AB80B12C44E246
:105E1000A41AB108EC81F0E0B497AC0197FF02C07E
:105E2000495F5F4F63E0559547956A95E1F7298192
:105E3000237030E0729EB001739E700D11246F5D6F
:105E4000784F4B01840E911CB6010E94A937D701EF
:105E500002C0AA0FBB1F8A95E2F7CD01D4019C9125
:105E6000892B8C93C501B7FC079653E095958795D0
:105E70005A95E1F7729EA001739E500D11244F5D5B
:105E8000584F4A01880E911CC501B6010E94A937DE
:105E9000A70102C0440F551F8A95E2F7CA01D40139
:105EA0009C91892B8C93CF01F7FD079643E0959544
:105EB00087954A95E1F7729EA001739E500D1124BB
:105EC0004F5D584F5A01A80EB11CCF01B6010E9478
:105ED000A937F70102C0EE0FFF1F8A95E2F7CF0145
:105EE000D5019C91892B8C93F901EB5BF84F608273
:105EF0000C5F1F4FB7E00B341B0709F07BCF60E04E
:105F000084E70E94DF2061E087E70E94DF2024967B
:105F1000EEE00C94D634E5EFF7E0438120E1421B3C
:105F200008F440E08181628190E00E94AE2B0895E8
:105F3000E5EFF7E0438120E1420F08F44FEF818164
:105F4000628190E00E94AE2B0895E5EFF7E0628158
:105F500020E1621B08F460E08181438190E00E94AF
:105F6000AE2B0895E5EFF7E0628120E1620F08F4BF
:105F70006FEF8181438190E00E94AE2B0895E5EFA1
:105F8000F7E0818190E04381628108970E94AE2B07
:105F90000895E5EFF7E0818190E043816281089602
:105FA0000E94AE2B08958091F507869586958150C5
:105FB00009F487E10E94FF2908958091F5078695ED
:105FC00086958F5F883108F081E00E94FF2908954F
:105FD000EBEEF5E06083418324E630E042E050E000
:105FE000BF01880F0E947D3408951F93CF93DF93E4
:105FF000FC01E65DFD4F20816223B9F0EC010E94B7
:106000003935182F0E9439358F77782F20E8720F95
:1060100008F47FEF612F8091F8070E94A617462FA2
:10602000282F672FCE010E940317DF91CF911F9178
:106030000895A0E0B0E0EFE1F0E30C94C134EC018E
:10604000FC01E65DFD4F9081692349F1D090F7078F
:106050000091F8071091F607E12EF12C0E943935D6
:10606000282FC7018C549F4F68E671E00E94A93722
:106070008E199F0997FD0396959587959595879518
:106080002370612F289F600D11247D2D802F0E9489
:10609000A617462F282F672FCE010E940317CDB7D2
:1060A000DEB7E7E00C94DD348091F507837011F4DE
:1060B000109223018091F5078C7F81608093F50712
:1060C00008950E94E02E80E090E00E947035883EA6
:1060D0009E4F21F00E940A110E94061746E050E0F0
:1060E0006CE170E085EF97E00E9452351092F40762
:1060F0008091F5078C7F11F40E9406170895CF93C5
:106100008FB7F89440917C0750917D0760917E078E
:1061100070917F078FBF4093FB075093FC076093FC
:10612000FD077093FE0780910308811108C0C0919C
:10613000F5078C2F837019F0C695C69501C0C0E095
:10614000809123018130A1F038F0823009F444C0FD
:10615000833009F44EC078C0109220014093EE07BE
:106160005093EF076093F0077093F10781E03EC012
:106170008C2F0E943018CC2309F466C08091FF0751
:1061800083FD62C060916E0770916F078091700708
:10619000909171070E946426833069F028F4813061
:1061A00091F481E090E009C0843051F0853059F4D9
:1061B00085E090E002C083E090E00E94EB2744C0BD
:1061C00084E090E0FACF8091FA0781113DC040E071
:1061D00060E00E94001738C0C09325018091F50748
:1061E0008370809324010E94C92E83E08093230151
:1061F0002BC08091F407882351F046E050E06CE119
:1062000070E085EF97E00E9476351092F407409198
:10621000EE075091EF076091F0077091F1072FB7EB
:10622000F89480917C0790917D07A0917E07B091B2
:106230007F072FBF841B950BA60BB70B4A97A105B1
:10624000B10510F010922301CF91089580E090E005
:106250000E94261F80E090E00E94101F10924807C5
:106260000E94A411E6EEF5E085E0DF011D928A951B
:10627000E9F71092BD071092BC071092BE070E946A
:10628000ED1A0895A0E0B0E0E8E4F1E30C94BF3427
:106290008C01C0906E07D0906F07E0907007F0906F
:1062A00071078091D7059091D805A091D905B0913B
:1062B000DA05C82AD92AEA2AFB2ACFE1D0E0D70199
:1062C000C6010C2E04C0B695A795979587950A949C
:1062D000D2F780FD04C0219790F7B12C09C0BC2EE5
:1062E000B8018C2F0E94570F0E94700F019799F3ED
:1062F0008B2DCDB7DEB7E9E00C94DB34CF93DF9381
:10630000EC010E944231BE010E94570F0E94700FA3
:10631000DF91CF910895292F9E3080F5863070F55A
:1063200090E036E0239F800D911D1124682F677047
:1063300023E0969587952A95E1F725E0289FF001BF
:10634000299FF00D1124EC5FF74F40E050E080E012
:10635000219130E0062E02C0369527950A94E2F787
:1063600021703327042E01C0220F0A94EAF7822BF2
:106370004F5F5F4F4530510559F7089580E008950C
:10638000292F9E3090F5863080F590E036E0239FEF
:10639000800D911D1124282F277051E001C0550F49
:1063A0002A95EAF723E0969587952A95E1F725E067
:1063B000289FF001299FF00D1124EC5FF74F20E09A
:1063C00030E070E04081CB01022E02C096958795A7
:1063D0000A94E2F78170819584278523842781932D
:1063E0002F5F3F4F2530310569F708950E94B92787
:1063F00060936E0770936F07809370079093710797
:106400000E94263108950F931F9341E050E060E011
:1064100070E004C0440F551F661F771F8A95D2F79E
:10642000409550956095709580916E0790916F079B
:10643000A0917007B09171078A019B01082319236D
:106440002A233B23C901B8010E94F6311F910F9105
:1064500008950F931F9341E050E060E070E004C0A6
:10646000440F551F661F771F8A95D2F780916E07DC
:1064700090916F07A0917007B09171078A019B01FD
:10648000082B192B2A2B3B2BC901B8010E94F6318E
:106490001F910F91089560E070E0CB010E94F631EA
:1064A00008956093D7057093D8058093D90590938C
:1064B000DA050E9426310895FC01808191810E94B5
:1064C0007E3192959F70963079F010F4925001C011
:1064D0009A50923068F4803F69F018F4883E40F496
:1064E00009C0843F29F406C0883E20F0813F11F0A6
:1064F00080E0089581E008951092470780911F0180
:10650000882331F08091800787FF02C08EE101C0AF
:1065100086E0EFE5F5E0DF011D928A95E9F70E943C
:1065200026310895882321F00E9496110E94A4111B
:106530000895882339F090914807892B8093480764
:106540000E94A4110895882321F00E949D110E94A9
:10655000A4110895882339F090914707892B8093DF
:1065600047070E94A4110895882391F19CEF980F8A
:10657000913A30F4682F8DE595E00E94E81E0DC039
:1065800090E2980F983060F4877091E001C0990F05
:106590008A95EAF7892F0E949D110E94A4110895FF
:1065A0009BE5980F933028F480E090E00E94261F2E
:1065B000089598E5980F973128F480E090E00E94C4
:1065C000101F08958D3E20F00E94C6210E94ED1AF2
:1065D0000895CF93882309F49FC0C82F8CEF8C0FA8
:1065E000813A08F05BC080911F018823E1F080911F
:1065F000800787FF18C0EC2FE695E695E695F0E05A
:10660000E35AFA4F8281282F30E04C2F477081E007
:1066100090E002C0880F991F4A95E2F782239323E6
:10662000892B59F411C0EFE5F5E08191C81729F0E5
:1066300085E0E536F807C9F707C06C2F8DE595E0D2
:106640000E94E81E0E94A41180911F018823B1F0CE
:106650008091800787FF12C0EC2FE695E695E695BE
:10666000F0E0E35AFA4FC77081E090E001C0880F74
:10667000CA95EAF79281892B828320C0AFE5B5E005
:10668000EFEF80E09D91C917C9F0EF3F19F4911128
:1066900001C0E82F8F5F8630A9F735C080E28C0FEC
:1066A000883078F4C77081E090E001C0880FCA9507
:1066B000EAF790914707892B809347070E94A4111E
:1066C0002BC0EBE5EC0FE33040F4F0E0E25DFE4F71
:1066D000808190E00E94261F1FC0E8E5EC0FE731A3
:1066E00050F4F0E0EE0FFF1FEF5CFE4F80819181D0
:1066F0000E94101F11C0CD3E78F08C2F0E943D22C9
:106700000E94ED1A09C0EF3FC9F20E2E000CFF0BDC
:10671000E35AFA4FC283D2CFCF9108951F93CF93FC
:10672000DF93182F893319F0C0E0D0E002C0C0E534
:10673000D0E0812F0E94E932209741F08FE99FE05D
:106740000197F1F700C000002197F6CF812F0E943A
:10675000B432DF91CF911F9108951092B9008CE06F
:106760008093B8000895A0E0B0E0E9EBF3E30C9467
:10677000BD34B82EEB010E94B31E6C01C431D105AB
:1067800058F0CF3F8FEFD80759F0CE0164E170E0A9
:106790000E94A2347B0107C0EE24E394F12C03C0D5
:1067A00025E0E22EF12C84E8A82E94EA992E10928E
:1067B000BC009092BC000E94B31E8C018091BC0072
:1067C00087FD08C00E94B31E801B910B8E159F058C
:1067D000A8F32AC08091B900887F883041F0809169
:1067E000B900887F803119F00FEF1FEF1FC0B09202
:1067F000BB00A092BC000E94B31E8C018091BC0023
:1068000087FD08C00E94B31E801B910B8E159F054B
:10681000A8F30AC08091B900887F883111F08034D4
:1068200019F700E010E00EC00EEF1FEFCF3F8FEF23
:10683000D80709F4BCCFC6010E94A41E8C179D077F
:1068400008F4B5CFC801CDB7DEB7EBE00C94D9346E
:106850000F931F93CF93DF93EB018093BB0084E8EA
:106860008093BC000E94B31E8C018091BC0087FD08
:106870000EC0CF3F8FEFD807C1F30E94B31E801B1D
:10688000910B8C179D0788F38EEF9FEF0CC0209122
:10689000B900287F81E090E0283211F480E090E098
:1068A000919581959109DF91CF911F910F91089555
:1068B0000F931F93CF93DF93EC0184E88093BC0088
:1068C0000E94B31E8C018091BC0087FD0EC0CF3F9B
:1068D0008FEFD807C1F30E94B31E801B910B8C175A
:1068E0009D0788F38EEF9FEF03C08091BB0090E07F
:1068F000DF91CF911F910F910895A0E0B0E0E3E800
:10690000F4E30C94C0346B018A017901B9010E944F
:10691000B333E6010C0D1D1DC017D10741F424E966
:106920002093BC00CDB7DEB7E8E00C94DC3497FDD3
:10693000F6CFB70189910E942834EECF84E9809385
:10694000BC000895AA1BBB1B51E107C0AA1FBB1FB7
:10695000A617B70710F0A61BB70B881F991F5A95EB
:10696000A9F780959095BC01CD0108952F923F9293
:106970004F925F926F927F928F929F92AF92BF924F
:10698000CF92DF92EF92FF920F931F93CF93DF93FB
:10699000CDB7DEB7CA1BDB0B0FB6F894DEBF0FBE58
:1069A000CDBF09942A88398848885F846E847D84A5
:1069B0008C849B84AA84B984C884DF80EE80FD80A7
:1069C0000C811B81AA81B981CE0FD11D0FB6F8941D
:1069D000DEBF0FBECDBFED0108958F929F92AF92A3
:1069E000BF92CF92DF92EF92FF92CF93DF93EC01B1
:1069F000688179818A819B81611571058105910585
:106A000021F464E279ED8BE597E02DE133EF41E08D
:106A100050E00E94AA3549015A019B01AC01A7EA46
:106A2000B1E40E94C9356B017C01ACEEB4EFA50165
:106A300094010E94D735DC01CB018C0D9D1DAE1D4C
:106A4000BF1DB7FF03C00197A109B0488883998390
:106A5000AA83BB839F77DF91CF91FF90EF90DF9068
:106A6000CF90BF90AF909F908F9008950E94ED348B
:106A7000089580E091E00E94ED340895A0E0B0E038
:106A80008093000190930101A0930201B093030150
:106A90000895FB01DC0102C005900D924150504069
:106AA000D8F70895DC01CB01FC01F999FECF06C0AF
:106AB000F2BDE1BDF89A319600B40D9241505040BC
:106AC000B8F70895F999FECF92BD81BDF89A99273C
:106AD00080B50895A6E1B0E044E050E00C94543550
:106AE000A8E1B0E042E050E00C945435DC01A40F82
:106AF000B51F4150504048F0CB01840F951F2E9197
:106B00000E94873541505040D0F70895262FF999BB
:106B1000FECF92BD81BDF89A019700B4021639F0FC
:106B20001FBA20BD0FB6F894FA9AF99A0FBE0895CD
:106B30000396272F0E9487350E948635252F0E94B5
:106B40008735242F0C9487350196272F0E9487358F
:106B50000C948635052E97FB1EF400940E94C135D7
:106B600057FD07D00E94DC3507FC03D04EF40C948F
:106B7000C13550954095309521953F4F4F4F5F4F10
:106B8000089590958095709561957F4F8F4F9F4F99
:106B900008950E94FE35A59F900DB49F900DA49F6F
:106BA000800D911D11240895B7FF0C94C9350E94E2
:106BB000C935821B930B0895A1E21A2EAA1BBB1B99
:106BC000FD010DC0AA1FBB1FEE1FFF1FA217B307B9
:106BD000E407F50720F0A21BB30BE40BF50B661FCF
:106BE000771F881F991F1A9469F760957095809593
:106BF00090959B01AC01BD01CF010895A29FB0010A
:106C0000B39FC001A39F700D811D1124911DB29FE0
:106C1000700D811D1124911D08950E9421360C9440
:106C200002370E94FB3658F00E94F43640F029F4F7
:106C30005F3F29F00C94EB3651110C9436370C94CD
:106C4000F1360E94133768F39923B1F3552391F37A
:106C5000951B550BBB27AA2762177307840738F0CB
:106C60009F5F5F4F220F331F441FAA1FA9F335D028
:106C70000E2E3AF0E0E832D091505040E695001CDC
:106C8000CAF72BD0FE2F29D0660F771F881FBB1F96
:106C9000261737074807AB07B0E809F0BB0B802D74
:106CA000BF01FF2793585F4F3AF09E3F510578F0A0
:106CB0000C94EB360C9436375F3FE4F3983ED4F3F4
:106CC000869577956795B795F7959F5FC9F7880F74
:106CD000911D9695879597F90895E1E0660F771FC6
:106CE000881FBB1F621773078407BA0720F0621B57
:106CF000730B840BBA0BEE1F88F7E09508950E9482
:106D00001B3788F09F5798F0B92F9927B751B0F0EB
:106D1000E1F0660F771F881F991F1AF0BA95C9F71F
:106D200014C0B13091F00E943537B1E008950C9451
:106D30003537672F782F8827B85F39F0B93FCCF304
:106D4000869577956795B395D9F73EF4909580959C
:106D5000709561957F4F8F4F9F4F0895E89409C0BC
:106D600097FB3EF490958095709561957F4F8F4F7E
:106D70009F4F9923A9F0F92F96E9BB279395F69594
:106D8000879577956795B795F111F8CFFAF4BB0F12
:106D900011F460FF1BC06F5F7F4F8F4F9F4F16C076
:106DA000882311F096E911C0772321F09EE8872F00
:106DB000762F05C0662371F096E8862F70E060E0BC
:106DC0002AF09A95660F771F881FDAF7880F969535
:106DD000879597F9089597F99F6780E870E060E0DC
:106DE00008959FEF80EC089500240A941616170664
:106DF00018060906089500240A94121613061406AC
:106E000005060895092E0394000C11F4882352F00E
:106E1000BB0F40F4BF2B11F460FF04C06F5F7F4FC6
:106E20008F4F9F4F089557FD9058440F551F59F0AD
:106E30005F3F71F04795880F97FB991F61F09F3F67
:106E400079F087950895121613061406551FF2CF90
:106E50004695F1DF08C0161617061806991FF1CFE0
:106E600086957105610508940895E894BB27662707
:106E70007727CB0197F908950E944F370C9402377A
:106E80000E94F43638F00E94FB3620F0952311F072
:106E90000C94EB360C94F13611240C9436370E9486
:106EA000133770F3959FC1F3950F50E0551F629F04
:106EB000F001729FBB27F00DB11D639FAA27F00D53
:106EC000B11DAA1F649F6627B00DA11D661F829F7A
:106ED0002227B00DA11D621F739FB00DA11D621F5F
:106EE000839FA00D611D221F749F3327A00D611D7C
:106EF000231F849F600D211D822F762F6A2F11245E
:106F00009F5750409AF0F1F088234AF0EE0FFF1F90
:106F1000BB1F661F771F881F91505040A9F79E3FE7
:106F2000510580F00C94EB360C9436375F3FE4F358
:106F3000983ED4F3869577956795B795F795E7953D
:106F40009F5FC1F7FE2B880F911D9695879597F946
:106F5000089597FB072E16F4009407D077FD09D00B
:106F60000E94A23407FC05D03EF4909581959F4F76
:106F70000895709561957F4F0895EE0FFF1F05905E
:106F8000F491E02D09940F931F93CF93DF938230F8
:106F9000910510F482E090E0E0913D08F0913E0808
:106FA00020E030E0A0E0B0E0309719F1408151815D
:106FB0000281138148175907C8F08417950769F4AF
:106FC000109731F012960C93129713961C9327C0CA
:106FD00000933D0810933E0822C02115310519F099
:106FE0004217530718F49A01BD01EF01DF01F801C0
:106FF000DBCF21153105F9F0281B390B2430310581
:1070000080F48A819B816115710521F0FB019383D6
:10701000828304C090933E0880933D08FE0132961F
:1070200044C0FE01E20FF31F819391932250310976
:10703000398328833AC020913B0830913C08232BA8
:1070400041F4209106013091070130933C082093D0
:107050003B0820910401309105012115310541F4CF
:107060002DB73EB74091080150910901241B350B03
:10707000E0913B08F0913C08E217F307A0F42E1BC7
:107080003F0B2817390778F0AC014E5F5F4F24178C
:10709000350748F04E0F5F1F50933C0840933B0864
:1070A0008193919302C0E0E0F0E0CF01DF91CF91B6
:1070B0001F910F910895CF93DF93009709F481C03A
:1070C000FC01329713821282A0913D08B0913E08D4
:1070D000109781F420813181820F931F20913B080A
:1070E00030913C082817390751F5F0933C08E0939C
:1070F0003B0867C0ED0120E030E0CE17DF0740F429
:107100004A815B819E0141155105F1F0EA01F5CFFD
:10711000D383C28340815181840F951FC817D9073B
:1071200059F488819981840F951F029691838083F9
:107130008A819B81938382832115310529F4F09301
:107140003E08E0933D083DC0E901FB83EA83499195
:107150005991C40FD51FEC17FD0761F4808191810F
:10716000840F951F0296E901998388838281938118
:107170009B838A83E0E0F0E012968D919C911397B7
:10718000009719F0FD01DC01F7CF8D919C911197CB
:107190009D012E5F3F4F820F931F20913B0830913E
:1071A0003C082817390769F4309729F410923E08F3
:1071B00010923D0802C013821282B0933C08A09343
:1071C0003B08DF91CF910895FB01DC0104C08D9154
:1071D0000190801921F441505040C8F7881B990B49
:1071E0000895AEE0B0E0E7EFF8E30C94C4340D8905
:1071F0001E898F89988D26E02C831A83098397FF37
:1072000002C080E090E801979E838D83AE01455EC9
:107210005F4F698D7A8DCE0101960E9421394D8193
:107220005E8157FD0AC02F813885421753070CF441
:107230009A01F801E20FF31F10822E96E4E00C94FD
:10724000E034ABE0B0E0E7E2F9E30C94B6346C0173
:107250007B018A01FC0117821682838181FFCCC1E8
:10726000CE0101963C01F6019381F70193FD8591D2
:1072700093FF81917F01882309F4BAC1853239F4E3
:1072800093FD859193FF81917F01853229F4B601A9
:1072900090E00E94183BE7CF912C212C312CFFE18C
:1072A000F315D8F08B3279F038F4803279F08332EC
:1072B000A1F4232D20611DC08D3261F0803369F46B
:1072C000232D216016C0832D8260382EE32DE460CB
:1072D0003E2E2AC0F32DF8601DC037FC2DC020EDD6
:1072E000280F2A3040F08E32B9F436FC81C1232DAC
:1072F0002064322E19C036FE06C08AE0989E200D0A
:107300001124922E11C0EAE02E9E200D1124222E6F
:10731000F32DF0623F2E08C08C3621F4832D806857
:10732000382E02C0883641F4F70193FD859193FF12
:1073300081917F018111B3CF982F9F7D9554933018
:1073400028F40C5F1F4F9FE399830DC0833631F003
:10735000833771F0833509F059C021C0F80180816D
:1073600089830E5F1F4F88248394912C530113C08F
:107370002801F2E04F0E511CF801A080B18036FECA
:1073800003C0692D70E002C06FEF7FEFC5010E945E
:107390000D3B4C018201F32DFF773F2E16C02801D3
:1073A00022E0420E511CF801A080B18036FE03C0DD
:1073B000692D70E002C06FEF7FEFC5010E94023BB4
:1073C0004C01F32DF0683F2E820133FC1BC0822D4F
:1073D00090E088169906B0F4B60180E290E00E9431
:1073E000183B2A94F4CFF50137FC859137FE819143
:1073F0005F01B60190E00E94183B21102A9421E021
:10740000821A91088114910471F7E8C0843611F052
:10741000893641F5F80137FE07C0608171818281AC
:1074200093810C5F1F4F08C060817181072E000C93
:10743000880B990B0E5F1F4FF32DFF763F2E97FFA2
:1074400009C090958095709561957F4F8F4F9F4FA4
:10745000F0683F2E2AE030E0A3010E94543B882EC2
:10746000861845C0853731F4232D2F7EB22E2AE0B1
:1074700030E025C0932D997FB92E8F36C1F018F4D6
:10748000883579F0B5C0803719F0883721F0B0C061
:10749000E92FE061BE2EB4FE0DC0FB2DF460BF2EBF
:1074A00009C034FE0AC0292F2660B22E06C028E08B
:1074B00030E005C020E130E002C020E132E0F80118
:1074C000B7FE07C060817181828193810C5F1F4F7D
:1074D00006C06081718180E090E00E5F1F4FA301C4
:1074E0000E94543B882E8618FB2DFF773F2E36FED8
:1074F0000DC0232D2E7FA22E891458F434FE0BC00C
:1075000032FC09C0832D8E7EA82E05C0B82CA32C7A
:1075100003C0B82C01C0B92CA4FE0FC0FE01E80DB9
:10752000F11D8081803321F49A2D997EA92E09C006
:10753000A2FE06C0B394B39404C08A2D867809F0E5
:10754000B394A3FC11C0A0FE06C0B21488F4280CAA
:10755000922C9B180EC0B21460F4B60180E290E049
:107560000E94183BB394F7CFB21418F42B1802C042
:10757000982C212CA4FE10C0B60180E390E00E945C
:10758000183BA2FE17C0A1FC03C088E790E002C030
:1075900088E590E0B6010CC08A2D867859F0A1FEEE
:1075A00002C08BE201C080E2A7FC8DE2B60190E050
:1075B0000E94183B891438F4B60180E390E00E94E1
:1075C000183B9A94F7CF8A94F301E80DF11D80815E
:1075D000B60190E00E94183B8110F5CF222009F4FB
:1075E00042CEB60180E290E00E94183B2A94F6CF8A
:1075F000F6018681978102C08FEF9FEF2B96E2E123
:107600000C94D234FC010590615070400110D8F701
:10761000809590958E0F9F1F0895FC0161507040DA
:1076200001900110D8F7809590958E0F9F1F0895B7
:107630000F931F93CF93DF93FB01238121FD03C0A1
:107640008FEF9FEF2CC022FF16C046815781248107
:1076500035814217530744F4A081B1819D012F5F0A
:107660003F4F318320838C93268137812F5F3F4F9B
:107670003783268314C08B01EC01FB010084F18564
:10768000E02D0995892BE1F6D80116968D919C91F4
:107690001797019617969C938E931697CE01DF91BC
:1076A000CF911F910F910895FA01AA27283051F127
:1076B000203181F1E8946F936E7F6E5F7F4F8F4F23
:1076C0009F4FAF4FB1E03ED0B4E03CD0670F781F82
:1076D000891F9A1FA11D680F791F8A1F911DA11D67
:1076E0006A0F711D811D911DA11D20D009F46894A0
:1076F0003F912AE0269F11243019305D3193DEF648
:10770000CF010895462F4770405D4193B3E00FD0FD
:10771000C9F7F6CF462F4F70405D4A3318F0495DE8
:1077200031FD4052419302D0A9F7EACFB4E0A695CB
:107730009795879577956795BA95C9F700976105ED
:10774000710508959B01AC010A2E06945795479543
:1077500037952795BA95C9F7620F731F841F951F38
:08776000A01D0895F894FFCF6D
:107768000100000000003F08200056055C027D0073
:1077780001151B6C1B4D1B481B431B141B200001D0
:1077880000FF0003FFFF00FFFF0A25640A00818253
:1077980083E200E900EA00B500B600B700CD008337
:1077A80001CC008A019201940121022302240225BE
:1077B80002260227022A02B300B4006F00700000FC
:1077C8003131295A1B750A40476D0F0CC80B5B0BEA
:1077D800610C7A0C930CFFFFFFFFFFFF1C21262B87
:1077E8002FFF1B20252A2EFF1A1F24292DFF191EC3
:1077F80023282CFF181D2227FFFFFFFFFFFFFFFF95
:10780800FFFFFFFFFFFF00050A0FFFFF01060B1038
:1078180014FF02070C1115FF03080D1216FF0409C7
:107828000E1317FFFFFFFFFFFFFF89009A00AC0050
:10783800BD00CE00890C9A0CAC0CBD0CCE0C89197D
:107848009A19AC19BD19CE1989269A26AC26BD26D7
:10785800CE269A33AC33BD33CE33560044003300C2
:1078680022001100560C440C330C220C110C561932
:10787800441933192219111956264426332622266B
:10788800112644333333223311330404040404042B
:1078980004040404040404040404040404040101A6
:1078A8000101040404040404040404040404040496
:0A78B80004040404040401010101AA
:00000001FF
