:100000000C94AF050C94CC050C94CC050C94CC0549
:100010000C94CC050C94CC050C94CC050C94CC051C
:100020000C94CC050C94CC050C94F9300C94AF2FA7
:100030000C94FA2C0C94CC050C94CC050C94CC05A7
:100040000C94CC050C94CC050C94CC050C94CC05EC
:100050000C94CC050C945C2C0C94CC050C94CC0525
:100060000C94CC050C94CC050C94CC050C94CC05CC
:100070000C94CC050C94CC050C94CC050C94CC05BC
:100080000C94CC050C94CC050C94CC050C94CC05AC
:100090000C94CC050C94CC050C94CC050C94CC059C
:1000A0000C94CC050C94CC050C94CC05A40AAD0A98
:1000B000B20AB70ABC0AC10AC60ACB0AD00AD50AD4
:1000C000DA0A8407E10AE40AE70AEA0AED0A86077F
:1000D000F00AF50A950B950BD30BD30B1C0C3C0CBB
:1000E000100E690E7E0C6A0D7C0D7C0DA90FAC0FF5
:1000F000AF0FB20FB50FB80FBB0F4A124F12591204
:100100004D12521257125512C214DC14081545151F
:100110008615D115D415D715DA15DD15E015E315BB
:10012000E615E915EC15F115F415F715FC15011692
:10013000041607168B228B229E229E2294229E2238
:100140009E229E228B228B2299229E229E229922DF
:1001500054297B29E72A7B29E72AC329E629E72AAC
:10016000A52AB92A2E002B002900D75C35410000B2
:100170001E00140004001D61085D4D001F001A00E0
:1001800016001B00E1042A002000080007000600FA
:1001900050002C6121001500090019004F004A0091
:1001A000220017000A000500000065640453025392
:1001B0000000576F0000E3000353015300000F5D80
:1001C0000000E20023001C000B0011000000296168
:1001D000240018000D00100052002E0025000C0015
:1001E0000E00360051002800260012000F003700D4
:1001F0002F004C00270013003342380030002D0040
:100200002D0031003468D85C015100002900010044
:1002100001000100010000003A001E02200222023B
:100220002E000E5D3B001F02210223020100C95C6B
:100230003C002F0226022F000100CA5C3D00300264
:100240002702300001000D5D3E003102350035020D
:100250000000C35C010001000000010000000C5D13
:1002600001000100000001000000C25C3F005200DC
:100270005100240200000B5D4000240021001E00FC
:10028000010001004100250022001F003700C55C6D
:1002900042002600230020002700C65C4300250200
:1002A0002E0231002E0001004400450034020100FE
:1002B0000100000001000100010001000100000038
:1002C0000100010001000100010001000100010026
:1002D000F2000100010001000100F000F100010046
:1002E000F400010001000100F3000100F50001002D
:1002F00001000100010001000000010001000100F7
:1003000000000100000001000100010000000100E8
:1003100000000100010001000100010000000100D7
:100320000100010050000100A9000100010052007D
:100330005100AC00AA000100010001004F00AB0019
:10034000A8000100010001000100010001000100FE
:10035000005C0100AE00010001000000010001008E
:100360000100010001000000010001000100010086
:100370000100010001000100150001000100010061
:100380000100090016000100010001000100130036
:10039000170001000100010001000A000700010030
:1003A0000000010001000100000001000000010048
:1003B00001000100000001000000010001000D002B
:1003C00001000E000000010001000F0011000100FB
:1003D00001000100010018000800010001000100F7
:1003E00001001C000C0001000100010001003300AD
:1003F00012000100010001000100010001000100E4
:1004000001000000010001000100010001000000E6
:1004100001000100010001000100010001000100D4
:1004200001000100010001000100010001000100C4
:1004300001000100010001000100010001000100B4
:1004400001000100010001000000010001000100A5
:100450000000010000000100010001000000010097
:100460000000010001000100010001000000010086
:100470000100010001000100010001000100010074
:100480000100010001000100010001000100010064
:100490000100010001000100010001000100010054
:1004A00001000100010001000100000001012C0118
:1004B000043130307C0102E10101220103E1010439
:1004C0003130307C0102E10101370103E1010431E7
:1004D00030307C0102E10101220103E101043130ED
:1004E000307C010128000000000000000000000036
:1004F00000000000000000000000000000000000FC
:1005000000000000000000000000000000000000EB
:1005100000000000000000000000000000000000DB
:1005200000000000000000000000000000000000CB
:1005300000000000000000000000000000000000BB
:1005400000000000000000000000000000000000AB
:10055000000000000000000000000000000000009B
:10056000000000000000000000000000000000008B
:10057000000000000000000000000000000000007B
:10058000000000000000000000000000000000006B
:10059000000000000000000000000000000000005B
:1005A000000000000000000000000000000000004B
:1005B000000000000000000000000000000000003B
:1005C000000000000000000000000000000000002B
:1005D000000000000000000000000000000000001B
:1005E000000000000000000000000000000000000B
:1005F00000000000000000000000000000000000FB
:100600000000000000000000FF0000FF0000FF00ED
:1006100000FF0000FF0000FF0000FF8DFFE9000069
:10062000FF0000FF0000FF8DFFE98DFFE98DFFE96E
:100630000000FF0000FF0000FF21FFFF21FFFF007F
:1006400000FF21FFFF21FFFF21FFFF0000FF00004F
:10065000FF0000FF0000FF0000FF0000FF0000FFA0
:100660000000FF0EFFFF0000FF0000FF0000FF0E74
:10067000FFFF0EFFFF0EFFFF0000FF0000FF000066
:10068000FF0000FF0000FF0000FF21FFFF21FFFF30
:100690000000000000FFE9DAD9FFDCC90EDEF20E2F
:1006A000DEF20EDEF2CDFFFFE9DAD9FFDCC90EDEA5
:1006B000F20EDEF2B4FFE9CDFFFFE9DAD9FFDCC9C3
:1006C0000EDEF2B4FFE9B4FFE9CDFFFFE9DAD9FFAE
:1006D000DCC9B4FFE9B4FFE9CDFFFFE9DAD9E9DA13
:1006E000D9FFDCC90EDEF20EDEF20EDEF2CDFFFF28
:1006F000E9DAD9FFDCC90EDEF20EDEF2B4FFE9CD95
:10070000FFFFE9DAD9FFDCC90EDEF2B4FFE9B4FF7E
:10071000E9CDFFFFE9DAD9FFDCC9B4FFE9B4FFE9AD
:10072000CDFFFFE9DAD90000000000000000000062
:10073000000000000000000000007E0F00D4FFFF5A
:10074000FFC70000007800000000000000002A2B16
:100750002800000000000000000000000000000071
:100760000029000000002C1E3420212224342627DA
:10077000252E362D3738271E1F20212223242526FB
:100780003333362E37381F0405060708090A0B0CC9
:100790000D0E0F101112131415161718191A1B1C11
:1007A0001D2F3130232D350405060708090A0B0CCF
:1007B0000D0E0F101112131415161718191A1B1CF1
:1007C0001D2F3130354C00010101010101010101F2
:1007D00002020202020202020203030303030303F2
:1007E00003040404040404040505050505060606BF
:1007F0000606070707070708080808090909090A7C
:100800000A0A0B0B0B0C0C0C0D0D0D0E0E0E0F0F20
:100810000F101011111112121313141415151616AE
:100820001717181819191A1A1B1B1C1D1D1E1E1F1D
:100830002020212222232424252626272829292A6C
:100840002B2C2D2D2E2F3031323233343536373894
:10085000393A3B3C3D3E3F40414243444546474890
:10086000494A4C4D4E4F50515354555658595A5B66
:100870005D5E5F616264656668696B6C6D6F707206
:10088000737577787A7B7D7E8082838587888A8C72
:100890008E8F91939596989A9C9EA0A2A3A5A7A9A6
:1008A000ABADAFB1B3B5B7BABCBEC0C2C4C6C9CB9D
:1008B000CDCFD1D4D6D8DBDDDFE2E4E7E9EBEEF053
:1008C000F3F5F8FAFDFF0A00000000000306B2008D
:1008D000080001000000A800080002000200A000BB
:1008E0001400030057494E55534200000000000019
:1008F000000000008400040007002A004400650096
:10090000760069006300650049006E0074006500B0
:1009100072006600610063006500470055004900F1
:1009200044007300000050007B0039004400420086
:10093000370046003100460044002D0037004500D6
:10094000370041002D0034003000300038002D0009
:1009500039003300360042002D00360042004100CD
:1009600036004300310039004100330030003800C8
:1009700063007D00000000001B0301636F6E666969
:10098000677572652E6572676F646F782D657A2E54
:10099000636F6D0005010902A10185020901A10033
:1009A0000509190129051500250195057501810223
:1009B0009501750381010501093009311581257FF4
:1009C00095027508810609381581257F95017508FE
:1009D0008106050C0A38021581257F95017508816D
:1009E00006C0C005010980A10185031A81002A8380
:1009F00000160100260300950175108100C0050C4A
:100A00000901A10185041A01002A9C021601002691
:100A10009C02950175108100C005010906A10185A0
:100A200005050719E029E7150025019508750181DD
:100A3000020507190029EF1500250195F0750181C0
:100A400002050819012905950575019102950175A1
:100A5000039101C005010906A101050719E029E775
:100A60001500250195087501810295017508810120
:100A70000507190029FF150026FF00950675088156
:100A80000005081901290595057501910295017563
:100A9000039101C009025200030100A0FA090400F9
:100AA000000103010100092111010001224000079A
:100AB00005810308000A0904010001030000000980
:100AC000211101000122C0000705820320000A094C
:100AD00004020002FF000000070583034000050731
:100AE0000504034000051201100200000008EDFE9D
:100AF0000713010001020301040330000000160384
:100B00004500720067006F0064006F0078002000ED
:100B100045005A00000008035A005300410000003D
:100B200004030904050F3900021C100500DF60DD15
:100B3000D88945C74C9CD2659D9E648A9F0000035E
:100B400006B20045001810050038B60834A909A0FF
:100B5000478BFDA0768815B6650001420000112480
:100B60001FBECFEFDAE0DEBFCDBF13E0A0E0B1E003
:100B7000E6E6F3E702C005900D92A43EB107D9F76F
:100B800026E0A4EEB3E001C01D92A339B207E1F75D
:100B90000E94491F0C94B1390C9400008F929F92CF
:100BA000AF92BF92CF92DF92EF92FF920F931F937B
:100BB000CF93DF93CDB7DEB760970FB6F894DEBF63
:100BC0000FBECDBFFC01F080118183819481892B00
:100BD00011F40C948F0E1F3F29F40FEFF01611F44F
:100BE0000C948F0E6F0185E0DE01199601900D9235
:100BF0008A95E1F7F601228189859A85222349F0B9
:100C00000E94A72E082F682F89859A850E94202F81
:100C100003C00E94F32E082F26E0129FF00111243A
:100C200034E5039FE00DF11D1124EF0DF11DEE0FD2
:100C3000FF1FEC59FE4F059114918091B005882358
:100C4000C1F08091B1058823A1F01982F60182815B
:100C500081110C948A0E82E18A83F60180818B8354
:100C600081818C838EEF8D8365E0CE0101960E9499
:100C7000122BF60182810930FDE51F0759F00A3079
:100C80002DE5120709F446C0023C3CE5130709F0C4
:100C90008BC062C0882309F43DC190916E0581E04C
:100CA000890F8770987F853020F4892B80936E059B
:100CB00002C090936E0580916E058770EFEF8E9F56
:100CC000C0011124959587959595879599279093BF
:100CD00089008093880090938B0080938A00909382
:100CE0008D0080938C0040916E0550916F0560914E
:100CF0007005709171058FE090E00E94C3336091A0
:100D0000AC057091AD058091AE059091AF050E9444
:100D1000301200C1882309F4FDC080916E0583FB69
:100D2000222720F991E0922790FB83F980936E05AA
:100D3000992329F040E060E080E00E94F31B40919D
:100D40006E0550916F0560917005709171058FE08F
:100D500090E00E94C333DEC0882311F40C948F0E00
:100D600090911A0180916E059F3F59F410921A01DB
:100D70008F7E80936E0540E060E080E00E94F31B70
:100D800006C09FEF90931A01806180936E05409199
:100D90006E0550916F0560917005709171058FE03F
:100DA00090E00E94C333BBC70D30FDE51F0709F477
:100DB0008CC058F40B303DE5130709F47AC00C30B1
:100DC0009DE5190709F479C0A5C00E30EDE51E07B1
:100DD00009F48DC00F30FDE51F0709F09BC0882383
:100DE00009F498C07CEAA72E74E0B72EEAE09E2EA4
:100DF000F5018491882309F48DC0813009F051C038
:100E00007501FFEFEF1AFF0AF7018491813059F461
:100E10007501F2E0EF0EF11CF701B4908B2D0E94EA
:100E2000D7258B2D13C0823049F47501F2E0EF0E07
:100E3000F11CF70184910E94D72536C0833049F414
:100E40007501F2E0EF0EF11CF70184910E9470250C
:100E50002BC0843049F57501F2E0EF0EF11CF7016B
:100E6000249180E090E030E0205331092A303105B0
:100E700070F4989EA001999E500D1124CA01820F12
:100E8000931FFFEFEF1AFF0AF7012491ECCF0097B1
:100E900059F0EFE9FFE03197F1F700C0000001974A
:100EA000F6CF0E94B81175015701FFEFAF1ABF0AC4
:100EB0009FCF882309F433C727C0882309F42FC79D
:100EC00081E00E94FF1B8CEA19C0882309F427C720
:100ED00081E00E94FF1B86E5809324068FEF8093BC
:100EE000250680E8809326060E94F71B18C78823F2
:100EF00009F415C781E00E94FF1B8BE18093240653
:100F00008FEF80932506EECF81E001C088E10E943B
:100F1000FF1B05C7F6018281882319F1033E2CE5EA
:100F20001207C1F050F4013E8CE5180781F0023E33
:100F30009CE51907B1F481E010C0043EECE51E0702
:100F400059F0053EFCE51F0761F484E006C01092ED
:100F50006A0505C082E001C083E080936A050E94B3
:100F6000D61D17FF6DC0F6018281882309F468C081
:100F7000809182068093E4031092820680916A0534
:100F8000813071F048F08230A1F08430C1F486EEF7
:100F90000E94642688E111C082EE0E94D7250FC00E
:100FA00088E193E00E941A1288E193E00E94041203
:100FB00006C082EE0E94D72587E50E9464268FE353
:100FC0009CE90197F1F700C000007801E894F7F878
:100FD0006CE0A62EB12CC7010A2C02C0969587950D
:100FE0000A94E2F7282F2F7041F0822F90E02A30E8
:100FF00010F44D9604C0069702C087E290E00E946C
:10100000642694E0A91AB108ECEFAE16EFEFBE0625
:1010100011F780916A05813039F040F0823031F06B
:10102000843051F488E206C08CE204C082EE0E9453
:10103000702502C00E9464268091E403809382069A
:10104000F6018281882309F4E2C00436110509F40F
:10105000C5C090F40B32110509F4C0C0C8010C32B0
:10106000110528F40497849708F0D1C0B7C08D9774
:101070000C9708F0CCC0B2C00931FCE51F0739F16C
:1010800078F407313CE51307C1F008318CE5180707
:1010900009F0BDC08091070190910801059712C029
:1010A0000B319CE5190709F490C008F48AC00C3193
:1010B000FCE51F0709F48DC0AAC08091070190913B
:1010C000080105969093080180930701A3C08091C1
:1010D00008018F93809107018F938CE191E09F939A
:1010E0008F931F9288E08F939E012F5F3F4F79016E
:1010F0003F932F930E94CC360FB6F894DEBF0FBEFD
:10110000CDBF5AE0B52EF7018081882309F482C053
:10111000813009F050C08181813059F44701F2E0FB
:101120008F0E911CF701F2808F2D0E94D7258F2DF5
:1011300014C0823051F44701F2E08F0E911CF70188
:1011400082810E94D725740138C0833049F4470159
:10115000F2E08F0E911CF70182810E947025F3CF7F
:10116000843021F0FFEFEF1AFF0A27C0F701228138
:10117000C70102967C0180E090E030E02053310905
:101180002A30310570F4B89EA001B99E500D11248B
:10119000CA01820F931FEFEFEE1AFE0AF7012081BA
:1011A000ECCF009751F0EFE9FFE03197F1F700C085
:1011B00000000197F6CF0E94B811FFEFEF1AFF0A67
:1011C000A2CF80910601811104C081E080930601C5
:1011D00021C0109206010E94B01B1CC00E94B01BCF
:1011E00080910601882309F43DC180918206811116
:1011F00039C10E94D82C9093E8038093E7031093A1
:10120000E6030093E50382E00E94752F88C50E94E3
:10121000B01B28C1F6019281992309F479C110927B
:10122000E9030230FCE51F0708F45CC106312CE538
:10123000120738F098012A5F3C452730310508F045
:1012400051C10E94862D90938105809380050F30B7
:101250003CE5130709F4CFC008F042C008309CE514
:10126000190709F4A8C0F0F40430FCE51F0709F4DD
:1012700090C068F402303CE5130709F486C00330DF
:101280001C4509F0DFC0809180058260D9C006301E
:101290009CE5190709F487C008F089C08091800592
:1012A0008860CEC00B30FCE51F0709F495C068F4D8
:1012B00009303CE5130709F482C00A301C4509F0E7
:1012C000C1C080918005886080C00D309CE5190701
:1012D00009F486C008F087C0809180058D7FB0C07A
:1012E0000A3FFCE51F0709F457C050F502313CE501
:1012F000130709F488C068F400319CE5190709F464
:101300007EC001311C4509F09DC0809180058F7B16
:1013100097C00431FCE51F0709F487C008F479C0C1
:1013200005311C4509F08EC08091800582FB222783
:1013300020F991E0922790FB82F990FB83F980C01D
:101340000D3F8CE5180709F452C058F40B3FECE54B
:101350001E0729F10C3F1C4509F074C080918105DE
:1013600060C00F3F2CE5120709F458C080F1011549
:101370001D4509F067C080918105982F9095917067
:101380008E7F892B90FB81F94DC080918005816013
:1013900057C08091800519C0809181051BC0809144
:1013A000810582603FC080918005806149C0809145
:1013B0008005806245C080918005806441C00E94A4
:1013C0005B258091800580683BC0846039C0809136
:1013D00081058260816026C0809180058E7F30C04B
:1013E0008091800519C080918005877F29C08091F8
:1013F00081058D7F17C0809180058F7E21C08091EF
:1014000080058F7D1DC00E945B25809180058F77B0
:1014100017C080918005877F8B7F12C080918105E6
:101420008D7F8E7F809381050DC00E945B2580910A
:10143000800587FB222720F991E0922790FB87F90E
:1014400080938005609180051091810584E090E093
:101450000E94B133612F81E290E00E94B1330E947B
:101460005B255DC4033FFCE51F0739F426E241EE2E
:1014700060EEC6010E941F1E52C4043F2CE51207F5
:10148000C0F4083D3CE5130721F427E245EE65EE84
:10149000F0CF093D8CE5180719F428E241E0F7CFB9
:1014A000073D9CE5190709F0B5CE26E241EE61EE55
:1014B000E0CF053FECE51E0721F426E241EE62EEA7
:1014C000D8CF053FFCE51F0720F427E245EE64EE88
:1014D000D0CF063F2CE5120709F09CCE27E245EE5F
:1014E00066EEC7CF8091820606313CE5130701F511
:1014F0008A7A91E009F490E09093EA03911102C096
:1015000069E201C065E388E296E00E944E2D0DC0BD
:1015100006311C4509F0C0C08091EA038111FDC36A
:1015200069E288E296E00E94232D0E94612EF7C3B3
:101530008272F801E25CFC45E431F10508F057C025
:10154000EA5AFF4F0C9499359091230681E0892740
:101550008093230610920901C7CC45E55CE16BE658
:101560007CE12CC04BE65CE165E57CE127C047E40B
:101570005CE16EE47CE122C04EE45CE167E47CE186
:101580001DC043E35CE16DE37CE118C04DE35CE129
:1015900063E37CE113C04FE15CE169E27CE10EC0F2
:1015A00049E25CE16FE17CE109C04BE05CE165E1AF
:1015B0007CE104C045E15CE16BE07CE10E94E01B62
:1015C000AEC365E082E00EC068E086E00BC06EE06E
:1015D00089E008C064E18FE005C067E185E102C0F1
:1015E00062E289E10E94811C9AC383E290CC0E3DA5
:1015F000ECE51E0709F446C00830FDE51F0709F4B5
:1016000044C001151C4509F047C00E945B253FEF0F
:1016100084E39CE0315080409040E1F700C000003E
:10162000F89481E08093E00080E28093D8001092EB
:10163000C900EFE1FEE43197F1F700C000001DBAE8
:10164000109268001CBC10BE1FBA10927A00109253
:101650006E0010926F001092710010927200109242
:10166000C9001092BC0014B817B81AB81DB810BA47
:101670001092BC0015B818B81BB81EB811BA0C945B
:10168000003F4DC30E94972D4AC39091B20581E05F
:1016900089278093B20543C3F60100811181992304
:1016A00049F0C8010E94A72EF82E682FC8010E9499
:1016B000202F04C0C8010E94F32EF82EB8018F2DF0
:1016C0000E940E10182F382FF601258122952F70B9
:1016D000028101111092810680917F068770A9F026
:1016E000002399F080E2810F883078F082E02F8724
:1016F000388B9E870E94752F80917F068770EE241D
:10170000E3942F8538899E858111E12CA92EA2941E
:101710004FE0A422B12CFCE0AF16B10408F0D9C20E
:10172000F501E659FF4F0C949935892F807F9F7002
:10173000F92E882319F0F29480EFF8220023B9F0F3
:10174000FF2009F457C280E2810F883010F0311178
:1017500006C090918206F92AF092820605C0909107
:101760008106F92AF09281060E94612E43C2812FE0
:10177000388B0E9470253889FF2009F4AAC2105EB8
:10178000F094183010F0311106C090918206F922C1
:10179000F092820605C090918106F922F0928106AE
:1017A0000E94612E96C2492F407F892F8F70403250
:1017B00011F08295807F332319F03130E9F025C094
:1017C000002381F030918306222351F0213041F42F
:1017D000982F932B391709F47CC29093830679C212
:1017E000832B17C0222319F0213009F472C28E878F
:1017F0000E945B2E8E851DC0002321F0223008F050
:1018000068C207C0211165C214C0002329F021114C
:10181000F1C10E94DD225DC2222359F0193309F083
:10182000FBC10FEF27EE33E0015020403040E1F7DD
:10183000F1C10E94D2224DC2292F269526952370F0
:1018400030E02115310521F02130310559F041C238
:10185000002319F0812F937002C080E090E00E9475
:101860008E1B40C2002319F0812F937002C080E0CC
:1018700090E00E94781B36C20023F9F0153F51F02A
:10188000163F71F0143FA9F48091EB039091EC03A3
:1018900081600BC08091EB039091EC03826005C0E6
:1018A0008091EB039091EC0384609093EC03809320
:1018B000EB03812F0E94F42B1EC0153F51F0163F01
:1018C00071F0143FA9F48091EB039091EC038E7FAB
:1018D0000BC08091EB039091EC038D7F05C080914C
:1018E000EB039091EC038B7F9093EC038093EB03DD
:1018F000812F0E942A2B0E94E42CF4C1892F83702F
:1019000009F070C00111ECC1812F82958695877016
:10191000880F880F412F4F7050E060E070E04A015F
:101920005B01082E04C0880C991CAA1CBB1C0A94DD
:10193000D2F714FF12C00FE010E020E030E004C046
:10194000000F111F221F331F8A95D2F7B901A8017A
:10195000409550956095709503C040E050E0BA0105
:10196000969596959370892F90E08230910529F194
:1019700083309105C9F0009184061091850620916D
:10198000860630918706019759F0482959296A2916
:101990007B29CB01BA0160237123822393230AC0E0
:1019A000802A912AA22AB32ACB01BA01682979296F
:1019B0008A299B290E94222393C1482959296A29EF
:1019C0007B298091840690918506A0918606B0912E
:1019D00087068A019B01082719272A273B27C90167
:1019E000B801E8CF002319F0892F817001C08695D6
:1019F000882309F475C1812F829586958770880F99
:101A0000880F412F4F7050E060E070E04A015B01A9
:101A1000082E04C0880C991CAA1CBB1C0A94D2F77F
:101A200014FF12C00FE010E020E030E004C0000F0F
:101A3000111F221F331F8A95D2F7B901A8014095C3
:101A400050956095709503C040E050E0BA019695BE
:101A500096959370892F90E082309105E9F083305C
:101A6000910579F10091AC051091AD052091AE057D
:101A70003091AF05019759F0482959296A297B29E6
:101A8000CB01BA01602371238223932320C0802AD3
:101A9000912AA22AB32A15C0482959296A297B29E3
:101AA0008091AC059091AD05A091AE05B091AF05C8
:101AB0008A019B01082719272A273B27C901B8015A
:101AC00006C0CB01BA01682979298A299B290E947D
:101AD000E72206C19F70F92E002339F0892F0E945A
:101AE0008E2F812F0E94DD22FBC0812F0E94D222E7
:101AF0008F2D0E94502FF4C0812F323FC9F128F45E
:101B0000303F49F0313F79F170C0333FC1F1343F8C
:101B100009F44DC06AC0002311F12111DAC0292F48
:101B20002F7181E090E0A0E0B0E0AC01BD0104C005
:101B3000440F551F661F771F2A95D2F78091AC0579
:101B40009091AD05A091AE05B091AF058A019B01C2
:101B5000082719272A273B27C901B80125C02230A9
:101B600008F0B7C0DCCF002329F0892F8F712EC079
:101B70000023D9F3892F8F710E94502FAAC0002310
:101B800081F0292F2F7181E090E0A0E0B0E0BC014E
:101B9000CD0104C0660F771F881F991F2A95D2F7C1
:101BA00003C060E070E0CB010E94E72292C00023F6
:101BB00081F0192F1F71812F0E948E2F28E0129F14
:101BC000C0011124836080937F06812F0E948E2F95
:101BD00080C081E02F870E94752F2F85223008F466
:101BE00078C082E00E94752F74C0002339F0222350
:101BF00009F4BBCF812F0E94D7256BC0222309F4A3
:101C0000B9CF893349F43FEF87EE93E031508040FC
:101C10009040E1F700C00000812F0E94702559C05C
:101C2000323FB1F028F4303F49F0313FF9F028C09D
:101C3000343FB9F058F0353F71F022C0002309F469
:101C400051C09091B40581E0892708C081E0082740
:101C50000093B40547C0011145C081E08093B405ED
:101C600041C001113FC01092B4053CC0002329F0CF
:101C70008091B305882329F329C0222311F332C0B0
:101C80008091B3052223C1F0882341F09091B405DF
:101C900081E089278093B4051092B305812F00233A
:101CA00019F00E94D7251EC00E94702586E0F6011B
:101CB00011928A95E9F716C08823A1F0011112C08C
:101CC0009091B40581E089278093B4051092B30503
:101CD00009C0F8E0AF1AB10804E0A016B10410F48E
:101CE0000E94A41BEE20D9F080917F0680FD17C0D2
:101CF000F60112828595859585950E948E2FC601E5
:101D00000E94CE0580917F068595859585950E94D8
:101D1000502F05C081E10C942C0665E302CC60963F
:101D20000FB6F894DEBF0FBECDBFDF91CF911F91EC
:101D30000F91FF90EF90DF90CF90BF90AF909F906A
:101D40008F9008959C013A9521153F4138F5DC01AB
:101D5000AA27B270AC01442754709C012227387026
:101D600094FF0FC090FF02C080E101C080E0AB2B68
:101D700009F08062452B09F08064232B69F08068AC
:101D80000BC0892F8170AB2B09F08260452B09F0C5
:101D90008460232B09F08860FB01099408953F9229
:101DA0004F925F926F927F928F929F92AF92BF926B
:101DB000CF92DF92EF92FF920F931F93CF93DF9317
:101DC00020E9289F7001299FF00C1124C0E0D0E089
:101DD00000E010E067018FEFC81AD80A570182E0CF
:101DE000A80EB11CFE01EE0DFF1DEA51FB4F6491E0
:101DF000F601EC0FFD1FEA51FB4F7491F501EC0F5A
:101E0000FD1FEA51FB4F8491611107C0711105C09C
:101E1000811103C020E040E042C00E94421D962E86
:101E2000372E882E6091260670E080E090E00E94B8
:101E3000763420E030E04FE753E40E94D5332B01A5
:101E40003C01682D70E080E090E00E9478349B01B6
:101E5000AC01C301B2010E9404350E944734862EB2
:101E6000692D70E080E090E00E9478349B01AC0125
:101E7000C301B2010E9404350E944734962E632D9F
:101E800070E080E090E00E9478349B01AC01C301D7
:101E9000B2010E9404350E944734282D492DC80103
:101EA0000E94F51B0F5F1F4F2396C039D10509F023
:101EB00099CFDF91CF911F910F91FF90EF90DF901D
:101EC000CF90BF90AF909F908F907F906F905F90DA
:101ED0004F903F900895CF93E82F873080F5809101
:101EE0000C0190910D01892B09F047C0CE2F64E6BB
:101EF00070E080E40E94A63290930D0180930C0163
:101F0000892BD1F464E670E082E10E94FD32909367
:101F10000D0180930C01892B79F481E090E001C0E0
:101F2000880FCA95EAF764E670E080950E94FD325A
:101F300090930D0180930C01CF910C94793390E034
:101F4000FC013797E730F105C0F4EA58FF4F0C94D5
:101F50009935209A289811C0219A29980EC0229A62
:101F60002A980BC0239A2B9808C0529A5A9805C0F9
:101F7000539A5B9802C03E9A4698CF910895CF93AA
:101F8000873008F03FC080910C0190910D01892BA2
:101F900009F041C064E670E080E40E94A6329093AC
:101FA0000D0180930C01892B11F0C0E027C064E67D
:101FB00070E083E10E94FD3290930D0180930C014B
:101FC000892B99F764E670E081E40E94A632909331
:101FD0000D0180930C01892B41F784E690E00E946B
:101FE0002D3397FF05C090930D0180930C01DDCF39
:101FF000C82FC09510920D0110920C010E947933E8
:102000008C2F0AC09FB18FB1807F86958695937083
:10201000892B809501C080E0CF910895CF93DF9305
:1020200026E0729FF001112444E5849FE00DF11D2C
:102030001124E60FF11DEE0FFF1FEC59FE4FC59165
:10204000D491CE01C238D10569F1B0F4C133D105C4
:1020500009F475C048F4C932D10509F469C0CA321F
:10206000D10509F473C085C0C533D10509F459C041
:10207000C933D105B9F07DC0C33ED10571F138F443
:10208000C03ED105B1F0C23ED10511F172C0C63ECD
:10209000D105B9F1C73ED105C9F1C43ED10509F05A
:1020A00068C024C04091800540FD5DC041FD5BC01B
:1020B00060C02091800520FD50C02091810520FF47
:1020C00054C18091800584FD4EC183EE90E04DC1E6
:1020D0002091800522FF49C1F4CF8091800582FDC7
:1020E0003FC08091810580FD3EC0EBCF20918105EE
:1020F00021FF3BC18091800584FD35C187EE90E0D2
:1021000034C12091800523FF30C1F4CF8091800538
:1021100083FD2CC08091810581FFECCF84EE90E09F
:1021200024C12091800525FF20C189E290E01DC1D6
:102130002091800525FF19C185E390E016C120910B
:10214000800526FF12C18AE290E00FC12091800530
:1021500026FF0BC181E390E008C189E390E005C14F
:1021600082EE90E002C180EE90E0FFC086EE90E04B
:10217000FCC0C11552E5D50708F074C0C11521E5B2
:10218000D20728F09C2F8827816F906AEEC0C83E46
:10219000D10570F5C03ED10508F0E7C0C83AD105B9
:1021A000B8F4C53AD10550F08C2F855AE82FF0E0ED
:1021B000EF5DFE4F808190E09064D7C0C130D105C3
:1021C00009F4D3C008F4CFC0249708F4CCC0CDC024
:1021D000CF3BD10508F0C7C08C2F885AE82FF0E01C
:1021E000EE0FFF1FEC5DFE4F808191819464BDC0B6
:1021F000C11540E2D40760F4C11551E0D50708F0DD
:10220000B4C0C03FD10508F4AEC0CE019065ADC0EA
:10221000C11580E4D80708F4A6C0C11590E5D90718
:1022200020F4CE019F70906AA0C04C2F437081E0D3
:1022300090E002C0880F991F4A95E2F79C68AE01B2
:10224000F4E056954795FA95E1F74370942B2C2FBF
:102250002F702695269550E2259F90011124822B00
:10226000932B83C0C11526E5D207E8F5C11545E5D6
:10227000D40748F08C2F0E94DC1D8F7190E0982FBE
:102280008827906272C0C11554E5D50728F09C2FAD
:102290008827846F906A69C08C2F86958695AE01D9
:1022A00043705527C115D34578F490E2899F90017A
:1022B000112481E090E002C0880F991F4A95E2F74F
:1022C000822B932B9C6851C090E2899F900111242E
:1022D00081E090E002C0880F991F4A95E2F7822BB7
:1022E000932B9A6842C0C1152AE5D20780F5C11523
:1022F00049E5D40718F18C2F8F700E94DC1D9E01D8
:1023000094E0369527959A95E1F72F7030E0322FBB
:1023100022273069A901482B0FC0CE0190568115A4
:10232000904208F58D2F8F710E94DC1D9E0133278E
:1023300030628F71A901582BCA0117C0C11558E529
:10234000D50788F09C2F8827806F906A0EC0C11532
:102350008BE5D80740F0C1159CE5D907F0F6CE0112
:102360009927906602C080E090E0DF91CF910895B8
:10237000FF920F931F93CF93DF93E82FF0E0EA5B78
:10238000F84FF490C82FC695C695C695D0E0FE01CB
:10239000EA5CF84F0491877010E0082E02C0159592
:1023A00007950A94E2F701701127FE01EA5DF84FE4
:1023B000C491D0E002C0D595C7958A95E2F7C17067
:1023C000DD270115110519F081EE0E94D725209710
:1023D00019F086EE0E94D7258F2D0E946426CD2B02
:1023E00019F086EE0E947025012B41F081EEDF91FD
:1023F000CF911F910F91FF900C947025DF91CF9199
:102400001F910F91FF900895CF93DF93EC010E94ED
:102410007025CE01805E9109089710F0209719F47D
:1024200062ED72E202C06DEB72E2CE01DF91CF91FC
:102430000C94A20ECF93DF93EC01805E9109089774
:1024400010F0209719F46DED72E202C068EC72E2B0
:10245000CE010E94A20E8C2FDF91CF910C94D72534
:10246000CF92DF92EF92FF926B017C010E940B2EC4
:1024700056985E9825982D9826982E9827982F98EC
:1024800090E0FC013197E730F105A8F4E358FF4FE5
:102490000C949935259A2D9A0EC0259A2D9A269A34
:1024A0002E9A09C0259A2D9A04C0259A2D9A269A0B
:1024B0002E9A279A2F9AC701B601FF90EF90DF90CE
:1024C000CF90089580E290E090930D0180930C01ED
:1024D0008091F70381110EC00E94A03281E08093A9
:1024E000F7032FEF83ED90E3215080409040E1F718
:1024F00000C0000064E670E080E40E94A632909381
:102500000D0180930C01892B09F04EC064E670E048
:1025100080E00E94FD3290930D0180930C01892B85
:1025200009F042C064E670E080E00E94FD329093C2
:102530000D0180930C01892BB9F564E670E08FE3FF
:102540000E94FD3290930D0180930C01892B61F55F
:102550000E94793364E670E080E40E94A632909392
:102560000D0180930C01892BF9F464E670E08CE096
:102570000E94FD3290930D0180930C01892BA1F4F0
:1025800064E670E080E00E94FD3290930D0180933C
:102590000C01892B49F464E670E08FE30E94FD3260
:1025A00090930D0180930C010E94793380910C016E
:1025B0000895CF93DF9356985E9825982D98269886
:1025C0002E9827982F98C8E8D0E08FEF90E0998355
:1025D0008883AAE8B0E011969C938E93ECE8F0E033
:1025E00091838083259A2D9A2FEF80E792E02150E6
:1025F00080409040E1F700C00000269A2E9A2FEF0D
:1026000080E792E0215080409040E1F700C0000058
:10261000279A2F9A2FEF80E792E021508040904038
:10262000E1F700C0000025982D982FEF80E792E099
:10263000215080409040E1F700C0000026982E987D
:102640002FEF80E792E0215080409040E1F700C0FA
:10265000000027982F9880916E0587702FEF829F3A
:10266000C00111249595879595958795992799830C
:10267000888311969C938E939183808356985E985D
:1026800025982D9826982E9827982F98DF91CF91EE
:10269000089584B1807F84B985B1807F85B98AB17E
:1026A000837F8AB98BB1837F8BB93E984698089512
:1026B00080B38C7080BB81B3836F81BB08954F92D0
:1026C0005F926F927F928F929F92AF92BF92CF92C2
:1026D000DF92EF92FF920F931F93CF93DF931F929E
:1026E000CDB7DEB780910C0190910D01892BA1F03F
:1026F0008091F6038F5F8093F60381110DC00E94D5
:10270000621290E090930D0180930C01892B21F4CB
:102710000E94991C0E94D91242E7E42E45E0F42E53
:1027200059E7C52E55E0D52E5701912C10E007E052
:10273000090D892D0E946B0F802F0E946B0F892D30
:102740000E94BF0FD5019C91981721F08C9388248B
:10275000839401C0812C802F0E94BF0FF6019081CD
:10276000981719F0808381E001C080E08829182B38
:102770000E9449139394FFEFAF1ABF0A2FEFC21ABA
:10278000D20A37E09312D3CF0E94D82C6AEF70E0C0
:102790000E947135BC01482F8091EE038823D9F146
:1027A0001092EE03E0916805F0916905DF011E9635
:1027B00090E08BEF3AEFA32EB12C20812B3F99F0C4
:1027C000C22ED12C421720F09B012C193D0905C0C7
:1027D00095012C193D09260F371F2E31310514F0B4
:1027E000808301C091E03196EA17FB0731F790939F
:1027F000EE03111102C0911110C01092ED0360910F
:102800006805709169059091EE03E5E8F5E080E0D8
:102810003EE03E0F32C01111F0CF8091ED038111E7
:10282000ECCF6091EF037091F0038091F1039091F0
:10283000F2030E94822C2FB7F894C0908806D090A3
:102840008906E0908A06F0908B062FBFC092EF03B6
:10285000D092F003E092F103F092F20340901F0651
:10286000509020066090210670902206AFEF4A1625
:102870005A066A067A06D1F43AC0D7012D917D0135
:102880005081521749F0DB015C915B3F21F44C937E
:10289000208391E001C081E06F5F7F4F31963E134E
:1028A000ECCF9093EE038093ED03BBCFAB01BC0163
:1028B000662777274A015B0180949094A094B09496
:1028C00084149504A604B70420F48FEF9FEFDC0175
:1028D00006C0DB01CA01840D951DA61DB71D80939E
:1028E0001F0690932006A0932106B0932206B09075
:1028F0008E06B11009C090912306892F837021F0B4
:10290000A92EA694A69401C0A12C80910901813022
:10291000A1F038F0823009F491C1833009F49BC1F1
:10292000ABC110921901C0921B06D0921C06E09216
:102930001D06F0921E0681E08BC180910B01A8124A
:1029400010C080912306837090E020910A0130E04E
:1029500051E040E08217930709F450E0252F342F0F
:1029600002C021E030E0822F817080931B018A2D0C
:1029700090E08631910508F04FC1FC01EC57FF4F04
:102980000C94993590911901232B09F445C1F92E26
:10299000FF0CFF0CF90E05E00F0D013308F000E30A
:1029A000F01608F0FAC020E040E060E08F2D90E0E3
:1029B0000E94F51BF394F4CF90911901D92EDD0CF0
:1029C000DD0CD90E05E00D0D013308F000E3609138
:1029D000240670912506809126060E94421DF62E3F
:1029E000E82ED01608F0D9C0ED2DF0E0DF01AD548F
:1029F000BC4F8C9190911A01982341F02E2D4F2DB0
:102A0000672FCF0179830E94F51B7981D394E9CF99
:102A100080911901982E990C990C980E05E0090DDA
:102A2000013308F000E3D0902506C09026062091DF
:102A3000270630E4329F312D1124901608F0ADC0E6
:102A4000E92CF12CF701ED54FC4F808190911A0193
:102A50009823C9F0F701EE0FFF1FEC5AFC4F90814D
:102A600092959F7060912406399F600D11247D2DF1
:102A70008C2D39830E94421D462F282F672FC701B6
:102A80000E94F51B39819394D8CF80911901982E1B
:102A9000990C990C980E05E0090D013308F000E33C
:102AA000D0902506C09026062091270650E4529F1C
:102AB000512D1124901608F070C0E92CF12CF7016B
:102AC000ED54FC4F908180911A018923E9F0F701C0
:102AD000EE0FFF1FED5AFC4F6081569FB00111248D
:102AE00095E0759567959A95E1F780912406680FB2
:102AF0007D2D8C2D59830E94421D462F282F672F34
:102B0000C7010E94F51B59819394D4CF809119017C
:102B1000D82EDD0CDD0CD80E05E00D0D013308F0CC
:102B200000E3F090240670912506E090260680913F
:102B30002706682F66956695669580911B0690918D
:102B40001C0679830E94371D0E94B51C8058982F5F
:102B500097FD9195990F292F3E2D239F212D11240B
:102B60006F2D7981822F0E94421DF62EE82ED016FD
:102B7000A0F4ED2DF0E0DF01AD54BC4F8C919091AD
:102B80001A01982341F02E2D4F2D672FCF01798305
:102B90000E94F51B7981D394EACF81E00033E8F1FC
:102BA0003BC08DE198E11AC081EF97E117C086EF35
:102BB00098E11FC087ED98E11CC08CEB98E11EC026
:102BC00081EA98E11BC08FEE97E108C086EE97E19D
:102BD00005C08DED97E102C082EC97E10E94B0271D
:102BE0001CC083EB97E10AC088E09DE102C080E948
:102BF00098E10E94542711C08CE798E10E94D826E2
:102C00000CC085E897E105C083E597E102C085E146
:102C100097E10E94772601C080E0909119019F5FA3
:102C200090931901811128C082E08093090180915D
:102C30001B01811121C0AA2051F01EC0A0920B01DE
:102C400080912306837080930A010E94461983E0D5
:102C50008093090111C060911B0670911C06809140
:102C60001D0690911E060E94822C6A317105810515
:102C7000910510F010920901B11026C080918E06C6
:102C8000811122C080916E0583FD1EC06091AC054C
:102C90007091AD058091AE059091AF050E940B2E0D
:102CA000823029F0833041F483E090E002C082E07A
:102CB00090E00E94CF0E08C080911A01811104C0DB
:102CC00040E060E00E94F31B2091B2058091F40384
:102CD0009091F503222309F43FC0892B31F4259804
:102CE0002D9826982E9827982F988091F4039091EC
:102CF000F5039170892B79F48091F303882319F0FF
:102D000026982E9802C0269A2E9A9091F30381E07D
:102D100089278093F3038091F4039091F503813028
:102D2000984780F01092B2056091AC057091AD05A6
:102D30008091AE059091AF050E9430121092F5037C
:102D40001092F4038091F4039091F503019690930F
:102D5000F5038093F40310C0892B71F01092F503F2
:102D60001092F4036091AC057091AD058091AE05B1
:102D70009091AF050E943012812F0F90DF91CF917B
:102D80001F910F91FF90EF90DF90CF90BF90AF9089
:102D90009F908F907F906F905F904F9008958033B9
:102DA000910540F5880F991F880F991FFC01E65A7D
:102DB000FE4F52813381808183707181A82FB0E0F2
:102DC000E0E98E9FC0011124825F9B4FFC01E70F59
:102DD000F11DB4976083FC01E50FF11DB4974083AA
:102DE000830F911DFC01B4972083FD01E45FFB4F2D
:102DF00081E080830895FF920F931F93CF93DF9319
:102E0000182F062FF42EC0E0D0E02F2D402F612F79
:102E1000CE010E94CF162196C033D105B1F7DF91C4
:102E2000CF911F910F91FF9008950F931F9310E082
:102E3000F801EE0FFF1FED5AFC4F9081905797FD60
:102E40009195000F111FF801EC5AFC4FE081F0E062
:102E5000B097DF01AA0FBB1F8D010E0F1F1F2003AC
:102E6000D001219FB00D1124E8E3F0E0E91BF10946
:102E700097FDF3959F01220F331F89010E0F1F1F2E
:102E800040039001419F300D11242A0F3B1F37FF53
:102E900002C021583F4F220F232F221F330B620FF6
:102EA0001F910F9108950F931F93522F10E0F80177
:102EB000EE0FFF1FEC5AFC4FE081F0E0B097EE0FF1
:102EC000FF1F9F015203D001539FB00D1124000F2B
:102ED000111FF801ED5AFC4F008110E00057110955
:102EE000000F111F40039001419F300D11242A0F44
:102EF0003B1F37FF02C021583F4F220F232F221FB5
:102F0000330B620F1F910F9108950F931F93522F50
:102F100010E0F801EE0FFF1FEC5AFC4FE081F0E0EB
:102F2000B0979F015203D001539FB00D1124000FA1
:102F3000111FF801ED5AFC4F008110E000571109F4
:102F400040039001419F300D11242A0F3B1F37FF92
:102F500002C021583F4F220F232F221F330B620F35
:102F60001F910F910895EF920F931F9393E0099F84
:102F700080011124159507956E2D600F1F910F91FB
:102F8000EF90089550E0FA01EE0FFF1FEC5AFC4F4E
:102F90009081905297FD9195440F551FFA01ED5A7B
:102FA000FC4F408150E0FA01E21BF1099F01290F1B
:102FB000311D97FD3A95620F0895E42FF0E0EE0F72
:102FC000FF1FEC5AFC4F6081621B0895E42FF0E074
:102FD000EE0FFF1FED5AFC4F6081621B0895622FB8
:102FE0000895E42FF0E0EE0FFF1FED5AFC4F4081F3
:102FF00034EE439F412D1124E82FF0E050E0445E71
:103000005F4FDA01A21BB1099D01B7FF03C03195E3
:103010002195310993E0220F331F9A95E1F7AF0113
:10302000421B530B9A0157FF02C020E030E0582F9B
:10303000259F212D1124822F0895E42FF0E0EE0F1B
:10304000FF1FED5AFC4F408134EE439F412D112468
:10305000E72FF0E050E0445E5F4FDA01A21BB109B8
:103060009D01B7FF03C031952195310993E0220FEF
:10307000331F9A95E1F7AF01421B530B9A0157FF9B
:1030800002C020E030E0279F212D1124722F0895E7
:10309000FC01CB01309721F477FF2CC080E8089524
:1030A0009F01F7FF04C0222733272E1B3F0BBC01D3
:1030B000621B730B280F391F97FD0DC0CB0145E034
:1030C000880F991F4A95E1F7B9010E94853580E282
:1030D000861B682F09C0C90125E0880F991F2A9512
:1030E000E1F70E948535605A862FF7FF02C081956F
:1030F0000895089580E00895EF920F93CF93DF93A2
:10310000D72FC82FC9010E19BA010E944818602F85
:10311000681B7D2F8C2FDF91CF910F91EF90089539
:103120000F93CF93DF93D72FC82FC901BA010E9405
:103130004818682F600F7D2F8C2FDF91CF910F9152
:103140000895EF920F931F93CF93DF93D62FC72F3E
:10315000182FC9010E19010FBA010E944818081B47
:10316000019F012D11246D2F7C2F802FDF91CF9196
:103170001F910F91EF900895EF920F931F93CF93AC
:10318000DF93D62F172FC82FC9010E19070FBA01C9
:103190000E944818081B702F719F712D11246D2FEC
:1031A0008C2FDF91CF911F910F91EF900895FF9297
:1031B0000F931F93CF93DF93F62ED72F182FC901AC
:1031C000C12FC01BBA010E944818982F880F980F72
:1031D0002C2F291B219F212D11246F2D7D2F822F14
:1031E000DF91CF911F910F91FF900895FF920F9360
:1031F0001F93CF93DF93F62E172FD82FC901C72F18
:10320000C01BBA010E944818982F880F980FC91B3D
:103210007C2F719F712D11246F2D8D2FDF91CF91F8
:103220001F910F91FF900895EF92FF921F93CF93FC
:10323000DF937B01182F110FC0E0D0E08C2F8C5D45
:103240008093F80320E030E0F901EC0FFD1FEE0D54
:10325000FF1D8081F901E850FC4F81832F5F3F4FB4
:103260002031310589F724E630E041E150E068EF94
:1032700073E0812F0E9452336096C039D105F1F678
:10328000DF91CF911F91FF90EF90089580910C04F2
:10329000882329F06EE074E084E70E9414191092EC
:1032A0000C0480910D04882329F06EE974E087E70F
:1032B0000E94141910920D040895E8EFF3E0608362
:1032C000418324E630E042E050E0BF01880F0C94D7
:1032D0005233FF920F931F93CF93DF93E62FF0E0CB
:1032E000EE5AFA4F90819923B1F0F82E82E1689F4F
:1032F000E001112400E010E0F801EC0FFD1FE25D99
:10330000FA4F4081602F8F2D0E945D190F5F1F4F74
:103310000231110589F7DF91CF911F910F91FF9035
:103320000895CF93DF93C82F4BE06DEF0E945D1996
:1033300040E06AE08C2F0E945D198FE39CE90197C1
:10334000F1F700C0000040E060E08C2F0E945D19A2
:1033500040E061E08C2F0E945D1940E066E08C2F18
:103360000E945D1940E06DEF8C2F0E945D19D0E046
:1033700040E06D2F8C2F0E945D19DF5FD231C1F7C5
:1033800040E06D2F8C2F0E945D19DF5FD432C1F7B2
:1033900040E06D2F8C2F0E945D19DF5FD43BC1F799
:1033A0004BE06DEF8C2F0E945D1941E06AE08C2F9D
:1033B0000E945D1940E06DEF8C2FDF91CF910C944E
:1033C0005D196F927F928F929F92AF92BF92CF9230
:1033D000DF92EF92FF920F931F93CF93DF930E94A0
:1033E000A03284E70E94911987E70E949119EDE5C8
:1033F000EE2EE1E0FE2EC12CD12CF2E17F2EA8E0D2
:103400008A2E912CAA24A394B12C66246394F701EC
:103410003297608170E0CB0184973196C081D0E013
:10342000A497D701EC91F0E0B497D601AA0FBB1F87
:10343000AA0FBB1FA65ABE4F2C91237030E0AC01DF
:1034400097FF02C0495F5F4F63E0559547956A95C6
:10345000E1F7729E8001739E100D1124040F111D5F
:10346000025D1A4FB4010E948535A50102C0440FC8
:10347000551F8A95E2F7CA01D8019C91892B8C933C
:10348000CE01D7FD079653E0959587955A95E1F7BC
:10349000729E8001739E100D1124080F111D025D94
:1034A0001A4FCE01B4010E948535A50102C0440F18
:1034B000551F8A95E2F7CA01D8019C91892B8C93FC
:1034C000CF01F7FD079643E0959587954A95E1F77B
:1034D000729EE001739ED00D1124C80FD11DC25DF4
:1034E000DA4FCF01B4010E948535A50102C0440F17
:1034F000551F8A95E2F7CA019881892B8883F901C3
:10350000EE5AFA4F60825FEFC51AD50A84E0E80EE2
:10351000F11CA0E3CA16D10409F079CF60E084E77A
:103520000E94691961E087E7DF91CF911F910F91A8
:10353000FF90EF90DF90CF90BF90AF909F908F90D3
:103540007F906F900C946919EF92FF920F931F93E5
:10355000CF93DF93CDB7DEB767970FB6F894DEBF92
:103560000FBECDBF4B8B5C8B6D8B7E8B8F8B0E8993
:103570001F8901151105C1F15F3F11F44F3FA1F102
:10358000E42EF12CA1E0B0E0042E01C0AA0F0A94B1
:10359000EAF7852F90E0662319F02091B40506C064
:1035A0009C01265A3A4FF90120812A232223A9F0AF
:1035B00046E0489F9001499F300D1124F701E20F2A
:1035C000F31FEE0FFF1FE65EFD4F40815181FC01AE
:1035D000E65AFA4F9081A92B06C0FC01E65AFA4F31
:1035E000A0958081A823A08386E0FE013D96DF019F
:1035F000982F1D929A95E9F74D875E876F87198BF3
:10360000088BDE01179601900D928A95E1F7CE01A5
:1036100007960E949123811137C086E0FE013796FC
:10362000DE01119601900D928A95E1F7FF81E88500
:103630006A857B856115710539F1EF3F11F4FF3F14
:1036400019F12091BB0530E0C901019687709927D7
:103650004091EC0550E08417950779F1F983EA83EE
:103660007D836C8396E0929FD001939FB00D1124CF
:10367000A454BA4FFE01319601900D929A95E1F74C
:103680008093BB050E942C2316E08091EC0590915D
:10369000BB05891701F1189FC001112484549A4F6A
:1036A0000E9491238823B9F08091EC0590E0019667
:1036B000877099278093EC05E8CF0E945B251092D4
:1036C000BB051092EC05E5EBF5E086E0DF011D920D
:1036D0008A95E9F7D9CF67960FB6F894DEBF0FBE8B
:1036E000CDBFDF91CF911F910F91FF90EF90089583
:1036F00020915805309159058217930771F09093E6
:10370000590580935805E0918205F0918305309723
:1037100021F00084F185E02D09940895209156054B
:10372000309157058217930771F090935705809356
:103730005605E0918205F0918305309721F00680CF
:10374000F781E02D09940895E0918205F0918305B9
:10375000309721F00190F081E02D099480E00895E8
:10376000CF93DF938091E5039091E603892B29F1B4
:103770008091E7039091E8030E94AE2C209107010D
:10378000309108012817390760F4C091E503D09102
:10379000E603D260CE010E941A12CE010E940412EA
:1037A00004C08091E5030E9464261092E803109201
:1037B000E7031092E6031092E503DF91CF9108959D
:1037C000882311F0FA0101C0FB01099480912306BE
:1037D000837011F410920901809123068C7F81601F
:1037E0008093230608950C94FB160C94CF1645E0A5
:1037F00050E06CE170E083E296E00C94A133E3E2E8
:10380000F6E0880F880F90819370892B8083109247
:1038100009010C94F71BE3E2F6E0248130E1231B5D
:1038200008F420E024830C94F71BE3E2F6E0248103
:1038300030E1230F08F42FEF24830C94F71BE3E20D
:10384000F6E0238130E1231B08F420E023830C946D
:10385000F71BE3E2F6E0238130E1230F08F42FEFBA
:1038600023830C94F71BE3E2F6E0228130E1231B73
:1038700008F420E022830C94F71BE3E2F6E02281B7
:1038800030E1230F08F42FEF22830C94F71BE3E2BF
:10389000F6E08181885081830C94F71BE3E2F6E027
:1038A0008181885F81830C94F71B90912306892F77
:1038B00086958695815C8F739370882321F0880F9D
:1038C000880F892B02C0892F84658093230610926C
:1038D00009010C94F71B90912306892F86958695F4
:1038E0008F5F8F739370863120F4880F880F892B38
:1038F00002C0892F846080932306109209010C94E2
:10390000F71B9091230696959695981720F0961799
:1039100010F40C946B1C0C94FF1BE3E2F6E081E3C3
:10392000808311828FEF828383838FE784830C945B
:10393000F71B0E94E11980E090E00E949B338F3ECC
:103940009E4F21F00E94972D0E948D1C45E050E073
:103950006CE170E083E296E00E947D338091230663
:103960008C7F11F40C948D1C0895482F982F46FDE0
:103970009095E92FEF739F7046FD9F5FE295EF7082
:10398000EE0FF0E0EE5AFE4F2181299F802D212D70
:10399000112482958F702295207F822B3081982F61
:1039A000930F892F47FD819580580895BC0182307F
:1039B000910508F40895613E8EE1780748F49B0173
:1039C00095E0369527959A95E1F748E0420F01C0BA
:1039D0004FEF91E0242F30E0290F311D35952795C9
:1039E000229FF001239FF00DF00D11246E177F0729
:1039F00018F44FEF420F05C02F3F310539F091E029
:103A0000920F491738F78FEF890F08958FEF0895B8
:103A10000F931F93CF93DF931F92CDB7DEB7182F6D
:103A200047FD4195E8E3F0E0CF01841B910947FD94
:103A30009395889FF001899FF00DF00D1124229F2E
:103A4000C001239F900D900D11248E0F9F1F79832D
:103A50000E94D61C982F880F980F692F600F7981CC
:103A6000812F0F90DF91CF911F910F91089520E04A
:103A700030E0A901869F412D969F400D511D1124D4
:103A8000CA010895AF92BF92CF92DF92FF920F9337
:103A90001F93CF93DF93D62E372FE82FF0E07111CD
:103AA00006C0EA53F84F6491762F862F75C0C72F52
:103AB000D0E0EA53F84F2491F22E022F10E046E0B6
:103AC000649FC0011124EFEFF0E0BF010E94713547
:103AD000AB016BEA6403C001659F900D11248D0D4D
:103AE000911D8D0D911D982F990F890FDF01AC1B32
:103AF000BD0B0A9FB0010B9F700D1A9F700D112412
:103B0000972F839FD0011124AB2FBB276F01CA1AB7
:103B1000DB0A0C9DD0010D9DB00D1C9DB00D112434
:103B20005F01A81AB108AC9E6001AD9ED00CBC9E8E
:103B3000D00C1124CD2DDD27EC1BFD0B0E9FE001D9
:103B40000F9FD00D1E9FD00D1124ED2F4230510537
:103B500091F04CF441155105E1F041305105B9F4B3
:103B6000E22F2B2F16C04430510569F044F0463047
:103B7000510579F00CC0E22F272F9D2F0AC0272F67
:103B80009F2DEB2F06C0E72F922F2D2F02C0E72F7E
:103B90009B2F6E2F722F892FDF91CF911F910F9145
:103BA000FF90DF90CF90BF90AF90089560916A052D
:103BB0008CE090E00C94B1339091800592FF0DC0A1
:103BC000282F2871283019F4877F846006C0282F99
:103BD0002471243011F48B7F886093FF0DC0282F4F
:103BE0002871283119F4877E846106C0282F24713A
:103BF000243111F48B7E88612091810520FF0DC056
:103C0000382F3871383019F4877F816006C0382F1B
:103C10003171313011F48E7F886021FF0DC0282F63
:103C20002871283119F4877E816106C0282F2171FF
:103C3000213111F48E7E886194FD877E08950F9363
:103C40001F93CF93DF93C62FD42F022FFC018281C5
:103C50008823C9F06093E9030E94D82C90935505FE
:103C60008093540580E28C0F883008F050C0C770F4
:103C700081E001C0880FCA95EAF7DF91CF911F91CB
:103C80000F910C94DD221091E903161330C080913E
:103C90005405909155050E94AE2C883C910538F54D
:103CA000C0E2CD0F1D17B9F080E2810F883040F4DB
:103CB000177081E001C0880F1A95EAF70E94D2229E
:103CC000C83048F481E09D2F977001C0880F9A9505
:103CD000EAF70E94DD22802F0E946426C830B8F4E3
:103CE000D77081E001C0880FDA95EAF70AC080E258
:103CF0008C0F883060F4C77081E001C0880FCA95CE
:103D0000EAF7DF91CF911F910F910C94D222DF91AE
:103D1000CF911F910F910895CF93DF9300D01F9201
:103D2000CDB7DEB790911106943019F589837B8366
:103D30006A8382E08093E9008FEF9091E8008150E0
:103D400095FD06C095ED9A95F1F700008111F5CF2C
:103D50008091E80085FF0DC040E050E063E070E036
:103D6000CE0101960E94FA278091E8008E77809319
:103D7000E8000F900F900F90DF91CF910895CF93AF
:103D8000DF93EC010E949832823011F0843031F4DC
:103D9000BE0184E0DF91CF910C948C1EDF91CF9116
:103DA0000895BC016058710983E00C948C1ECF9378
:103DB000DF93EC010E949832823011F08430F9F4E4
:103DC00082E08093E9009FEF8091E800915085FDAB
:103DD00006C085ED8A95F1F700009111F5CF80912D
:103DE000E80085FF0CC040E050E066E070E0CE01E6
:103DF0000E94FA278091E8008E778093E800DF9197
:103E0000CF910895CF93DF93EC010E9498328230D6
:103E100011F08430D9F580911801882339F0809110
:103E2000800587FF03C060E282E002C068E081E0B5
:103E30008093E9008FEF9091E800815095FD06C0D6
:103E400095ED9A95F1F700008111F5CF8091E8008A
:103E500085FF1CC080911801811105C040E050E031
:103E600068E070E003C070E040E050E0CE010E94E6
:103E7000FA278091E8008E778093E80080E2FE01C7
:103E8000AFEEB5E001900D928A95E1F7DF91CF9109
:103E90000895CF93DF93CDB7DEB7CA55D1090FB6DA
:103EA000F894DEBF0FBECDBF84B7877F84BF0FB647
:103EB000F894A895809160008861809360001092CA
:103EC00060000FBE90E080E80FB6F8948093610028
:103ED000909361000FBE85B7806885BF85B7806805
:103EE00085BF0E94F32F0E9498308091E200846089
:103EF0008093E2007894809111068823A1F01091BC
:103F0000E9001F709091EC00892F817090FD80E88E
:103F1000182B1092E9008091E80083FD0E9431285F
:103F20001F701093E90082E084BD93E095BD9AEF85
:103F300097BD80936E000E94621290E090930D01F5
:103F400080930C010E9449130E945813A2E7B5E028
:103F5000E5E8F5E00EE00E0F11921D920E13FCCF76
:103F60008EE090E00E949F358093680590936905EC
:103F7000FC010E962BEF2193E817F907E1F780E09B
:103F800090E00E949B338F3E9E4F11F00E94972D30
:103F90000E94991C8CE090E00E948D3390E0A0E09C
:103FA000B0E080936A0590936B05A0936C05B09385
:103FB0006D0589EA8093800089E0809381002498D0
:103FC0002C983F988AB18F7C8AB96E98479A8BB1AA
:103FD00080638BB9769A8FE090E00E94953360936E
:103FE0006E0570936F0580937005909371056770EF
:103FF0008FEF869FB001112475956795759567952C
:104000007727709389006093880070938B0060938A
:104010008A0070938D0060938C0090916E0594FFE0
:1040200003C080931A0102C010921A010E94D91293
:1040300080E090E00E949B338F3E9E4F11F00E94E3
:10404000972D82E090E00E948D3380939D050E9421
:10405000862D909381058093800583E090E00E94F7
:104060008D33682F70E080E090E00E9422230E9450
:10407000E61B0E94E61B0E94F71B8EE091E09093E6
:1040800083058093820511E041E4C42ED12CCC0E2F
:10409000DD1E42E0C40ED11C58E1A52EB12C80914A
:1040A0001106853009F053C040E060E080E00E94D6
:1040B000F31B10938E0680911106843049F1109203
:1040C000840580E40FB6F894A895A09260000FBE16
:1040D0008093600040E060E080E00E94F31B10935A
:1040E0008E0683B7817F846083BF83B7816083BF7F
:1040F0007894889583B78E7F83BF0FB6F894A89580
:1041000080916000886180936000109260000FBE13
:1041100080911006882309F4C2CF0E94621290E0B9
:1041200090930D0180930C010E9449130E94581333
:10413000E5E8F5E011920E13FDCF0E945F13E5E86C
:10414000F5E081918111B3C10E13FBCFA8CF0E947E
:104150005F13EEE9F5E0A5E8B5E0E12CF12C3E2D8A
:104160002D9191919227A1F180E099249394492D6A
:10417000492351F161968FAF619762963FAF629785
:10418000292181E009F480E063968FAF63970E9454
:10419000D82C8160782F65969FAF8EAF659761961A
:1041A0004FAD619762965FAD629763966FAD63970F
:1041B00065968FAD65970E94A41AF701E256FA4FF3
:1041C0008081982690822CC08F5F990C863079F67A
:1041D0008FEFE81AF80A9EE0E916F10409F0BFCF64
:1041E0008FEF66968FAF669767968FAF67976896E3
:1041F0001FAE68970E94D82C8160782F6A969FAF77
:104200008EAF6A9766964FAD669767965FAD679774
:1042100068966FAD68976A968FAD6A970E94A41AE8
:1042200080919A0590919B050E94AE2C9C019091E3
:104230009905992321F02431310508F47CC080913F
:104240009505F090960581110BC0F11050C1209199
:10425000970521114CC120919805211148C16BC0CF
:104260009F3F19F09F5F90939905181624F40E94C0
:10427000D12B809395058091950587FF05C00E94FD
:10428000D12B8195809395051F1424F40E94D12B86
:10429000809396058091960587FF05C00E94D12BDB
:1042A00081958093960530919505332301F12091F6
:1042B00096052223E1F045EB3403C0011124892F38
:1042C000990F990B009719F08093950502C01093F0
:1042D000950535EB2303C0011124892F990F990B04
:1042E000009719F08093960502C01093960580916F
:1042F0009705181624F40E94AF2B809397058091A0
:10430000970587FF05C00E94AF2B81958093970585
:1043100080919805181624F40E94AF2B809398057D
:104320008091980587FF05C00E94AF2B81958093EF
:1043300098050E94E42CF0909C050E94A41BF8169E
:1043400021F00E94A41B80939C058091110684306B
:1043500009F0A5CE8093E9008091E80082FF9FCE0E
:104360008091E80085FF26C00E941230882311F05A
:1043700091E021C080E4E82EF12CCE0101964C01A1
:104380008091E80085FD0AC08091E8008B778093DA
:10439000E8000E941230882349F0EACF8091F100B2
:1043A000F40181934F01F1E0EF1AF108E114F104F7
:1043B00039F7DECF90E08091E8008B778093E800BA
:1043C000992309F46CCE2981211114C08091B20582
:1043D000882359F11092B2051093B10522961FAEB1
:1043E000229723961FAE23978EEF24968FAF2497A4
:1043F00063E077C02130C9F422961FAE229723963E
:104400002FAF23978CE0E2ECF2E0D60101900D9201
:104410008A95E1F78EEF60968FAF60976FE0CE01DF
:104420008F5B9F4F0E94122B3ACE8091B10588235B
:10443000C9F1223019F02330C1F04FC06091AC05B2
:104440007091AD058091AE059091AF056B962FAF41
:104450006B970E940B2E22961FAE22976B962FAD64
:104460006B9723962FAF239714C08A81813031F048
:1044700038F0823091F51093B00502C01092B0056B
:1044800022961FAE229783E023968FAF23978091C9
:10449000B00524968FAF24978EEF25968FAF259782
:1044A00064E01FC08FEF22968FAF229719C080E182
:1044B00089BD82E189BD09B400FEFDCF8091D8009D
:1044C0008F7D8093D8008091E00082608093E0002F
:1044D0008091E00081FDFCCFE2CD22961FAF2297B4
:1044E00061E0CE018F5B9F4F0E94122BD8CD9F3F82
:1044F00009F0B8CEC0CE0E94E82E292F2F709295D9
:104500009F70E92FF0E03297EE30F105B8F4E656EF
:10451000FF4F0C949935803F99F018F4883E70F461
:104520000FC0843F59F40CC0883E50F0813F31F4F5
:1045300007C0822F869586958695089580E0089518
:1045400081E0089510928106109280060E94612EEB
:10455000E3E9F5E086E0DF011D928A95E9F7109224
:10456000990510928C060E94E42C80E090E00E9455
:104570008E1B80E090E00C94781B882341F080959E
:10458000909181068923809381060C94612E089571
:10459000882339F090918106892B809381060C94B1
:1045A000612E0895882341F0809590918206892399
:1045B000809382060C94612E0895882339F090919F
:1045C0008206892B809382060C94612E0895CF92E7
:1045D000DF92EF92FF92CF93DF9300D000D0CDB760
:1045E000DEB70E9430126B017C018091B0058823F8
:1045F00021F08091B105811115C0C092AC05D09217
:10460000AD05E092AE05F092AF050E94A2220F9098
:104610000F900F900F90DF91CF91FF90EF90DF9070
:10462000CF900895198282E08A83C701B6010E9463
:104630000B2E8B838EEF8C8364E0CE0101960E945B
:10464000122BDBCF609384067093850680938606D9
:10465000909387060C94A2228091EC059091BB0563
:10466000891719F08F5F8770FBCF08958091BA0585
:1046700082958F7009F054C08091B705882309F4A2
:104680004FC08091EC05A091BB056091B50570917C
:10469000B6054091B8055091B905B6E08A1709F4FE
:1046A0003FC090E041155105C1F17F3F11F46F3FCC
:1046B000A1F1B89FF001B99FF00D1124E454FA4F15
:1046C000218172132AC02081621327C02281211107
:1046D00024C0238134812417350710F42150310977
:1046E000241B350B283C3105C0F42091BA052F70EE
:1046F00020612093BA0526E0289FF001299FF00D44
:104700001124EF53FA4F80818F708061808385EB95
:1047100095E00E94CE050C942C2301968770BECFA5
:104720000895BF92CF92DF92EF92FF920F931F9363
:10473000CF93DF93CDB7DEB761970FB6F894DEBFA6
:104740000FBECDBF8C0185E0F801DE011D96019002
:104750000D928A95E1F7D8013C9111962C91119711
:104760001296EC9012971396CD90DC90149750917E
:10477000B5056091B6058091B8059091B90500978F
:1047800009F44FC16F3F19F45F3F09F44AC1B0907B
:10479000B705BB2009F4ECC04091BA05C816D9068C
:1047A00028F0F601E81BF90BCF0104C08095909525
:1047B0008C0D9D1DFF24F394883C910548F0F12C4D
:1047C000407F09F09FC085EB95E00E94CE0521C196
:1047D000842F807F09F044C0621312C0531310C0AD
:1047E000E1100EC04F7040614093BA0585EB95E033
:1047F0000E94CE058091BA05D80115968C932EC0E3
:10480000CD2819F12F3F11F43F3FF9F0FE2CE110B4
:104810001CC08091EC054091BB0556E0841709F45B
:1048200058C090E0589FF001599FF00D1124E454B6
:10483000FA4F6181261306C06081361303C062817E
:10484000611103C001968770E9CFFE2CEE2009F4B8
:1048500021C18091BA0581608093BA05F12C1AC1FB
:1048600062130AC0531308C0E11006C08091BA0554
:10487000D80115968C93B0C03D872E878D859E8577
:104880000E947B228823D1F1EE20C1F12091BA054C
:10489000822F82958F7090E0029774F08091B50519
:1048A0009091B60598878F831986DB86CA862C87F8
:1048B000CE0107960E94CE0586E0F801A5EBB5E093
:1048C00001900D928A95E1F70E943623FF24F3941C
:1048D000E1C03D872E878D859E850E94E82E292F79
:1048E00022952F7030E0223031050CF0C7C09F7048
:1048F00009F0C1C0805E883008F4CCC0C8010E94B5
:10490000CE05E4CF621314C0531312C0E11010C0DF
:104910008091BA05F8018583C8010E94CE0586E022
:10492000E5EBF5E0DF011D928A95E9F7FB2CB2C0BB
:104930003D872E878D859E850E947B228823F1F2FC
:10494000EE20E1F22091BA05822F82958F7090E0DF
:1049500002970CF4B1CF8091B5059091B6059A837A
:1049600089831B82DD82CC822E83CE010196A2CF69
:10497000C816D90638F0C81AD90AB8ECCB16D10433
:1049800050F007C0809590958C0D9D1D883C910539
:1049900010F0F12C3EC0FE2CEE2009F4AFCF6213D4
:1049A00027C0531325C02091BA0520FD18C0822FBF
:1049B00082958F70482F50E04115510581F0F80124
:1049C00025834F30510541F08F5F982F9295907F4E
:1049D000822F8F70892B8583C8010E94CE0586E0C7
:1049E000F801A5EBB5E001900D928A95E1F752C070
:1049F0003D872E878D859E850E947B2281115CCF0D
:104A00008091BA0581608093BA05C8010E94CE05E5
:104A100041C0E5EBF5E086E0DF011D928A95E9F7FC
:104A200039C0EE2009F46ACF3D872E878D859E859B
:104A30000E947B22F82E882309F460CF86E0F801DB
:104A4000A5EBB5E001900D928A95E1F78091B5054F
:104A50009091B6050E94E82E92959F70963041F491
:104A60008091B40591E089278093B4059093B305B4
:104A70000E9436230FC081113DCF0CC02430310578
:104A80000CF03CCF9F7009F435CFF8019581907FF1
:104A900009F030CF8F2D61960FB6F894DEBF0FBEB0
:104AA000CDBFDF91CF911F910F91FF90EF90DF90DD
:104AB000CF90BF90089510928206809118018823AC
:104AC00031F08091800587FF02C08EE101C086E051
:104AD000EAE2F6E0DF011D928A95E9F70C94A22242
:104AE000882309F463C0823869F40E94A41B81FF03
:104AF0005DC069E388E296E00E944E2D0E94612E1F
:104B000069E30EC0833891F40E94A41B80FF4EC05D
:104B100063E588E296E00E944E2D0E94612E63E5D7
:104B200088E296E00E94232D0C94612E843869F46B
:104B30000E94A41B82FF3AC067E488E296E00E94CC
:104B40004E2D0E94612E67E4EBCF9CEF980F913AB7
:104B500010F4682FE5CF90E2980F983088F48770B2
:104B600021E030E0A90102C0440F551F8A95E2F709
:104B7000CA01809590918206892380938206D4CFC2
:104B80009BE5980F933020F480E090E00C948E1B0E
:104B900098E5980F973120F480E090E00C94781B12
:104BA000803F20F00E942A2B0C94E42C0895882347
:104BB00009F489C08238B1F40E94A41B81FD83C02E
:104BC00069E388E296E00E944E2D0E94612E2FEF4D
:104BD00041EE54E0215040405040E1F700C0000059
:104BE00069E317C08338D9F40E94A41B80FD6BC011
:104BF00063E588E296E00E944E2D0E94612E8FEFC1
:104C000091EE24E0815090402040E1F700C0000088
:104C100063E588E296E00E94232D0C94612E84388F
:104C2000B1F40E94A41B82FD4EC067E488E296E0C6
:104C30000E944E2D0E94612E4FEF51EE84E04150B4
:104C400050408040E1F700C0000067E4E2CF9CEFF5
:104C5000980F913A30F4682F88E296E00E944E2D2A
:104C6000DCCF90E2980F983080F4877021E030E03C
:104C7000A90102C0440F551F8A95E2F7CA0190911D
:104C80008206892B80938206C8CFEBE5E80FE330DC
:104C900038F4F0E0E253FD4F808190E00C948E1BDD
:104CA000E8E5E80FE73148F4F0E0EE0FFF1FEF52C0
:104CB000FD4F808191810C94781B803F20F00E94F1
:104CC000F42B0C94E42C0895CF93C82F0E94D72581
:104CD000C93349F42FEF87EE93E021508040904094
:104CE000E1F700C000008C2FCF910C9470259F92AB
:104CF000AF92BF92CF92DF92EF92FF920F931F93EA
:104D0000CF93DF936C0180911901C82FCC0FCC0F8A
:104D1000C80FD5E0DC0FD13308F0D0E3609127064F
:104D20006695669580911B0690911C060E94371D22
:104D3000182F80E4810F0E94B51C90E8F92EF80E20
:104D4000812F0E94B51C20E8922E980ECD1700F5F9
:104D5000AC2EB12CF501ED54FC4F808190911A01DD
:104D60009823A1F060912406709125068091260673
:104D7000E12E0C2F292D4F2DF60109950E94421D81
:104D8000462F282F672FC5010E94F51BCF5FDECF6E
:104D900081E0D03308F080E0DF91CF911F910F9137
:104DA000FF90EF90DF90CF90BF90AF909F900895CD
:104DB0006F927F928F929F92AF92BF92CF92DF922B
:104DC000EF920F931F93CF93DF934C0180911901C2
:104DD000C82FCC0FCC0FC80FD5E0DC0FD13308F0B3
:104DE000D0E360912706669580911B0690911C0682
:104DF0000E94371D182FCD1708F044C06C2E712C5F
:104E0000F301ED54FC4F908180911A018923C1F187
:104E1000F301EE0FFF1FED5AFC4FC080D12C80E74D
:104E2000C81AD108F301EE0FFF1FEC5AFC4FA08007
:104E3000B12CE0E2AE1AB108CC9C9001CD9C300DB3
:104E4000300D1124AA9CC001AB9C900D900D112433
:104E5000820F931F0E94D61C082F60912406709128
:104E6000250680912606E12E9501A601F4010995FB
:104E70000E94421D462F282F672FC3010E94F51B59
:104E8000CF5FB9CF81E0D03308F080E0DF91CF91E0
:104E90001F910F91EF90DF90CF90BF90AF909F90B8
:104EA0008F907F906F900895CF92DF92EF92FF9254
:104EB0000F931F93CF93DF937C0180911901C82F2B
:104EC000CC0FCC0FC80FD5E0DC0FD13308F0D0E306
:104ED00060912706669580911B0690911C060E94A2
:104EE000371D182FCD1778F5CC2ED12CF601ED54A7
:104EF000FC4F908180911A01892319F1F601EE0F80
:104F0000FF1FEC5AFC4F208130E020523109F6019E
:104F1000EE0FFF1FED5AFC4F408150E04057510902
:104F2000609124067091250680912606012FF701D5
:104F300009950E94421D462F282F672FC6010E9407
:104F4000F51BCF5FCFCF81E0D03308F080E0DF9159
:104F5000CF911F910F91FF90EF90DF90CF90089528
:104F6000DF92EF92FF920F931F93CF93DF937C0119
:104F700090911901C92FCC0FCC0FC90FD5E0DC0FD0
:104F8000D13308F0D0E3609127066695669580914D
:104F90001B0690911C060E94371DD82ECD17F0F4E9
:104FA0000C2F10E0F801ED54FC4F808190911A0114
:104FB000982391F060912406709125068091260631
:104FC0002D2D4C2FF70109950E94421D462F282FA9
:104FD000672FC8010E94F51BCF5FE0CF81E0D0337F
:104FE00008F080E0DF91CF911F910F91FF90EF903B
:104FF000DF900895CF92DF92FF920F931F93CF938C
:10500000DF931F92CDB7DEB7F82E8B0199830E94F4
:105010001230998181111CC0CF2CD92E0115110598
:10502000B1F08091E80085FD0AC08091E8008E779C
:105030008093E8000E941230882381F309C0F601B2
:1050400081916F018093F10001501109E7CF80E059
:105050000F90DF91CF911F910F91FF90DF90CF9034
:1050600008951F93CF93DF93CDB7DEB7AA970FB6FE
:10507000F894DEBF0FBECDBFE3E1F6E088E08E0F0F
:105080009091F10091938E13FBCF8091140689309B
:10509000B9F150F4823009F4A5C0833009F45FC03F
:1050A000813009F0EEC00CC08B3009F470C008F4F8
:1050B00088C0823409F4AEC0853409F4C5C0E1C0AB
:1050C00080911306813A09F0DCC08091E800877F67
:1050D0008093E8008091170690911806892B21F49F
:1050E00060E28FEE95E003C060E080E090E070E069
:1050F0000E9435328091E8008B778093E800C1C030
:1051000080911306813209F0BCC0809117069091FE
:105110001806029708F0B5C08091E800877F809359
:10512000E8008091E80082FD05C0809111068111A0
:10513000F8CFA7C02091F3008091F20090E0922B6D
:10514000029729F48091F1008B7F813021F48091C6
:10515000F1008093EE058091E8008B7758C0809134
:105160001306813A09F08DC08091170690911806B8
:10517000892B09F086C08091E800877F8093E80042
:105180008091E80080FFFCCF809118013BC08091A6
:105190001306813209F075C08091170690911806A8
:1051A000892B09F06EC08091E800877F8093E8002A
:1051B0000E94443080911506809318010E945B255F
:1051C00060C080911306813209F05BC08091E800D5
:1051D000877F8093E8000E94443080911606809378
:1051E000ED054FC080911306813A09F04AC08091C5
:1051F000E800877F8093E8008091E80080FFFCCF83
:105200008091ED058093F1008091E8008E77809386
:10521000E8002FC080911306803C99F58091170615
:1052200090911806029741F5809115069091160607
:10523000892B11F58091E800877F8093E8006BE16E
:1052400070E088E799E013C080911306803CC9F4B0
:105250008091170690911806079771F48091E800E5
:10526000877F8093E80062EB70E086EC98E00E9414
:10527000D4310E94443005C08091EB00806280935D
:10528000EB008091E80083FFA2C18091130690910A
:105290001406492F50E04A30510508F098C1FA0130
:1052A000E855FF4F0C949935803821F0823809F089
:1052B0008EC108C080910F0690911006992389F045
:1052C00082600FC0809117068F70873008F07FC111
:1052D0008093E9008091EB0085FB882780F910928C
:1052E000E9009091E800977F9093E8008093F100A7
:1052F0001092F10036C1282F2D7F09F068C1882354
:1053000019F0823061F063C180911506813009F097
:105310005EC1933009F080E0809310062EC080912A
:10532000150681112AC0809117068F702FEF280F64
:10533000263008F04CC18093E9002091EB0020FF5B
:105340001CC0933021F48091EB00806214C09091D6
:10535000EB0090619093EB0021E030E0A90102C0E6
:10536000440F551F8A95E2F74093EA001092EA0035
:105370008091EB0088608093EB001092E9008091AF
:10538000E800877FF1C0811122C1109115061F77B7
:105390008091E3008078812B8093E3008091E80086
:1053A000877F8093E8000E9444308091E80080FF6E
:1053B000FCCF8091E30080688093E300111102C06C
:1053C00082E001C083E08093110601C180588230E1
:1053D00008F0FDC080911506909116068C3D53E0B3
:1053E000950779F583E08A838AE289834FB7F89439
:1053F000DE01139620E03EE051E2E32FF0E050930F
:105400005700E49120FF03C0E295EF703F5FEF701B
:105410008E2F90E0EA3010F0C79601C0C0968D93B1
:105420009D932F5F243149F74FBF8091E800877F1C
:105430008093E8006AE270E0CE0101960E94353266
:105440007EC04091170650911806292F332723302C
:10545000310511F16CF42130310509F4C7C0223057
:10546000310509F0B4C062E570E084E99AE060C0FB
:105470002132310509F43EC02232310509F447C01A
:105480002F30310509F0A3C0E6E2FBE0E4916E2F76
:1054900070E084E29BE048C0992781309105D1F00B
:1054A0005CF4892B09F093C0E0E2FBE0E4916E2FFD
:1054B00070E080E29BE038C08230910599F003975C
:1054C00009F085C0E8EFFAE0E4916E2F70E088EF14
:1054D0009AE02AC0E6E1FBE0E4916E2F70E086E1FD
:1054E0009BE022C0EEEFFAE0E4916E2F70E08EEFC9
:1054F0009AE01AC04115510509F47DC041305105AB
:1055000009F065C069E070E08FEB9AE011C04115C9
:10551000510509F475C04130510509F058C060ECDF
:1055200070E084E999E004C06115710509F44FC089
:105530002091E800277F2093E8000E94D4318091D9
:10554000E8008B778093E80042C0803809F03FC0C4
:105550008091E800877F8093E80080911206809315
:10556000F1008091E8008E778093E8000E9444303B
:105570002EC081112CC010911506123040F580917B
:10558000E800877F8093E800109312060E94443061
:10559000111106C08091E30087FD02C081E001C0C7
:1055A00084E08093110642E061EC81E00E94633068
:1055B00042E261EC82E00E94633042E361EC83E00E
:1055C0000E94633042E360EC84E00E94633080918B
:1055D000E80083FF1AC08091E800877F8093E8008D
:1055E0008091EB0080628093EB000FC062E170E07D
:1055F00086EE9AE09DCF69E070E086EA9AE098CF67
:1056000060E470E084E59AE093CFAA960FB6F89430
:10561000DEBF0FBECDBFDF91CF911F910895809166
:10562000EE05089520911106243099F423E020938B
:10563000E90070E040E050E00E94FA27882321F062
:105640001092B1051092B2058091E8008E77809398
:10565000E8000895803F39F48091960587FF6CC07B
:105660001092960569C0813F29F48091960518161D
:10567000BCF362C090919505823F29F497FF5CC00E
:105680001092950559C0833F19F41916CCF354C0F4
:10569000893F41F48091970518160CF04DC0109287
:1056A00097054AC08A3F29F48091970587FF44C037
:1056B000F6CF8B3F39F48091980587FF3DC010925B
:1056C00098053AC08C3F29F4809198051816BCF3D0
:1056D00033C0843F21F4809194058E7F17C0853FAD
:1056E00021F4809194058D7F11C0863F21F4809133
:1056F00094058B7F0BC0873F21F480919405877FB1
:1057000005C0883F31F4809194058F7E8093940585
:1057100013C08D3F21F480918C068E7F0BC08E3F8D
:1057200021F480918C068D7F05C08F3F29F48091F4
:105730008C068B7F80938C068091950581110EC01D
:105740008091960581110AC080919705811106C04C
:1057500080919805811102C0109299050895809159
:105760008C0680FD16C081FD16C082FD18C0809198
:105770009905882391F0883290F428E0829FC00137
:10578000112468E270E00E948535862F672B29F08E
:1057900007C082E0089584E0089581E0089588E0DC
:1057A000089580918C0680FD17C081FD17C082FD91
:1057B00019C080919905882399F08C3398F423E2DD
:1057C000829FC00111246CE370E00E948535862F12
:1057D000672B49F481E0089588E0089581E10895F8
:1057E00085E0089583E20895803F21F40E94D12B43
:1057F000819504C0813F29F40E94D12B80939605A6
:105800000895823F21F40E94D12B819504C0833FEB
:1058100029F40E94D12B809395050895893F19F4AE
:105820000E94AF2B05C08A3F31F40E94AF2B8195B7
:105830008093970508958B3F21F40E94AF2B8195AB
:1058400004C08C3F29F40E94AF2B809398050895E3
:10585000843F21F480919405816017C0853F21F435
:1058600080919405826011C0863F21F48091940557
:1058700084600BC0873F21F480919405886005C047
:10588000883F31F480919405806180939405089558
:105890008D3F21F480918C0681600BC08E3F21F4F6
:1058A00080918C06826005C08F3F29F480918C0620
:1058B000846080938C06089578941F920F920FB69F
:1058C0000F9211248F939F93AF93BF93809188067B
:1058D00090918906A0918A06B0918B060196A11D30
:1058E000B11D8093880690938906A0938A06B09391
:1058F0008B06BF91AF919F918F910F900FBE0F902C
:105900001F901895CF92DF92EF92FF920F931F9303
:105910002FB7F894C0908806D0908906E0908A0648
:10592000F0908B062FBF97018601061B170B280BE3
:10593000390BC616D706E806F90618F0C901B801F2
:1059400006C0C901B80161507109810991091F910F
:105950000F91FF90EF90DF90CF900895CF92DF925C
:10596000EF92FF920F931F932FB7F8944091880600
:105970005091890660918A0670918B062FBF6A014B
:105980007B01EE24FF248C0120E030E0C016D1061C
:10599000E206F30610F4415051099A01281B390B15
:1059A000C9011F910F91FF90EF90DF90CF90089564
:1059B0002FB7F8948091880690918906A0918A0665
:1059C000B0918B062FBF0895E0918205F091830579
:1059D000309749F082E0809393050480F581E02DB3
:1059E00083E995E009950E94D82C90939B058093BC
:1059F0009A0508951F920F920FB60F9211248F935C
:105A00009F93AF93BF9380918405811113C08091C0
:105A1000880690918906A0918A06B0918B064196DE
:105A2000A11DB11D8093880690938906A0938A06D4
:105A3000B0938B06BF91AF919F918F910F900FBE46
:105A40000F901F90189520911801222321F020918A
:105A5000800527FD04C0FC013296089619C0262F48
:105A60002695269526952E31C0F4FC01E20FF11DF6
:105A7000677081E090E001C0880F6A95EAF7809531
:105A800092818923828308953196E817F90729F0D6
:105A900020812613F9CF1082F7CF089520911801A5
:105AA000222321F02091800527FD05C0FC013296BC
:105AB0002FEF30E019C0262F2695269526952E31FA
:105AC00020F5FC01E20FF11D677081E090E001C05C
:105AD000880F6A95EAF79281892B828308952F3F78
