:100000000C944B050C9468050C9468050C946805D9
:100010000C9468050C9468050C9468050C946805AC
:100020000C9468050C9468050C94771E0C944B1D79
:100030000C9463240C9468050C9468050C94680572
:100040000C9468050C9468050C9468050C9468057C
:100050000C9468050C94F1230C9468050C946805C5
:100060000C9468050C9468050C9468050C9468055C
:100070000C9468050C9468050C9468050C9468054C
:100080000C9468050C9468050C9468050C9468053C
:100090000C9468050C9468050C9468050C9468052C
:1000A0000C9468050C9468050C946805FA09030A19
:1000B000080A0D0A120A170A1C0A210A260A2B0A24
:1000C000300A9A06370A3A0A3D0A400A430A9C0651
:1000D000460A4B0ADC0ADC0A160B160B610B7D0B79
:1000E000460DA60DBF0B9D0CAE0CAE0C210F240FC0
:1000F000270F2A0F2D0F300F330F7A117F1189111F
:100100007D11821187118511F71311143C147A1493
:10011000BC140315061509150C150F151215151528
:1001200018151B151E152315261529152E15331503
:1001300036153915A927A927BC27BC27B227BC2704
:10014000BC27BC27A927A927B727BC27BC27B727C7
:10015000902DB72D592FB72D592FFF2D222E592F06
:100160001D2F302F2E002B002900D75C35420000B8
:100170001E00140004001D00E3004D001F001A00C3
:1001800016001B00E1042A002000080007000600FA
:1001900050002C6121001500090019004F004A0091
:1001A000220017000A000500000065640453035391
:1001B00000002F000000E300015302530000300054
:1001C0000000C25C23001C000B00110000000A5D4F
:1001D000240018000D00100052002E0025000C0015
:1001E0000E00360051002864260012000F00370070
:1001F00004514C00270013003344380003512D00F4
:100200002D0031003400D85C0251000001000100D3
:1002100001000100010000000100010001000100D7
:1002200001000100010001001500010001000100B2
:100230000100090016000100010001000100130087
:10024000170001000100010001000A000700010081
:100250000000010001000100000001000000010099
:1002600001000100000001000000010001000D007C
:1002700001000E000000010001000F00110001004C
:100280000100010001001800080001000100010048
:1002900001001C000C0001000100010001003300FE
:1002A0001200010001000100010001000100010035
:1002B0000100000029000100010001000100000010
:1002C0003A001E02200222022E000E5D3B001F0299
:1002D000210223020100C95C3C002F0226022F00EC
:1002E0000100CA5C3D0030022702300001000D5DB4
:1002F0003E003102350035020000C35C0100010000
:100300000000010000000C5D010001000000010080
:100310000000C25C3F0052005100240200000B5D4F
:100320004000240021001E000100010041002500C2
:1003300022001F003700C55C420026002300200079
:100340000100C65C430025022E02310001000100BD
:1003500044004500340201000100000001000100DA
:1003600001000100010000003A000100E1001D0150
:10037000010001003B00F900FA001B01010001002F
:100380003C00B600E0000601010001003D00B7009E
:10039000E2001901010001003E000100010001001E
:1003A0000000010001000100000001000000010048
:1003B0000100010000000100000001003F004B00AF
:1003C0004E0001000000010040004A005000010002
:1003D0000100010041005200510001000100010034
:1003E00042004D004F0001000100010043004C009D
:1003F0002A00010001000100440045000100010045
:1004000001000000010001000100010001000000E6
:1004100001000100010001000100010001000100D4
:10042000F2000100010001000100F000F1000100F4
:10043000F400010001000100F3000100F5000100DB
:1004400001000100010001000000010001000100A5
:100450000000010000000100010001000000010097
:100460000000010001000100010001000000010086
:100470000100010050000100A9000100010052002C
:100480005100AC00AA000100010001004F00AB00C8
:100490000100010001000100010001000100010054
:1004A000005C0100AE00010001000000000000003F
:1004B000000000000000000000000000000000003C
:1004C0007E0F00D4FFFFFFC700000078000000008F
:1004D000000000002A2B280000000000000000009F
:1004E0000000000000000029000000002C1E342045
:1004F000212224342627252E362D3738271E1F206B
:100500002122232425263333362E37381F040506AF
:100510000708090A0B0C0D0E0F10111213141516F3
:100520001718191A1B1C1D2F3130232D35040506F1
:100530000708090A0B0C0D0E0F10111213141516D3
:100540001718191A1B1C1D2F3130354C00000000E4
:10055000000000000000000000000000000000009B
:10056000000000000000000000000000000000008B
:10057000000000000000000000000000000000007B
:10058000000000000000000000000000000000006B
:10059000000000000000000000000000000000005B
:1005A000000000000000000000000000000000004B
:1005B000000000000000000000000000000000003B
:1005C000000000000000000000000000000000002B
:1005D000000000000000000000000000E9DAD9FF80
:1005E000DCC90EDEF20EDEF20EDEF2CDFFFFE9DA3E
:1005F000D9FFDCC90EDEF20EDEF2B4FFE9CDFFFF5B
:10060000E9DAD9FFDCC90EDEF2B4FFE9B4FFE9CDC7
:10061000FFFFE9DAD9FFDCC9B4FFE9B4FFE9CDFF98
:10062000FFE9DAD9E9DAD9FFDCC90EDEF20EDEF233
:100630000EDEF2CDFFFFE9DAD9FFDCC90EDEF20EE5
:10064000DEF2B4FFE9CDFFFFE9DAD9FFDCC90EDE47
:10065000F2B4FFE9B4FFE9CDFFFFE9DAD9FFDCC965
:10066000B4FFE9B4FFE9CDFFFFE9DAD900000000EB
:10067000000000000000000000000000000000007A
:10068000000000000000000000000000000000006A
:10069000000000000000000000000000000000005A
:1006A000000000000000000000000000000000004A
:1006B000000000000000000000000000000000003A
:1006C000000000000000000000000000000000002A
:1006D000000000000000000000000000000000001A
:1006E000000000000000000000000000000000000A
:1006F000000000000000000000000000CDFFFFCD62
:10070000FFFFCDFFFFCDFFFFCDFFFF86FFD586FFAB
:10071000D521FFFF86FFD5F3DEEA86FFD521FFFF57
:1007200021FFFF21FFFFF3DEEA00000000000000D0
:1007300000000000000000000000000000000000B9
:1007400000000000CDFFFFCDFFFFCDFFFFCDFFFF7D
:10075000CDFFFF0000000AE1FF0AE1FF21FFFF00DB
:10076000000000000055CB9E55CB9E21FFFF55CBCE
:100770009E0000000AE1FF0AE1FF0AE1FF0AE1FF33
:100780000000000000000000000000000000000069
:100790000000000000000000000000000000000059
:1007A000008DFFE90000000000000000008DFFE95F
:1007B0008DFFE98DFFE900006400000000000021CA
:1007C000FFFF21FFFF00000021FFFF21FFFF21FFAE
:1007D000FF0000000000000000000000000000001A
:1007E0000000000000000000000EFFFF00000000FD
:1007F00000000000000EFFFF0EFFFF0EFFFF0000D5
:1008000000000000000000000000000000000000E8
:1008100021FFFF21FFFF0000000000000001010197
:1008200001010101010102020202020202020203AD
:10083000030303030303030404040404040405057D
:100840000505050606060606070707070708080840
:1008500008090909090A0A0A0B0B0B0C0C0C0D0DEF
:100860000D0E0E0E0F0F0F10101111111212131387
:100870001414151516161717181819191A1A1B1B00
:100880001C1D1D1E1E1F202021222223242425265C
:1008900026272829292A2B2C2D2D2E2F3031323294
:1008A000333435363738393A3B3C3D3E3F404142A0
:1008B000434445464748494A4C4D4E4F5051535486
:1008C000555658595A5B5D5E5F616264656668693A
:1008D0006B6C6D6F7072737577787A7B7D7E8082BA
:1008E000838587888A8C8E8F91939596989A9C9E03
:1008F000A0A2A3A5A7A9ABADAFB1B3B5B7BABCBE13
:10090000C0C2C4C6C9CBCDCFD1D4D6D8DBDDDFE2DF
:10091000E4E7E9EBEEF0F3F5F8FAFDFF0501090273
:10092000A10185020901A100050919012905150088
:100930002501950575018102950175038101050168
:10094000093009311581257F95027508810609381E
:100950001581257F950175088106050C0A38021559
:1009600081257F950175088106C0C005010980A118
:100970000185031A81002A830016010026030095D1
:100980000175108100C0050C0901A10185041A013F
:10099000002A9C02160100269C0295017510810018
:1009A000C005010906A1018505050719E029E7151C
:1009B0000025019508750181020507190029EF1529
:1009C00000250195F0750181020508190129059599
:1009D0000575019102950175039101C00501090694
:1009E000A101050719E029E7150025019508750102
:1009F00081029501750881010507190029FF15007D
:100A000026FF00950675088100050819012905953E
:100A10000575019102950175039101C009023B0022
:100A2000020100A0FA0904000001030101000921EC
:100A3000110100012240000705810308000A090492
:100A40000100010300000009211101000122C00082
:100A50000705820320000A1201100100000008EDC2
:100A6000FE07130100010203010403300000001619
:100A7000034500720067006F0064006F007800207B
:100A80000045005A00000008035A005300410000CE
:100A900000040309040011241FBECFEFDAE0DEBF1B
:100AA000CDBF13E0A0E0B1E0E6E3FDE602C00590B3
:100AB0000D92AA3AB107D9F726E0AAEAB3E001C03D
:100AC0001D92A335B207E1F70E94B81F0C94993626
:100AD0000C9400004F925F926F927F928F929F9240
:100AE000AF92BF92CF92DF92EF92FF920F931F933C
:100AF000CF93DF93CDB7DEB72D970FB6F894DEBF57
:100B00000FBECDBFFC010081F18083819481892BD0
:100B100039F01FEFF11206C091E00F3F19F403C046
:100B200091E001C090E090FF02C00C94C60D6F01EF
:100B300085E0DE01199601900D928A95E1F7F601A4
:100B4000228189859A85222349F00E940A26182F3E
:100B5000682F89859A850E94842603C00E945726A3
:100B6000182F24E5129FF001112436E0F39EE00DCA
:100B7000F11D1124E00FF11DEE0FFF1FEC59FE4F88
:100B800005911491F60182810930FDE51F0759F0A6
:100B90000A302DE5120709F446C0023C3CE5130774
:100BA00009F08AC062C0882309F4CAC09091310557
:100BB00081E0890F8770987F853020F4892B80939E
:100BC000310502C090933105809131058770EFEFB8
:100BD0008E9FC001112495958795959587959927A6
:100BE000909389008093880090938B0080938A0073
:100BF00090938D0080938C00409131055091320587
:100C000060913305709134058FE090E00E94A4302C
:100C10006091000670910106809102069091030692
:100C20000E9460118DC0882309F48AC0809131052B
:100C300083FB222720F991E0922790FB83F9809390
:100C40003105992329F040E060E080E00E94DB1A42
:100C50004091310550913205609133057091340512
:100C60008FE090E00E94A4306BC0882309F48EC707
:100C700090911A01809131059F3F59F410921A0109
:100C80008F7E8093310540E060E080E00E94DB1AB7
:100C900006C09FEF90931A018061809331054091C7
:100CA00031055091320560913305709134058FE024
:100CB00090E00E94A4306AC70C30FDE51F0799F050
:100CC00028F40B303DE5130751F03AC00D309DE597
:100CD000190789F00E30EDE51E07F9F031C08823C1
:100CE00009F454C727C0882309F450C781E00E9443
:100CF000E71A8CEA19C0882309F448C781E00E94EA
:100D0000E71A86E580934B068FEF80934C0680E8C8
:100D100080934D060E94DF1A39C7882309F436C72D
:100D200081E00E94E71A8BE180934B068FEF80935E
:100D30004C06EECF81E001C088E10E94E71A26C789
:100D4000F6018281882319F1033EFCE51F07C1F0FB
:100D500050F4013E3CE5130781F0023E8CE5180794
:100D6000B1F481E010C0043E9CE5190759F0053E3E
:100D7000ECE51E0761F484E006C010922D0505C065
:100D800082E001C083E080932D050E94B21C17FF12
:100D90006DC0F6018281882309F468C0809107063E
:100DA0008093AA031092070680912D05813071F07F
:100DB00048F08230A1F08430C1F486EE0E94EA2A25
:100DC00088E111C082EE0E945D2A0FC088E193E0A5
:100DD0000E944A1188E193E00E94341106C082EE1D
:100DE0000E945D2A87E50E94EA2A8FE39CE9019729
:100DF000F1F700C000005801E894B7F83CE0E32E9A
:100E0000F12CC5010E2C02C0969587950A94E2F745
:100E1000282F2F7041F0822F90E02A3010F44D9649
:100E200004C0069702C087E290E00E94EA2A94E09C
:100E3000E91AF108ECEFEE16EFEFFE0611F78091DC
:100E40002D05813039F040F0823031F0843051F49A
:100E500088E206C08CE204C082EE0E94F62902C03D
:100E60000E94EA2A8091AA0380930706F6019281E4
:100E7000992309F421C10436110509F404C190F441
:100E80000B32110509F4FFC0C8010C32110528F41A
:100E90000497849708F010C1F6C08D970C9708F05E
:100EA0000BC1F1C00931FCE51F0749F180F407319E
:100EB0003CE51307C9F008318CE5180709F0FCC0C0
:100EC00020910701309108012550310913C00B31E1
:100ED000ECE51E0709F4CEC008F4C8C00C312CE5BF
:100EE000120709F4CBC0E8C0209107013091080136
:100EF0002B5F3F4F3093080120930701E5C080919D
:100F000008018F93809107018F938FE191E09F9368
:100F10008F931F9288E08F93CE0101967C019F935F
:100F20008F930E94A1330FB6F894DEBF0FBECDBFE2
:100F30002AE0622EF7012081222309F4C0C021306B
:100F400009F051C08181813059F45701F2E0AF0EB0
:100F5000B11CF701F2808F2D0E945D2A8F2D14C0E5
:100F6000823051F45701F2E0AF0EB11CF7018281DB
:100F70000E945D2A750176C0833049F45701F2E082
:100F8000AF0EB11CF70182810E94F629F3CF8430A5
:100F900021F0FFEFEF1AFF0A65C0F7012281C701B8
:100FA00002967C0180E090E030E0205331092A3045
:100FB000310570F4689EA001699E500D1124C9018D
:100FC000840F951FEFEFEE1AFE0AF7012081ECCF98
:100FD000009709F447C0EFE9FFE03197F1F700C04F
:100FE00000000197F5CFE22FF0E0E453FB4F74903F
:100FF000822F86958695869590E0FC01E454FB4F00
:1010000084902770912C022E02C0959487940A94A4
:10101000E2F7F1E08F229924FC01E455FB4FA49004
:10102000B12C02C0B594A7942A95E2F721E0A22240
:10103000BB248114910419F081EE0E945D2AA11451
:10104000B10419F086EE0E945D2A872D0E94EA2ADB
:10105000AB2819F086EE0E94F629892819F081EE56
:101060000E94F6293FEFE31AF30A64CF809106014C
:10107000811104C081E08093060126C01092060110
:101080000E94981A1CC00E94981A80910601882319
:1010900009F43DC180910706811139C10E944124A4
:1010A0009093AE038093AD031093AC030093AB0316
:1010B00082E00E94E1266AC50E94981A28C1F601C2
:1010C0009281992309F479C11092AF030230FCE5B3
:1010D0001F0708F45CC106312CE5120738F09801AF
:1010E0002A5F3C452730310508F051C10E94E924B0
:1010F00090934405809343050F303CE5130709F4B2
:10110000CFC008F042C008309CE5190709F4A8C018
:10111000F0F40430FCE51F0709F490C068F40230D5
:101120003CE5130709F486C003301C4509F0DFC015
:10113000809143058260D9C006309CE5190709F407
:1011400087C008F089C0809143058860CEC00B300D
:10115000FCE51F0709F495C068F409303CE5130766
:1011600009F482C00A301C4509F0C1C080914305D2
:10117000886080C00D309CE5190709F486C008F02E
:1011800087C0809143058D7FB0C00A3FFCE51F07F3
:1011900009F457C050F502313CE5130709F488C043
:1011A00068F400319CE5190709F47EC001311C4543
:1011B00009F09DC0809143058F7B97C00431FCE509
:1011C0001F0709F487C008F479C005311C4509F0F0
:1011D0008EC08091430582FB222720F991E092275F
:1011E00090FB82F990FB83F980C00D3F8CE51807D6
:1011F00009F452C058F40B3FECE51E0729F10C3FEF
:101200001C4509F074C08091440560C00F3F2CE577
:10121000120709F458C080F101151D4509F067C097
:1012200080914405982F909591708E7F892B90FB2B
:1012300081F94DC080914305816057C0809143057D
:1012400019C0809144051BC08091440582603FC055
:1012500080914305806149C080914305806245C00B
:1012600080914305806441C00E94E129809143053B
:1012700080683BC0846039C0809144058260816091
:1012800026C0809143058E7F30C08091430519C0F0
:1012900080914305877F29C0809144058D7F17C0C9
:1012A000809143058F7E21C0809143058F7D1DC0B5
:1012B0000E94E129809143058F7717C080914305F3
:1012C000877F8B7F12C0809144058D7F8E7F8093B6
:1012D00044050DC00E94E1298091430587FB222728
:1012E00020F991E0922790FB87F980934305609164
:1012F00043051091440584E090E00E949230612FF4
:1013000081E290E00E9492300E94E1293FC4033FB5
:10131000FCE51F0739F426E241EE60EEC6010E94AB
:10132000B81C34C4043F2CE51207C0F4083D3CE56A
:10133000130721F427E245EE65EEF0CF093D8CE579
:10134000180719F428E241E0F7CF073D9CE519079B
:1013500009F0B5CE26E241EE61EEE0CF053FECE5C7
:101360001E0721F426E241EE62EED8CF053FFCE5F0
:101370001F0720F427E245EE64EED0CF063F2CE5B0
:10138000120709F09CCE27E245EE66EEC7CF8091AA
:10139000070606313CE5130709F58A7A91E009F45E
:1013A00090E09093B003882311F065E301C069E2F7
:1013B00081E795E00E94B4240EC006311C4509F077
:1013C000B7C08091B003882309F4DEC365E381E7E9
:1013D00095E00E948C240E94C425D8C38272F80133
:1013E000E25CFC45E431F10508F057C0EA5AFF4FD2
:1013F0000C947A3290914A0681E0892780934A06BC
:101400001092090187CC4DE35BE163E57BE12CC0E1
:1014100043E55BE16DE37BE127C04FE25BE166E31F
:101420007BE122C046E35BE16FE27BE11DC04BE163
:101430005BE165E27BE118C045E25BE16BE17BE1EA
:1014400013C047E05BE161E17BE10EC041E15BE19C
:1014500067E07BE109C043EF5AE16DEF7AE104C038
:101460004DEF5AE163EF7AE10E94C81A8FC365E03D
:1014700082E00EC068E086E00BC06EE089E008C044
:1014800064E18FE005C067E185E102C062E289E1C5
:101490000E94691B7BC383E250CC992309F448C0A6
:1014A0000115ECE51E0739F00E3D1C4509F040C062
:1014B0000E94FA246BC30E94E1290FEF14E32CE091
:1014C000015010402040E1F700C00000F89481E096
:1014D0008093E00080E28093D8001092C9008FE1F1
:1014E0009EE40197F1F700C000001DBA1092680059
:1014F0001CBC10BE1FBA10927A0010926E0010929F
:101500006F0010927100109272001092C900109238
:10151000BC0014B817B81AB81DB810BA1092BC00A5
:1015200015B818B81BB81EB811BA0C94003F2EC3DA
:10153000F60100811181992349F0C8010E940A2611
:10154000F82E682FC8010E94842604C0C8010E949A
:101550005726F82EB8018F2D0E94860F8C01B82EC9
:10156000F601E580E2949FE0E922F280F11010920A
:10157000060680910406877079F0FF2069F080E20A
:10158000800F883048F082E00E94E12680910406B6
:101590008770AA24A3948111A12C912E92948FE09C
:1015A0009822892D90E08C30910508F0CFC2FC0183
:1015B000E659FF4F0C947A32812F807F1F70882369
:1015C00011F01295107FFF20B9F0112309F448C2E1
:1015D00080E2800F883010F0B11006C080910706BD
:1015E000182B1093070605C080910606182B109340
:1015F00006060E94C42534C2802F0E94F6291123BA
:1016000009F4A4C2005E1095083010F0B11006C0B5
:101610008091070618231093070605C080910606DF
:101620001823109306060E94C42590C2812F807F44
:101630001F70803211F01295107FBB2021F0F1E075
:10164000BF16E1F028C0FF2081F080910806EE204F
:1016500051F001E0E01207C0182B181709F476C208
:101660001093080673C2812B10C0EE2021F021E0F8
:10167000E21609F46BC20E94BE251FC0FF2041F094
:1016800031E03E1508F462C2812F0E94E0275EC25D
:10169000E1105CC212C0FF2019F0EE20A9F3E0C1F6
:1016A000EE2059F0093309F0EDC18FEF97EEE3E03A
:1016B00081509040E040E1F7E3C1812F0E94D5279F
:1016C00045C2812F86958695837019F0813059F037
:1016D0003DC2FF2019F0C801937002C080E090E085
:1016E0000E94761A39C2FF2019F0C801937002C017
:1016F00080E090E00E94601A2FC2FF20F9F0053FC1
:1017000051F0063F71F0043FA9F48091B10390912C
:10171000B20381600BC08091B1039091B2038260EB
:1017200005C08091B1039091B20384609093B2039D
:101730008093B103802F0E9489231EC0053F51F082
:10174000063F71F0043FA9F48091B1039091B20378
:101750008E7F0BC08091B1039091B2038D7F05C045
:101760008091B1039091B2038B7F9093B2038093E9
:10177000B103802F0E94BF220E944D24EDC1812F12
:10178000837009F069C0F110E5C1902F929596958C
:101790009770990F990F802F8F70482E512C612CC4
:1017A000712C092E04C0440C551C661C771C0A942D
:1017B000D2F704FF12C04FE050E060E070E004C0D8
:1017C000440F551F661F771F9A95D2F7DB01CA0198
:1017D00080959095A095B09503C080E090E0DC01E5
:1017E00016951695412F4370423019F1C8F40091B7
:1017F000090610910A0620910B0630910C06413023
:1018000059F084299529A629B729BC01CD01602367
:101810007123822393230AC0402A512A622A732A01
:10182000BC01CD0164297529862997290E941B27AF
:1018300091C184299529A629B729009109061091FB
:101840000A0620910B0630910C06BC01CD016027E1
:10185000712782279327EACFFF2019F0812F81700B
:1018600001C08695882309F475C1902F92959695AD
:101870009770990F990F802F8F70482E512C612CE3
:10188000712C092E04C0440C551C661C771C0A944C
:10189000D2F704FF12C04FE050E060E070E004C0F7
:1018A000440F551F661F771F9A95D2F7DB01CA01B7
:1018B00080959095A095B09503C080E090E0DC0104
:1018C00016951695412F43704230D9F068F5009176
:1018D0000006109101062091020630910306413066
:1018E00059F084299529A629B729BC01CD01602387
:1018F0007123822393231EC0402A512A622A732A0D
:1019000013C084299529A629B729009100061091B2
:1019100001062091020630910306BC01CD0160272B
:1019200071278227932706C0BC01CD016429752940
:10193000862997290E94B0260DC11F70FF2039F01B
:10194000812F0E94FA26802F0E94E02703C1802F5A
:101950000E94D527812F0E94BC26FCC0802FF2EF69
:10196000BF1609F43EC0FB1538F020EFB21661F047
:1019700031EFB31689F16FC093EFB916C9F1E4EFF7
:10198000BE1609F44CC067C0FF2009F1E110DEC0AB
:101990001F7181E090E0A0E0B0E0AC01BD0104C0A7
:1019A000440F551F661F771F1A95D2F780910006C6
:1019B00090910106A0910206B09103068A019B0155
:1019C000082719272A273B27C901B80125C021E08C
:1019D0002E1508F4BBC0DCCFFF2029F0812F8F71BA
:1019E0002CC0FF20D9F3812F8F710E94BC26AEC07E
:1019F000FF2079F01F7181E090E0A0E0B0E0BC0131
:101A0000CD0104C0660F771F881F991F1A95D2F762
:101A100003C060E070E0CB010E94B02697C0FF20B9
:101A200079F01F71812F0E94FA2638E0139FC001C0
:101A30001124836080930406812F0E94FA2686C0B9
:101A400081E00E94E12681E08E1508F07FC082E0EF
:101A50000E94E1267BC0FF2039F0EE2009F4BECFC2
:101A6000802F0E945D2A72C0EE2009F4BCCF89331A
:101A700049F49FEFE7EEF3E09150E040F040E1F7EA
:101A800000C00000802F0E94F62960C012EFB1163E
:101A9000E1F01B1538F020EFB21669F031EFB31604
:101AA00011F12BC084EFB816C9F0B81660F095EFAD
:101AB000B91671F022C0FF2009F44EC090911306B0
:101AC00081E0892708C081E0F826F092130644C01F
:101AD000F11042C081E0809313063EC0F1103CC07B
:101AE0001092130639C0FF2029F080911206882336
:101AF00029F329C0EE2011F32FC080911206EE20A9
:101B0000C1F0882341F09091130681E089278093EA
:101B1000130610921206802FFF2019F00E945D2AF2
:101B20001BC00E94F62986E0F60111928A95E9F71A
:101B300013C0882389F0F1100FC09091130681E043
:101B40008927809313061092120606C088EF890D2C
:101B5000843010F40E948C1AAA20C1F080910406EF
:101B600080FD14C0F60112828595859585950E94A9
:101B7000FA26C6010E946A0580910406859585951E
:101B800085950E94BC2602C069E221CC2D960FB635
:101B9000F894DEBF0FBECDBFDF91CF911F910F91A3
:101BA000FF90EF90DF90CF90BF90AF909F908F907D
:101BB0007F906F905F904F9008959091430592FFB2
:101BC0000DC0282F2871283019F4877F846006C043
:101BD000282F2471243011F48B7F886093FF0DC06F
:101BE000282F2871283119F4877E846106C0282F98
:101BF0002471243111F48B7E88612091440520FFEB
:101C00000DC0382F3871383019F4877F816006C0D5
:101C1000382F3171313011F48E7F886021FF0DC073
:101C2000282F2871283119F4877E816106C0282F5A
:101C30002171213111F48E7E886194FD877E089593
:101C40009C013A9521153F4138F5DC01AA27B27075
:101C5000AC01442754709C012227387094FF0FC0B8
:101C600090FF02C080E101C080E0AB2B09F08062F0
:101C7000452B09F08064232B69F080680BC0892F05
:101C80008170AB2B09F08260452B09F08460232B17
:101C900009F08860FB01099408953F924F925F928A
:101CA0006F927F928F929F92AF92BF92CF92DF926C
:101CB000EF92FF920F931F93CF93DF9320E9289F1A
:101CC0007001299FF00C1124C0E0D0E000E010E08A
:101CD00067018FEFC81AD80A570182E0A80EB11C1D
:101CE000F701EC0FFD1FE45BFA4F6491F601EC0F76
:101CF000FD1FE45BFA4F7491F501EC0FFD1FE45BEF
:101D0000FA4F8491611107C0711105C0811103C0A0
:101D100020E040E03CC00E94271C962E372E882EE3
:101D200060914D0670E080E090E00E94573120E025
:101D300030E04FE753E40E94B6302B013C01682DA0
:101D400070E080E090E00E945931A30192010E946E
:101D5000E5310E942831862E692D70E080E090E008
:101D60000E945931A30192010E94E5310E9428315D
:101D7000962E632D70E080E090E00E945931A3011F
:101D800092010E94E5310E942831282D492DC80179
:101D90000E94DD1A0F5F1F4F2396C039D10509F04D
:101DA0009FCFDF91CF911F910F91FF90EF90DF9028
:101DB000CF90BF90AF909F908F907F906F905F90EB
:101DC0004F903F900895CF93E82F873080F5809112
:101DD0000C0190910D01892B09F047C0CE2F64E6CC
:101DE00070E080E40E94872F90930D0180930C0196
:101DF000892BD1F464E670E082E10E94DE2F90939B
:101E00000D0180930C01892B79F481E090E001C0F1
:101E1000880FCA95EAF764E670E080950E94DE2F8D
:101E200090930D0180930C01CF910C945A3090E067
:101E3000FC013797E730F105C0F4EA58FF4F0C94E6
:101E40007A32209A289811C0219A29980EC0229A95
:101E50002A980BC0239A2B9808C0529A5A9805C00A
:101E6000539A5B9802C03E9A4698CF910895CF93BB
:101E7000873008F03FC080910C0190910D01892BB3
:101E800009F041C064E670E080E40E94872F9093DF
:101E90000D0180930C01892B11F0C0E027C064E68E
:101EA00070E083E10E94DE2F90930D0180930C017E
:101EB000892B99F764E670E081E40E94872F909364
:101EC0000D0180930C01892B41F784E690E00E947C
:101ED0000E3097FF05C090930D0180930C01DDCF6C
:101EE000C82FC09510920D0110920C010E945A301B
:101EF0008C2F0AC09FB18FB1807F86958695937095
:101F0000892B809501C080E0CF910895CF93DF9316
:101F100024E5829FC0011124FC0146E0749FE00D7E
:101F2000F11D1124E60FF11DEE0FFF1FEC59FE4FBE
:101F3000C591D491CE01C238D10569F1B0F4C13355
:101F4000D10509F475C048F4C932D10509F469C056
:101F5000CA32D10509F473C085C0C533D10509F46F
:101F600059C0C933D105B9F07DC0C33ED10571F167
:101F700038F4C03ED105B1F0C23ED10511F172C0B6
:101F8000C63ED105B9F1C73ED105C9F1C43ED10560
:101F900009F068C024C02091430520FD5DC021FDEB
:101FA0005BC060C02091430520FD50C020914405D6
:101FB00020FF57C18091430584FD51C183EE90E01D
:101FC00050C12091430522FF4CC1F4CF80914305BD
:101FD00082FD3FC08091440580FD3EC0EBCF209143
:101FE000440521FF3EC18091430584FD38C187EE41
:101FF00090E037C12091430523FF33C1F4CF809196
:10200000430583FD2CC08091440581FFECCF84EE15
:1020100090E027C12091430525FF23C189E290E08C
:1020200020C12091430525FF1CC185E390E019C123
:102030002091430526FF15C18AE290E012C120914C
:10204000430526FF0EC181E390E00BC189E390E0D8
:1020500008C182EE90E005C180EE90E002C186EEFC
:1020600090E0FFC0C11552E5D50708F075C0C11555
:1020700021E5D20728F09C2F8827816F906AF1C054
:10208000C83ED10570F5C03ED10508F0EAC0C83A97
:10209000D105B8F4C53AD10550F08C2F855AC82F18
:1020A000D0E0CC56DD4F888190E09064DAC0C1303A
:1020B000D10509F4D6C008F4D2C0249708F4CFC0E3
:1020C000D0C0CF3BD10508F0CAC08C2F885AC82F8A
:1020D000D0E0CC0FDD1FC956DD4F88819981946413
:1020E000C0C0C11540E2D40760F4C11551E0D50766
:1020F00008F0B7C0C03FD10508F4B1C0CE0190656B
:10210000B0C0C11580E4D80708F4A9C0C11520E506
:10211000D20720F4CE019F70906AA3C0CE01F4E0F4
:1021200096958795FA95E1F7282F23703C2F337009
:1021300081E090E002C0880F991F3A95E2F79C6811
:10214000922B2C2F2F702695269550E2259F9001DB
:102150001124822B932B85C0C11546E5D40708F0C6
:102160003FC0C11555E5D50748F08C2F0E94DD0D05
:102170008F7190E0982F8827906273C0C11584E515
:10218000D80728F09C2F8827846F906A6AC09E0128
:10219000237033279C2F96959695C115D34580F4CF
:1021A00041E050E002C0440F551F2A95E2F780E25B
:1021B000989F90011124CA01822B932B9C6851C0D7
:1021C00041E050E002C0440F551F2A95E2F780E23B
:1021D000989F90011124CA01822B932B9A6841C0C9
:1021E000C1155AE5D50778F5C11589E5D80710F16D
:1021F0008C2F8F700E94DD0D9E0194E036952795FF
:102200009A95E1F72F7030E0322F22273069A9012B
:10221000482B0EC090568115904208F58D2F8F7176
:102220000E94DD0D9E01332730628F71A901582B6A
:10223000CA0117C0C11528E5D20788F09C2F88274E
:10224000806F906A0EC0C1154BE5D40740F0CE01F7
:10225000C1155CE5D507F0F69927906602C080E0CD
:1022600090E0DF91CF910895CF93DF93EC010E942E
:10227000F629CE01805E9109089710F0209719F495
:1022800065ED77E202C060EC77E2CE01DF91CF919D
:102290000C94200ECF93DF93EC01805E9109089798
:1022A00010F0209719F460EE77E202C06BEC77E251
:1022B000CE010E94200E8C2FDF91CF910C945D2ACD
:1022C000CF92DF92EF92FF926B017C010E946E250C
:1022D00056985E9825982D9826982E9827982F988E
:1022E00090E0FC013197E730F105A8F4E358FF4F87
:1022F0000C947A32259A2D9A0EC0259A2D9A269AF8
:102300002E9A09C0259A2D9A04C0259A2D9A269AAC
:102310002E9A279A2F9AC701B601FF90EF90DF906F
:10232000CF90089540E060E080E00E94DB1A81E0F9
:1023300080937005089580E290E090930D01809362
:102340000C018091BA0381110EC00E94812F81E09F
:102350008093BA032FEF83ED90E3215080409040AB
:10236000E1F700C0000064E670E080E40E94872F7F
:1023700090930D0180930C01892B09F04EC064E607
:1023800070E080E00E94DE2F90930D0180930C019D
:10239000892B09F042C064E670E080E00E94DE2FE5
:1023A00090930D0180930C01892BB9F564E670E0E0
:1023B0008FE30E94DE2F90930D0180930C01892BF7
:1023C00061F50E945A3064E670E080E40E94872F35
:1023D00090930D0180930C01892BF9F464E670E071
:1023E0008CE00E94DE2F90930D0180930C01892BCD
:1023F000A1F464E670E080E00E94DE2F90930D016E
:1024000080930C01892B49F464E670E08FE30E940D
:10241000DE2F90930D0180930C010E945A30809121
:102420000C010895CF93DF9356985E9825982D98C8
:1024300026982E9827982F98C8E8D0E08FEF90E044
:1024400099838883AAE8B0E011969C938E93ECE878
:10245000F0E091838083259A2D9A2FEF80E792E018
:10246000215080409040E1F700C00000269A2E9A4B
:102470002FEF80E792E0215080409040E1F700C0CC
:102480000000279A2F9A2FEF80E792E0215080409A
:102490009040E1F700C0000025982D982FEF80E7CD
:1024A00092E0215080409040E1F700C00000269863
:1024B0002E982FEF80E792E0215080409040E1F786
:1024C00000C0000027982F988091310587702FEF6A
:1024D000829FC00111249595879595958795992799
:1024E0009983888311969C938E93918380835698C9
:1024F0005E9825982D9826982E9827982F98DF91EA
:10250000CF91089584B1807F84B985B1807F85B9EA
:102510008AB1837F8AB98BB1837F8BB93E98469805
:10252000089580B38C7080BB81B3836F81BB0895A5
:102530008F929F92AF92BF92CF92DF92EF92FF92D3
:102540000F931F93CF93DF9380910C0190910D0116
:10255000892BA1F08091B9038F5F8093B90381111A
:102560000DC00E949B1190E090930D0180930C018F
:10257000892B21F40E94861B0E94121265E3E62E2D
:1025800065E0F62E6701D0E0812C07E00D0F8D2F5E
:102590000E94E30E802F0E94E30E8D2F0E94370FC2
:1025A000F6019081891719F0808311E001C010E0D5
:1025B000802F0E94370FF6019781891719F08783C2
:1025C00081E001C080E0182B812A0E948212DF5F27
:1025D000FFEFCF1ADF0AD730C1F60E9441246AEF1D
:1025E00070E00E945232BC01482F8091B4038823CE
:1025F000D9F11092B403E0912B05F0912C05DF0185
:102600001E9690E08BEF0AEF10E020812B3F99F0AF
:10261000C22ED12C421720F09B012C193D0905C078
:1026200098012C193D09260F371F2E31310514F062
:10263000808301C091E03196EA17FB0731F7909350
:10264000B403811002C0911111C01092B303E09144
:102650002B05F0912C059091B403A8E4B5E0BF01DF
:10266000625F7F4F80E028C08110EFCF8091B3037D
:102670008111EBCF0091B5031091B6032091B70300
:102680003091B8038FB7F89440910D0650910E0623
:1026900060910F06709110068FBFDB01CA01801B8D
:1026A000910BA20BB30B4017510762077307E0F4BD
:1026B0000197A109B10918C0E70129917E013C9158
:1026C000321741F030813B3F21F440832C9391E05D
:1026D00001C081E0319611966E177F0769F79093DC
:1026E000B4038093B303C6CF2FB7F894C0900D0600
:1026F000D0900E06E0900F06F09010062FBFC0920B
:10270000B503D092B603E092B703F092B8034091BC
:1027100046065091470660914806709149064F3F22
:10272000DFEF5D076D077D07E9F0AA27BB278C0166
:102730009D010095109520953095041715072607E3
:10274000370720F48FEF9FEFDC0104C0840F951F43
:10275000A61FB71F8093460690934706A09348068E
:10276000B093490690907005911008C0D0914A0628
:102770008D2F837019F0D695D69501C0D0E0809149
:1027800009018130A1F038F0823009F489C1833029
:1027900009F493C1B9C110921901C0924206D092B6
:1027A0004306E0924406F092450681E083C18091A1
:1027B0000B01D8130DC020914A06237030E04091E0
:1027C0000A0150E081E02417350719F480E001C0C8
:1027D00081E0817080931B014D2F50E046315105FF
:1027E00008F04CC1FA01EC57FF4F0C947A32882361
:1027F00009F444C180911901182F110F110F180FFE
:1028000005E0010F013308F000E3101708F0F7C0EE
:1028100020E040E060E0812F90E00E94DD1A1F5F21
:10282000F4CF80911901182F110F110F180F05E027
:10283000010F013308F000E360914B0670914C06E4
:1028400080914D060E94271CE62ED72EC82E101709
:1028500008F0D5C0E12FF0E0DF01A758BC4F8C9104
:1028600090911A01982331F02C2D4E2D6D2DCF0112
:102870000E94DD1A1F5FEBCF80911901182F110FF5
:10288000110F180F05E0010F013308F000E3B090BD
:102890004C06A0904D0620914E0650E4E52E3E2DAC
:1028A000329F312D1124E32E101708F0A8C0C12E3D
:1028B000D12CF601E758FC4F908180911A018923B1
:1028C000B9F0F601EE0FFF1FE65EFC4F80818295A6
:1028D0008F7060914B068E9D600D11247B2D8A2D8B
:1028E0000E94271C462F282F672FC6010E94DD1A41
:1028F0001F5FDACF80911901182F110F110F180FD8
:1029000005E0010F013308F000E3B0904C06A09001
:102910004D0620914E0630E4C32E3C2D329F312DC2
:102920001124C32E101708F06AC0E12EF12CF70114
:10293000E758FC4F908180911A018923D9F0F70163
:10294000EE0FFF1FE75EFC4F6081C69EB0011124B1
:1029500095E0759567959A95E1F780914B06680F1C
:102960007B2D8A2D0E94271C462F282F672FC701F9
:102970000E94DD1A1F5FD6CF80911901182F110F09
:10298000110F180F05E0010F013308F000E3D0909C
:102990004B06E0904C06C0904D0660914E06669541
:1029A0006695669580914206909143060E941D1C93
:1029B0000E94A21B805887FD8195880F282F3C2DEF
:1029C000239F212D1124822F6D2D7E2D0E94271CE7
:1029D000E62ED72EC82E101790F4E12FF0E0DF017D
:1029E000A758BC4F8C9190911A01982331F02C2D4F
:1029F0004E2D6D2DCF010E94DD1A1F5FECCF81E0BF
:102A00000033E8F13BC08DE097E11AC081EE96E11A
:102A100017C086EE97E11FC087EC97E11CC08CEAD7
:102A200097E11EC080E997E11BC08FED96E108C0D9
:102A300086ED96E105C08DEC96E102C082EB96E151
:102A40000E94362C1CC083EA96E10AC084EF9BE109
:102A500002C08FE797E10E94DA2B11C08BE697E165
:102A60000E945E2B0CC085E796E105C083E496E1E9
:102A700002C085E096E10E94FD2A01C080E09091AD
:102A800019019F5F9093190181113EC082E08093EC
:102A9000090180911B01811137C0DD2351F034C041
:102AA000D0930B0180914A06837080930A010E94A3
:102AB000291883E08093090127C0C0904206D09076
:102AC0004306E0904406F09045068FB7F894409195
:102AD0000D0650910E0660910F06709110068FBF83
:102AE000DB01CA018C199D09AE09BF094C155D05B2
:102AF0006E057F0518F40197A109B1094A97A10550
:102B0000B10510F01092090191102BC08091700551
:102B1000811127C08091310583FD23C0609100069B
:102B20007091010680910206909103060E946E2525
:102B3000833039F0843041F0813059F481E090E005
:102B400005C083E090E002C084E090E00E944D0E5A
:102B500008C080911A01811104C040E060E00E9429
:102B6000DB1A882DDF91CF911F910F91FF90EF908D
:102B7000DF90CF90BF90AF909F908F90089580335B
:102B8000910540F5880F991F880F991FFC01E45D9E
:102B9000FE4F52813381808183707181A82FB0E014
:102BA000E0E98E9FC00111248F529C4FFC01E70F7A
:102BB000F11DB4976083FC01E50FF11DB4974083CC
:102BC000830F911DFC01B4972083FD01E153FC4F5D
:102BD00081E080830895FF920F931F93CF93DF933B
:102BE000182F062FF42EC0E0D0E02F2D402F612F9C
:102BF000CE010E94BF152196C033D105B1F7DF91F8
:102C0000CF911F910F91FF9008950F931F9310E0A4
:102C1000F801EE0FFF1FE75EFC4F9081905797FD84
:102C20009195000F111FF801E65EFC4FE081F0E086
:102C3000B097DF01AA0FBB1F8D010E0F1F1F2003CE
:102C4000D001219FB00D1124E8E3F0E0E91BF10968
:102C500097FDF3959F01220F331F89010E0F1F1F50
:102C600040039001419F300D11242A0F3B1F37FF75
:102C700002C021583F4F220F232F221F330B620F18
:102C80001F910F9108950F931F93522F10E0F80199
:102C9000EE0FFF1FE65EFC4FE081F0E0B097EE0F15
:102CA000FF1F9F015203D001539FB00D1124000F4D
:102CB000111FF801E75EFC4F008110E00057110979
:102CC000000F111F40039001419F300D11242A0F66
:102CD0003B1F37FF02C021583F4F220F232F221FD7
:102CE000330B620F1F910F9108950F931F93522F73
:102CF00010E0F801EE0FFF1FE65EFC4FE081F0E010
:102D0000B0979F015203D001539FB00D1124000FC3
:102D1000111FF801E75EFC4F008110E00057110918
:102D200040039001419F300D11242A0F3B1F37FFB4
:102D300002C021583F4F220F232F221F330B620F57
:102D40001F910F910895EF920F931F9393E0099FA6
:102D500080011124159507956E2D600F1F910F911D
:102D6000EF900895A22F50E0FA01EE0FFF1FE65EEC
:102D7000FC4F9081905297FD9195440F551FFA0199
:102D8000E75EFC4F3081232F30E02A1B3109290FE9
:102D9000311D97FD3A95620F0895E42FF0E0EE0F94
:102DA000FF1FE65EFC4F6081621B0895E42FF0E098
:102DB000EE0FFF1FE75EFC4F6081621B0895622FDC
:102DC0000895E42FF0E0EE0FFF1FE75EFC4F408117
:102DD00034EE439F412D1124E82FF0E050E0445E93
:102DE0005F4FDA01A21BB1099D01B7FF03C0319506
:102DF0002195310993E0220F331F9A95E1F7AF0136
:102E0000421B530B9A0157FF02C020E030E0582FBD
:102E1000259F212D1124822F0895E42FF0E0EE0F3D
:102E2000FF1FE75EFC4F408134EE439F412D11248C
:102E3000E72FF0E050E0445E5F4FDA01A21BB109DA
:102E40009D01B7FF03C031952195310993E0220F11
:102E5000331F9A95E1F7AF01421B530B9A0157FFBD
:102E600002C020E030E0279F212D1124722F089509
:102E7000FC019B01009721F477FF2BC080E80895A7
:102E8000AC0197FF04C044275527481B590BB901D3
:102E9000640F751F37FD0CC0241B350BC901A5E05D
:102EA000880F991FAA95E1F70E94663280E20CC054
:102EB000CB0165E0880F991F6A95E1F7BA01621BA3
:102EC000730B0E94663280E6861BF7FF03C0819574
:102ED000089580E00895EF920F93CF93DF93D72F5B
:102EE000C82FC9010E19BA010E943817602F681B3C
:102EF0007D2F8C2FDF91CF910F91EF9008950F933D
:102F0000CF93DF93D72FC82FC901BA010E9438177A
:102F1000682F600F7D2F8C2FDF91CF910F91089537
:102F2000EF920F931F93CF93DF93D62FC72F182FB6
:102F3000C9010E19010FBA010E943817081B202F72
:102F4000219F212D1124822F6D2F7C2FDF91CF9176
:102F50001F910F91EF900895EF920F931F93CF93CE
:102F6000DF93D62F172FC82FC9010E19070FBA01EB
:102F70000E943817702F781B719F712D11246D2FAF
:102F80008C2FDF91CF911F910F91EF900895FF92B9
:102F90000F931F93CF93DF93F62ED72F182FC901CE
:102FA000C12FC01BBA010E943817982F990F890FA3
:102FB000C81B2C2F219F212D1124822F6F2D7D2F97
:102FC000DF91CF911F910F91FF900895FF920F9382
:102FD0001F93CF93DF93F62E172FD82FC901C72F3A
:102FE000C01BBA010E943817982F990F890F7C2FA8
:102FF000781B719F712D11246F2D8D2FDF91CF9133
:103000001F910F91FF9008950F931F93CF93DF931C
:10301000082F000FEB0114E21093BB03ECEBF3E07D
:10302000DE018D91819383E0EC3CF807D1F724E633
:1030300030E041E150E06BEB73E0802F0E943330D1
:10304000105F6096143B41F7DF91CF911F910F9174
:1030500008958091CF03882329F061ED73E084E720
:103060000E9404181092CF038091D003882329F086
:1030700061E674E087E70E9404181092D003089577
:10308000EBEBF3E06083418324E630E042E050E084
:10309000BF01880F0C943330FF920F931F93CF938F
:1030A000DF93E62FF0E0EB5EFA4F90819923B1F0C9
:1030B000F82E82E1689FE001112400E010E0F801A1
:1030C000EC0FFD1FEF50FB4F4081602F8F2D0E94B2
:1030D00040180F5F1F4F0231110589F7DF91CF9123
:1030E0001F910F91FF900895CF93DF93C82F4BE06E
:1030F0006DEF0E94401840E06AE08C2F0E9440185B
:103100008FE39CE90197F1F700C0000040E060E028
:103110008C2F0E94401840E061E08C2F0E944018E4
:1031200040E066E08C2F0E94401840E06DEF8C2F4D
:103130000E944018D0E040E06D2F8C2F0E94401874
:10314000DF5FD231C1F740E06D2F8C2F0E94401815
:10315000DF5FD432C1F740E06D2F8C2F0E94401802
:10316000DF5FD43BC1F74BE06DEF8C2F0E9440181E
:1031700041E06AE08C2F0E94401840E06DEF8C2FF8
:10318000DF91CF910C9440187F928F929F92AF92D3
:10319000BF92CF92DF92EF92FF920F931F93CF9344
:1031A000DF930E94812F84E70E94741887E70E94B2
:1031B00074180CE211E0E12CF12C42E138E0A32E6E
:1031C000B12CCC24C394D12C77247394D8011196BC
:1031D0002C91119730E0C90184971296CC911297E7
:1031E000D0E0A4971396EC91F0E0B497BC0197FF60
:1031F00002C0695F7F4FA3E075956795AA95E1F7D7
:10320000D701AA0FBB1FAA0FBB1FA45DBE4F2C91F5
:10321000237030E0429FD001439FB00D1124AF5086
:10322000BB4F4D01860E911CB5010E946632B6015E
:1032300002C0660F771F8A95E2F7CB01D4019C91FB
:10324000892B8C93CE01D7FD079663E095958795E2
:103250006A95E1F7429FB001439F700D11246F50B2
:103260007B4F4B01880E911CCE01B5010E94663246
:10327000B60102C0660F771F8A95E2F7CB01D40131
:103280009C91892B8C93CF01F7FD079653E0959580
:1032900087955A95E1F7429FE001439FD00D112495
:1032A000CF50DB4FC80FD11DCF01B5010E94663250
:1032B000F60102C0EE0FFF1F8A95E2F7CF01988159
:1032C000892B8883F901EB5EFA4F7082FFEFEF1ACA
:1032D000FF0A0C5F1F4F60E3E616F10409F076CF9A
:1032E00060E084E70E944C1861E087E7DF91CF91AE
:1032F0001F910F91FF90EF90DF90CF90BF90AF9014
:103300009F908F907F900C944C180F931F93CF93A6
:10331000DF93CDB7DEB767970FB6F894DEBF0FBE69
:10332000CDBF4B8B5C8B6D8B7E8B8F8B0E891F89FA
:103330000115110531F05F3F31F481E04F3F19F481
:1033400003C081E001C080E080FD32C0242F30E066
:10335000A1E0B0E0042E01C0AA0F0A94EAF7852F7D
:1033600090E0662319F07091130605C0FC01E35E3E
:10337000FA4F70817A237723A1F046E0489FF0014D
:10338000499FF00D1124E20FF31FEE0FFF1FE451D0
:10339000FE4F40815181FC01E35EFA4F9081A92BE1
:1033A00006C0FC01E35EFA4FA0958081A823A083AC
:1033B00086E0FE013D96DF01982F1D929A95E9F770
:1033C0004D875E876F87198B088BDE0117960190FA
:1033D0000D928A95E1F7CE0107960E94EA278111A6
:1033E0003EC086E0FE013796DE01119601900D92F7
:1033F0008A95E1F7FF81E8856A857B85611571050E
:1034000031F0EF3F31F481E0FF3F19F403C081E078
:1034100001C080E080FD23C02091970530E0C90104
:103420000196877099274091C80550E08417950749
:1034300079F1F983EA837D836C8396E0929FD001D2
:10344000939FB00D1124A856BA4FFE0131960190FA
:103450000D929A95E1F7809397050E94252716E033
:103460008091C805909197058917F9F0189FC001C0
:10347000112488569A4F0E94EA278823B1F0809140
:10348000C80590E00196877099278093C805E8CF1A
:103490000E94E129109297051092C805E1E9F5E034
:1034A00086E0DF011D928A95E9F767960FB6F894DA
:1034B000DEBF0FBECDBFDF91CF911F910F91089559
:1034C00020911B0530911C052817390771F0909346
:1034D0001C0580931B05E0914505F091460530974A
:1034E00021F00084F185E02D0994089520911905BB
:1034F00030911A052817390771F090931A058093B7
:103500001905E0914505F0914605309721F00680B8
:10351000F781E02D09940895E0914505F091460565
:10352000309721F00190F081E02D099480E008951A
:10353000CF93DF938091AB039091AC03892B29F15A
:103540008091AD039091AE030E9417242091070152
:10355000309108012817390760F4C091AB03D0916E
:10356000AC03D260CE010E944A11CE010E943411F8
:1035700004C08091AB030E94EA2A1092AE0310921D
:10358000AD031092AC031092AB03DF91CF9108957D
:10359000882311F0FA0101C0FB01099480914A06C9
:1035A000837011F41092090180914A068C7F81602A
:1035B00080934A0608950C94EB150C94BF1545E0D2
:1035C00050E06CE170E08AE496E00C948230EAE42A
:1035D000F6E0880F880F90819370892B808310927A
:1035E00009010C94DF1AEAE4F6E0248130E1231BA0
:1035F00008F420E024830C94DF1AEAE4F6E0248146
:1036000030E1230F08F42FEF24830C94DF1AEAE44F
:10361000F6E0238130E1231B08F420E023830C949F
:10362000DF1AEAE4F6E0238130E1230F08F42FEFFC
:1036300023830C94DF1AEAE4F6E0228130E1231BB5
:1036400008F420E022830C94DF1AEAE4F6E02281F9
:1036500030E1230F08F42FEF22830C94DF1AEAE401
:10366000F6E08181885081830C94DF1AEAE4F6E069
:103670008181885F81830C94DF1A90914A06892F9B
:1036800086958695815C8F739370882321F0880FCF
:10369000880F892B02C0892F846580934A06109277
:1036A00009010C94DF1A90914A06892F8695869518
:1036B0008F5F8F739370863120F4880F880F892B6A
:1036C00002C0892F846080934A06109209010C94ED
:1036D000DF1A90914A0696959695981720F09617BE
:1036E00010F40C94531B0C94E71AEAE4F6E081E31F
:1036F000808380911C0190911D01A0911E01818306
:103700009283A3838FE784830C94DF1A0E94C418EA
:1037100080E090E00E947C308F3E9E4F21F00E941E
:10372000FA240E94751B45E050E06CE170E08AE4E9
:1037300096E00E945E3080914A068C7F11F40C94D2
:10374000751B0895482F982F46FD9095E92FEF732C
:103750009F7046FD9F5FE295EF70EE0FF0E0EC5D2D
:10376000FE4F2181299F802D212D112482958F705C
:103770002295207F822B3081982F930F892F47FD30
:10378000819580580895BC018230910508F4089510
:10379000613E8EE1780748F49B0195E036952795C8
:1037A0009A95E1F748E0420F01C04FEF91E0242FD6
:1037B00030E0290F311D35952795229FF001239F79
:1037C000F00DF00D11246E177F0718F44FEF420F24
:1037D00004C02F3F39F091E0920F491740F78FEF67
:1037E000890F08958FEF08950F93CF93DF93D72F0D
:1037F000C82F47FD4195E8E3F0E0CF01841B910914
:1038000047FD9395889FB001899F700D700D11241D
:10381000229FC001239F900D900D1124860F971FAA
:103820000E94C31B682F660F860F682F600F7D2FC5
:103830008C2FDF91CF910F91089520E030E0869F8B
:10384000212D969F200D311D1124C9010895EF925D
:10385000FF920F931F93CF93DF93F62E472FE82FFE
:10386000F0E0711106C0E45EF74F6491762F862F69
:1038700072C0272F30E0E45EF74FE4910E2F10E086
:1038800056E0659FC0011124CFEFD0E0BE010E9439
:1038900052325BEA5603C001579F900D11248F0DE1
:1038A000911D8F0D911D982F990F890F7E01E21A9E
:1038B000F30AE09ED001E19EB00DF09EB00D112400
:1038C000489FA0011124452F55277E01E41AF50ACF
:1038D000E09EA001E19E500DF09E500D11247E014E
:1038E000E81AF108E29EC001E39E900DF29E900D51
:1038F0001124892F9927C81BD90BC09FC001C19FD4
:10390000900DD09F900D11246230710591F048F414
:1039100061157105E1F061307105A9F48B2F752FE8
:1039200019C06430710561F038F06630710579F0C6
:103930000AC0892F7B2F0EC08E2F7B2FE52F0AC048
:103940008E2F792F02C0852F7E2FEB2F03C08B2F58
:103950007E2FE92F6E2FDF91CF911F910F91FF9056
:10396000EF90089560912D058CE090E00C949230DA
:103970000F931F93CF93DF93C62FD42F122FFC01E9
:1039800082818823C9F06093AF030E944124909301
:1039900018058093170580E28C0F883008F057C017
:1039A000C77081E001C0880FCA95EAF7DF91CF9117
:1039B0001F910F910C94E0278091AF03681330C0E2
:1039C00080911705909118050E941724883C910555
:1039D00038F500E20D0FCD17B9F080E28C0F88307A
:1039E00040F4C77081E001C0880FCA95EAF70E94D1
:1039F000D527083028F581E09D2F977001C0880FEA
:103A00009A95EAF70E94E027812F0E94EA2A08305F
:103A1000F0F4D77081E001C0880FDA95EAF70AC0A8
:103A200080E28C0F883098F4C77081E001C0880F65
:103A3000CA95EAF7DF91CF911F910F910C94D5278A
:103A4000812FDF91CF911F910F910C94EA2ADF9182
:103A5000CF911F910F910895E8EDF0E080818E7F66
:103A600080831092E2001092DA001092E100A0EE42
:103A7000B0E08C9181608C9380818F77808319BCBA
:103A8000A7EDB0E08C918E7F8C9380818F7E8083B8
:103A900010926F0508951F920F920FB60F92112486
:103AA0002F933F934F935F936F937F938F939F9346
:103AB000AF93BF93CF93DF93EF93FF93C091E90050
:103AC000CF708091EC00D82FD17080FDD0E810929B
:103AD000E9008091F000877F8093F00078940E9445
:103AE000AC2C1092E9008091F00088608093F00087
:103AF000CD2BCF70C093E900FF91EF91DF91CF9173
:103B0000BF91AF919F918F917F916F915F914F91F5
:103B10003F912F910F900FBE0F901F9018952091FD
:103B2000E4003091E50095E64091EC00842F81702F
:103B300040FF23C08091E80080FD1DC080913806C1
:103B4000882399F0853099F08091EB0085FD11C0B4
:103B50004091E4005091E5002417350729F3915076
:103B600011F09A01E1CF84E0089582E0089583E0A6
:103B7000089581E0089580E008954091E80042FFB3
:103B8000DDCF089580913A0687FF11C08091E8004B
:103B900082FD05C0809138068111F8CF11C0809157
:103BA000E8008B770BC080913806882349F080911C
:103BB000E80080FFF8CF8091E8008E778093E800DE
:103BC0000895982F973068F59093E900981739F089
:103BD0007091EC002091ED005091F00003C0242F73
:103BE000762F50E021FD02C09F5FECCF3091EB00BB
:103BF0003E7F3093EB003091ED003D7F3093ED0040
:103C00003091EB0031603093EB007093EC00209327
:103C1000ED005093F0002091EE0027FDE5CF80E00D
:103C200008958F708093E90081E00895CF92DF922C
:103C3000EF92FF920F931F93CF93DF93C8EDD0E0E5
:103C400088818F7E8883E7EDF0E0808181608083CA
:103C500084E082BF81E080936F0588818E7F8883B6
:103C600002EE10E0F80110821092DA0081EEC82E08
:103C7000D12CF601108288818F77888388818068B3
:103C8000888388818F7D888319BC109238061092B2
:103C90003906109237061092360690EEE92EF12C76
:103CA000F70180818B7F808388818160888342E0F7
:103CB00060E080E00E94E11DF60180818E7F8083BC
:103CC000F801808181608083808188608083F70132
:103CD00080818E7F8083888180618883DF91CF910E
:103CE0001F910F91FF90EF90DF90CF9008951F925A
:103CF0000F920FB60F9211242F933F934F935F9320
:103D00006F937F938F939F93AF93BF93EF93FF93A3
:103D10008091E10082FF09C08091E20082FF05C02E
:103D20008091E1008B7F8093E1008091DA0080FF39
:103D30002AC08091D80080FF26C08091DA008E7F53
:103D40008093DA008091D90080FF18C080E189BD9E
:103D500082E189BD09B400FEFDCF81E08093380681
:103D600080916F0581110FC00E942C1D0E94161EAC
:103D70008091E20084608093E20005C019BC10923B
:103D8000380610926F058091E10080FF17C0809186
:103D9000E20080FF13C08091E2008E7F8093E200FA
:103DA0008091E20080618093E2008091D80080627F
:103DB0008093D80019BC85E0809338068091E1009B
:103DC00084FF34C08091E20084FF30C080E189BD6F
:103DD00082E189BD09B400FEFDCF8091D8008F7DBE
:103DE0008093D8008091E1008F7E8093E1008091E4
:103DF000E2008F7E8093E2008091E20081608093F8
:103E0000E20080913906882311F084E007C0809198
:103E1000E30087FD02C081E001C083E080933806A3
:103E20000E94E1290E948C1A109270058091E10095
:103E300083FF27C08091E20083FF23C08091E100CF
:103E4000877F8093E10082E08093380610923906E4
:103E50008091E1008E7F8093E1008091E2008E7F6F
:103E60008093E2008091E20080618093E20042E072
:103E700060E080E00E94E11D8091F0008860809306
:103E8000F000FF91EF91BF91AF919F918F917F9142
:103E90006F915F914F913F912F910F900FBE0F90B7
:103EA0001F9018952091400630914106261737073C
:103EB00048F06115710539F42091E8002E772093C0
:103EC000E80001C0B901FC0120E06115710579F13C
:103ED000809138068823F1F18530F1F18091E80076
:103EE00083FD3CC08091E80082FD2EC08091E800F7
:103EF00080FFEBCF2091F3008091F20090E0922BB5
:103F00006115710551F08830910538F421912093A5
:103F1000F100615071090196F3CF21E0089709F093
:103F200020E08091E8008E778093E800CECF2111C9
:103F3000CFCF0AC080913806882361F0853061F0C8
:103F40008091E80083FD0AC08091E80082FFF2CFF3
:103F500080E0089582E0089583E0089581E0089567
:103F600080913806843011F081E0089582E0089550
:103F7000CF93DF93CDB7DEB72A970FB6F894DEBFA5
:103F80000FBECDBF84B7877F84BF0FB6F894A895C6
:103F900080916000886180936000109260000FBE85
:103FA00090E080E80FB6F8948093610090936100F0
:103FB0000FBE85B7806885BF85B7806885BF0E94C2
:103FC0002C1D0E94161E8091E20084608093E20006
:103FD0007894809138068823A1F01091E9001F7031
:103FE0009091EC00892F817090FD80E8182B109241
:103FF000E9008091E80083FD0E94AC2C1F701093B3
:10400000E90082E084BD93E095BD9AEF97BD80936F
:104010006E000E949B1190E090930D0180930C0123
:104020000E9482120E949112A5E3B5E006E515E018
:10403000E8E4F5E011921D9225E0E635F207D1F7AC
:104040008EE090E00E94803280932B0590932C05A7
:10405000FC010E962BEF21938E179F07E1F780E06E
:1040600090E00E947C308F3E9E4F11F00E94FA2417
:104070000E94861B8CE090E00E946E3090E0A0E0F1
:10408000B0E080932D0590932E05A0932F05B0935B
:10409000300589EA8093800089E08093810024982C
:1040A0002C983F988AB18F7C8AB96E98479A8BB1C9
:1040B00080638BB9769A8FE090E00E9476306093AF
:1040C0003105709332058093330590933405677002
:1040D0008FEF869FB001112475956795759567954B
:1040E0007727709389006093880070938B006093AA
:1040F0008A0070938D0060938C009091310594FF3D
:1041000003C080931A0102C010921A010E94121279
:1041100080E090E00E947C308F3E9E4F11F00E9424
:10412000FA2482E090E00E946E30809360050E9445
:10413000E924909344058093430583E090E00E9436
:104140006E30682F70E080E090E00E941B270E9494
:10415000CE1A0E94CE1A0E94DF1A8EE091E0909350
:10416000460580934505BB24B394AA24AA9480E114
:10417000982E92E1892E28E1C22ED12C30E4732EA4
:1041800080913806853009F04AC00E9492118091D2
:104190003806843019F1109247050FB6F894A895A7
:1041A000C09260000FBE709260000E94921183B7AF
:1041B000817F846083BF83B7816083BF7894889553
:1041C00083B78E7F83BF0FB6F894A8958091600067
:1041D000886180936000109260000FBE8091370666
:1041E000882309F4CDCF0E949B1190E090930D019C
:1041F00080930C010E9482120E949112E8E4F5E083
:1042000011920E171F07E1F70E949812E8E4F5E0FB
:1042100081918111DCC00E171F07D1F7B1CF0E9429
:104220009812A1E6B5E0E8E4F5E0E12CF12C3E2D92
:1042300021919D91922721F180E066246394492F7A
:104240004621D1F089833A83262181E009F480E078
:104250008B830E9441248160782F9D838C834981C8
:104260005A816B818D810E948519F701EF59FA4FB0
:104270008081682660821AC08F5F660C8630F9F6EE
:104280008FEFE81AF80A2EE0E216F10481F6AE820A
:10429000AF8218860E9441248160782F9A8789878F
:1042A0004E815F8168858A850E94851980915D05B0
:1042B00090915E050E9417249C0190915C059923C2
:1042C00021F02431310508F476C080915805F09032
:1042D000590581110BC0F1108EC020915A05211192
:1042E0008AC020915B05211186C065C09F3F19F0EF
:1042F0009F5F90935C05181624F40E9466238093B8
:1043000058058091580587FF05C00E946623819556
:10431000809358051F1424F40E9466238093590546
:104320008091590587FF05C00E946623819580937F
:104330005905309158053323D1F020915905222396
:10434000B1F045EB3403C0011124992319F0909387
:10435000580502C0B092580535EB2303C001112463
:10436000992319F09093590502C0B0925905809194
:104370005A05181624F40E94442380935A0580910C
:104380005A0587FF05C00E944423819580935A05F2
:1043900080915B05181624F40E94442380935B05EA
:1043A00080915B0587FF05C00E944423819580931F
:1043B0005B050E944D240E948C1A90915F0589171D
:1043C00009F4DECE0E948C1A80935F05D9CE99BC89
:1043D00089BC09B400FEFDCF8091D8008F7D809309
:1043E000D8008091E00082608093E0008091E0003E
:1043F00081FDFCCFC5CE9F3F09F07ACF8BCF809156
:1044000015060895CF93DF9300D01F92CDB7DEB786
:1044100090913806943019F589837B836A8382E012
:104420008093E9008FEF9091E800815095FD06C0E0
:1044300095ED9A95F1F700008111F5CF8091E80094
:1044400085FF0DC040E050E063E070E0CE010196D2
:104450000E94802C8091E8008E778093E8000F9076
:104460000F900F90DF91CF910895CF93DF93EC01E0
:104470000E94B01F823011F0843031F4BE0184E01C
:10448000DF91CF910C940222DF91CF910895BC016E
:104490006058710983E00C940222CF93DF93EC0102
:1044A0000E94B01F823011F08430F9F482E08093D2
:1044B000E9008FEF9091E800815095FD06C095EDE1
:1044C0009A95F1F700008111F5CF8091E80085FF02
:1044D0000CC040E050E066E070E0CE010E94802C0D
:1044E0008091E8008E778093E800DF91CF91089566
:1044F000CF93DF93EC010E94B01F823011F0843023
:10450000D9F580911801882339F08091430587FF00
:1045100003C060E282E002C068E081E08093E900CD
:104520008FEF9091E800815095FD06C095ED9A952A
:10453000F1F700008111F5CF8091E80085FF1CC0E4
:1045400080911801811105C040E050E068E070E002
:1045500003C070E040E050E0CE010E94802C8091CA
:10456000E8008E778093E80080E2FE01A6E1B6E0E5
:1045700001900D928A95E1F7DF91CF910895803FE8
:1045800039F48091590587FF6CC01092590569C0B4
:10459000813F29F4809159051816BCF362C09091AF
:1045A0005805823F29F497FF5CC01092580559C006
:1045B000833F19F41916CCF354C0893F41F480911C
:1045C0005A0518160CF04DC010925A054AC08A3F81
:1045D00029F480915A0587FF44C0F6CF8B3F39F408
:1045E00080915B0587FF3DC010925B053AC08C3F10
:1045F00029F480915B051816BCF333C0843F21F485
:10460000809157058E7F17C0853F21F48091570513
:104610008D7F11C0863F21F4809157058B7F0BC0A1
:10462000873F21F480915705877F05C0883F31F48B
:10463000809157058F7E8093570513C08D3F21F4DD
:10464000809111068E7F0BC08E3F21F48091110660
:104650008D7F05C08F3F29F4809111068B7F809359
:1046600011068091580581110EC080915905811164
:104670000AC080915A05811106C080915B058111A5
:1046800002C010925C0508958091110680FD16C04D
:1046900081FD16C082FD18C080915C05882391F0D1
:1046A000883290F428E0829FC001112468E270E013
:1046B0000E946632862F672B29F007C082E008959A
:1046C00084E0089581E0089588E0089580911106BE
:1046D00080FD17C081FD17C082FD19C080915C0567
:1046E000882399F08C3398F423E2829FC00111242F
:1046F0006CE370E00E946632862F672B49F481E0FC
:10470000089588E0089581E1089585E0089583E2A1
:104710000895803F21F40E946623819504C0813F63
:1047200029F40E946623809359050895823F21F45D
:104730000E946623819504C0833F29F40E9466236A
:10474000809358050895893F19F40E94442305C0B9
:104750008A3F31F40E944423819580935A0508953D
:104760008B3F21F40E944423819504C08C3F29F49F
:104770000E94442380935B050895843F21F4809137
:104780005705816017C0853F21F4809157058260ED
:1047900011C0863F21F48091570584600BC0873F8C
:1047A00021F480915705886005C0883F31F48091DD
:1047B000570580618093570508958D3F21F48091BE
:1047C000110681600BC08E3F21F48091110682603A
:1047D00005C08F3F29F480911106846080931106F3
:1047E000089578941F920F920FB60F9211248F9311
:1047F0009F93AF93BF9380910D0690910E06A09169
:104800000F06B09110060196A11DB11D80930D06F3
:1048100090930E06A0930F06B0931006BF91AF9130
:104820009F918F910F900FBE0F901F901895CF9270
:10483000DF92EF92FF920F931F932FB7F89440915E
:104840000D0650910E0660910F06709110062FBF55
:104850006A017B01EE24FF248C0120E030E0C016C9
:10486000D106E206F30610F4415051099A01281BC3
:10487000390BC9011F910F91FF90EF90DF90CF90FE
:1048800008952FB7F89480910D0690910E06A0918F
:104890000F06B09110062FBF0895E0914505F091E5
:1048A0004605309749F082E0809356050480F581F3
:1048B000E02D86E595E009950E94412490935E05E0
:1048C00080935D0508951F920F920FB60F921124E9
:1048D0008F939F93AF93BF9380914705811113C02E
:1048E00080910D0690910E06A0910F06B0911006D2
:1048F0004196A11DB11D80930D0690930E06A093C5
:104900000F06B0931006BF91AF919F918F910F90BA
:104910000FBE0F901F901895209118012223C9F007
:104920002091430527FF15C0262F2695269526950D
:104930002E31C8F4FC01E20FF11D677081E090E0B8
:1049400001C0880F6A95EAF7809592818923828356
:104950000895FC0106962281621301C012823196ED
:10496000E817F907C1F70895209118012223C1F033
:104970002091430527FF14C0262F269526952695BE
:104980002E3130F5FC01E20FF11D677081E090E0FF
:1049900001C0880F6A95EAF79281892B8283089576
:1049A000FC0132962FEF30E04191641789F02F3FE0
:1049B00019F4411101C0232F3F5F3630A9F72F3F73
:1049C00039F0FC01E20FF11D27FDFA95628308958D
:1049D0000895CF9384E090E00E946E30C82F81E26A
:1049E00090E00E946E302C2F30E0A901582BCA01B4
:1049F000CF9108956FEE7EEF80E090E00E94B0309E
:104A000060E082E090E00E94923060E083E090E01D
:104A10000E9492301092090610920A0610920B061C
:104A200010920C0660E084E090E00E94923060E01A
:104A300081E290E00E94923060E085E090E00E9488
:104A4000923060E086E090E00E9492306FEF87E065
:104A500090E00E94923040E050E0BA0188E090E09F
:104A60000E94A43060E08DE090E00E94923040E02F
:104A700050E0BA0188E190E00E94A43060E087E154
:104A800090E00E94923040E050E0BA018CE190E06A
:104A90000E94A43060E080E290E00E949230109288
:104AA000310510923205109233051092340584E0DE
:104AB00080618093310540913105509132056091BC
:104AC0003305709134058FE090E00E94A43040E0FF
:104AD00050E0BA0183E190E00C94A430CF92DF92D1
:104AE000EF92FF926C01EE24FF24C114D104E10483
:104AF000F10421F0C701B60120E101C020E0C72E7A
:104B0000D82EE92EFF24C114D104E104F10419F0D8
:104B1000285FC701B6016B017C0154E0F694E7946D
:104B2000D794C7945A95D1F7C114D104E104F10484
:104B300019F02C5FC701B6016B017C0142E0F694CD
:104B4000E794D794C7944A95D1F7C114D104E104EE
:104B5000F10419F02E5FC701B601DC01CB01B69557
:104B6000A79597958795892B8A2B8B2B09F02F5F1B
:104B7000822FFF90EF90DF90CF90089580910806EC
:104B800081111092080608959091070680910606FB
:104B9000892B20910506982F922B90937105809177
:104BA00008068823D9F0892B80937105809118011C
:104BB000882331F08091430587FF02C08EE101C058
:104BC00086E0E3E7F5E090E0815028F02191222390
:104BD000D9F39F5FF9CF91110E94BE25E091450561
:104BE000F09146053097A9F080911801882359F07B
:104BF0008091430587FF07C08091710580937205FE
:104C000085E0809371050280F381E02D81E795E0D6
:104C100009940895BF92CF92DF92EF92FF920F9383
:104C20001F93CF93DF938C01C0900006D0900106B4
:104C3000E0900206F09003068091090690910A0622
:104C4000A0910B06B0910C06C82AD92AEA2AFB2AA1
:104C5000CFE1D0E0D701C6010C2E04C0B695A795D0
:104C6000979587950A94D2F780FD04C0219790F715
:104C7000B12C07C0BC2EB8018C2F0E94860F019763
:104C8000A9F38B2DDF91CF911F910F91FF90EF90A2
:104C9000DF90CF90BF900895CF93DF93EC010E94F7
:104CA0000A26BE010E94860FDF91CF910895292F19
:104CB000220F920F990F890F682F6695669566955A
:104CC000982F977085E0689FB001112440E050E074
:104CD00080E0FB01E40FF51FE753FA4F208130E03D
:104CE000092E02C0369527950A94E2F721703327E2
:104CF000042E01C0220F0A94EAF7822B4F5F5F4F08
:104D00004530510531F70895292F220F920F990F41
:104D1000890FE82FE695E695E695877051E001C08A
:104D2000550F8A95EAF785E0E89FF0011124E753D3
:104D3000FA4F20E030E070E04081CB01022E02C04B
:104D4000969587950A94E2F781708195842785234B
:104D5000842781932F5F3F4F2530310569F70895F0
:104D60000E94601160930006709301068093020612
:104D7000909303060C94C6290F931F9341E050E0D3
:104D800060E070E004C0440F551F661F771F8A95CE
:104D9000D2F740955095609570958091000690915E
:104DA0000106A0910206B09103068A019B01082327
:104DB00019232A233B23C901B8011F910F910C9499
:104DC000B026209104068095822380930406982FB4
:104DD000977079F430E0482F082E000C550B2417FB
:104DE000350739F08595859585950E94BC261092EA
:104DF000040608950F931F9341E050E060E070E0D7
:104E000004C0440F551F661F771F8A95D2F7809103
:104E1000000690910106A0910206B09103068A0156
:104E20009B01082B192B2A2B3B2BC901B8011F9181
:104E30000F910C94B0266093090670930A06809334
:104E40000B0690930C060C94C6298091C80590918E
:104E50009705891719F08F5F8770FBCF0895CF935F
:104E60008091960582958F7009F05FC080919305BF
:104E7000882309F45AC08091C805B09197057091B4
:104E80009105A0919205409194055091950591E06E
:104E90007F3F09F090E0692FC6E08B1709F445C009
:104EA0004115510521F0AF3F21F020E003C021E082
:104EB00001C0262F90E020FD35C0C89FF001C99F9A
:104EC000F00D1124E856FA4F21812A132BC02081BE
:104ED000271328C02281211125C023813481241762
:104EE000350710F421503109241B350B283C3105BE
:104EF000C8F4209196052F7020612093960526E036
:104F0000289FF001299FF00D1124E356FA4F80816C
:104F10008F708061808381E995E00E946A05CF915E
:104F20000C94252701968770B8CFCF9108950E94E1
:104F30004C26292F2F70E92FE295EF704E2F50E06D
:104F4000FA013297EE30F105B8F4E656FF4F0C94B3
:104F50007A32803F99F018F4883E70F40FC0843F95
:104F600059F40CC0883E50F0813F31F407C0822FC5
:104F7000869586958695089580E0089581E0089548
:104F8000882341F080959091060689238093060638
:104F90000C94C4250895882339F090910606892B36
:104FA000809306060C94C4250895882341F08095CB
:104FB000909107068923809307060C94C4250895D1
:104FC000882339F090910706892B809307060C946B
:104FD000C4250895AF92BF92CF92DF92EF92FF92D5
:104FE0000F931F93CF93DF93CDB7DEB761970FB6C3
:104FF000F894DEBF0FBECDBF8C0185E0F801DE0165
:105000001D9601900D928A95E1F7D8013C91119679
:105010002C9111971296EC90509191056091920508
:105020008091940590919505009731F06F3F31F490
:1050300041E05F3F19F403C041E001C040E0B42FFC
:10504000B170BB2E40FD43C1F801C380D480A09055
:105050009305AA2009F4E2C040919605C816D90626
:1050600028F0D601A81BB90BCD0104C080959095FE
:105070008C0D9D1DFF24F394883C910548F0F12C84
:10508000407F09F090C081E995E00E946A0517C150
:10509000842F807F09F052C0621312C0531310C0D6
:1050A000FE2CE1100DC04F7040614093960581E9E0
:1050B00095E00E946A0580919605F801858354C1A8
:1050C000CD2831F02F3F31F481E03F3F19F403C088
:1050D00081E001C080E080FD03C081E08E2502C038
:1050E00080E090E0F82FF170FF2E80FF1CC08091CF
:1050F000C8054091970556E0841709F412C190E065
:10510000589FF001599FF00D1124E856FA4F618124
:10511000261306C06081361303C06281E61203C005
:1051200001968770E9CFFE2CEE2009F41DC1809115
:105130009605816080939605F12C16C1621308C014
:10514000531306C0E11004C080919605F80199C080
:105150003D872E878D859E850E949727882369F13C
:10516000EE2059F120919605822F82958F7090E064
:10517000029774F0809191059091920598878F83A2
:105180001986DB86CA862C87CE0107960E946A059F
:1051900086E0F801A1E9B5E001900D928A95E1F76A
:1051A0000E942F270DC0621771F03D872E878D85D5
:1051B0009E850E94972781111AC0C8010E946A0526
:1051C000FF24F394D1C05313F0CFE110EECF8091C0
:1051D0009605F8018583C8010E946A0586E0E1E929
:1051E000F5E0DF011D928A95E9F7FA2CBDC0EE20AB
:1051F00021F320919605822F82958F7090E002977F
:105200003CF280919105909192059A8389831B824B
:10521000DD82CC822E83CE010196B8CFC816D90686
:1052200038F0C81AD90AB8ECCB16D10450F007C030
:10523000809590958C0D9D1D883C910510F0F12C6A
:105240003EC0FE2CEE2009F4B8CF621327C05313E2
:1052500025C02091960520FD18C0822F82958F7061
:10526000482F50E04115510581F0F80125834F305A
:10527000510541F08F5F982F9295907F822F8F700C
:10528000892B8583C8010E946A0586E0F801A1E99F
:10529000B5E001900D928A95E1F766C03D872E87B3
:1052A0008D859E850E949727811172CF80919605EA
:1052B000816080939605C8010E946A0555C0E1E9A6
:1052C000F5E086E0DF011D928A95E9F74DC0EE20FA
:1052D00009F473CF3D872E878D859E850E94972781
:1052E000F82E882309F469CF86E0F801A1E9B5E03A
:1052F00001900D928A95E1F7809191059091920528
:105300000E944C2692959F70963041F4809113062E
:1053100091E0892780931306909312060E942F270D
:1053200023C03D872E878D859E850E944C26292F80
:1053300022952F70223028F49F7039F0811105C01A
:105340000BC0243028F49F7049F4805E883020F030
:10535000C8010E946A05BF2CFB2C06C0D801159617
:105360009C91907F91F7F8CF8F2D61960FB6F894AE
:10537000DEBF0FBECDBFDF91CF911F910F91FF9088
:10538000EF90DF90CF90BF90AF90089510920606F7
:10539000109205060E94C425E6E5F5E086E0DF01EF
:1053A0001D928A95E9F710925C05109211060E94F1
:1053B0004D2480E090E00E94761A80E090E00C940A
:1053C000601A1092070680911801882331F08091AD
:1053D000430587FF02C08EE101C086E0E3E7F5E008
:1053E000DF011D928A95E9F70C94C629882309F4F8
:1053F00063C0823869F40E948C1A81FF5DC069E342
:1054000081E795E00E94B4240E94C42569E30EC0A0
:10541000833891F40E948C1A80FF4EC063E581E7C7
:1054200095E00E94B4240E94C42563E581E795E0DD
:105430000E948C240C94C425843869F40E948C1A30
:1054400082FF3AC067E481E795E00E94B4240E949D
:10545000C42567E4EBCF9CEF980F913A10F4682FC6
:10546000E5CF90E2980F983088F4877021E030E023
:10547000A90102C0440F551F8A95E2F7CA01809521
:1054800090910706892380930706D4CF9BE5980F58
:10549000933020F480E090E00C94761A98E5980F11
:1054A000973120F480E090E00C94601A803F20F067
:1054B0000E94BF220C944D240895882309F489C0CA
:1054C0008238B1F40E948C1A81FD83C069E381E7C0
:1054D00095E00E94B4240E94C4252FEF41EE54E0D1
:1054E000215040405040E1F700C0000069E317C080
:1054F0008338D9F40E948C1A80FD6BC063E581E784
:1055000095E00E94B4240E94C4258FEF91EE24E020
:10551000815090402040E1F700C0000063E581E742
:1055200095E00E948C240C94C4258438B1F40E9428
:105530008C1A82FD4EC067E481E795E00E94B42496
:105540000E94C4254FEF51EE84E04150504080400E
:10555000E1F700C0000067E4E2CF9CEF980F913ABA
:1055600030F4682F81E795E00E94B424DCCF90E20C
:10557000980F983080F4877021E030E0A90102C0D4
:10558000440F551F8A95E2F7CA0190910706892BAF
:1055900080930706C8CFEBE5E80FE33038F4F0E07E
:1055A000EC56FD4F808190E00C94761AE8E5E80F08
:1055B000E73148F4F0E0EE0FFF1FE956FD4F808120
:1055C00091810C94601A803F20F00E9489230C94F2
:1055D0004D240895CF93C82F0E945D2AC93349F402
:1055E0002FEF87EE93E0215080409040E1F700C01C
:1055F00000008C2FCF910C94F6299F92AF92BF920E
:10560000CF92DF92EF92FF920F931F93CF93DF938E
:105610006C0180911901C82FCC0FCC0FC80F15E079
:105620001C0F113308F010E360914E0666956695E5
:1056300080914206909143060E941D1CD82F80E461
:105640008D0F0E94A21B90E8F92EF80E8D2F0E945C
:10565000A21B20E8922E980EC11700F5AC2EB12C9B
:10566000F501E758FC4F908180911A018923A1F040
:1056700060914B0670914C0680914D06ED2E0C2FDB
:10568000292D4F2DF60109950E94271C462F282F02
:10569000672FC5010E94DD1ACF5FDECF81E0103396
:1056A00008F080E0DF91CF911F910F91FF90EF9074
:1056B000DF90CF90BF90AF909F9008956F927F92B0
:1056C0008F929F92AF92BF92CF92DF92EF920F9301
:1056D0001F93CF93DF933C0180911901C82FCC0F0A
:1056E000CC0FC80FD5E0DC0FD13308F0D0E36091C8
:1056F0004E06669580914206909143060E941D1CBD
:10570000182FCD1708F044C08C2E912CF401E758C7
:10571000FC4F908180911A018923C1F1F401EE0FB1
:10572000FF1FE75EFC4FC080D12C80E7C81AD1086C
:10573000F401EE0FFF1FE65EFC4FA080B12CE0E20B
:10574000AE1AB108CC9C9001CD9C300D300D1124C7
:10575000AA9CC001AB9C900D900D1124820F931F49
:105760000E94C31B082F60914B0670914C068091DC
:105770004D06E12E9501A601F30109950E94271C13
:10578000462F282F672FC4010E94DD1ACF5FB9CFA3
:1057900081E0D03308F080E0DF91CF911F910F912D
:1057A000EF90DF90CF90BF90AF909F908F907F90C1
:1057B0006F900895CF92DF92EF92FF920F931F9315
:1057C000CF93DF936C0180911901C82FCC0FCC0FC0
:1057D000C80FD5E0DC0FD13308F0D0E360914E065E
:1057E000669580914206909143060E941D1C182FD9
:1057F000CD1778F5EC2EF12CF701E758FC4F90818E
:1058000080911A01892319F1F701EE0FFF1FE65E5F
:10581000FC4F208130E020523109F701EE0FFF1FCD
:10582000E75EFC4F408150E04057510960914B06C4
:1058300070914C0680914D06012FF60109950E944A
:10584000271C462F282F672FC7010E94DD1ACF5F24
:10585000CFCF81E0D03308F080E0DF91CF911F916E
:105860000F91FF90EF90DF90CF900895DF92EF922D
:10587000FF920F931F93CF93DF938C0180911901B7
:10588000C82FCC0FCC0FC80FD5E0DC0FD13308F0F8
:10589000D0E360914E0666956695809142069091A0
:1058A00043060E941D1CD82ECD17F0F4EC2EF12CCF
:1058B000F701E758FC4F908180911A01892391F0FC
:1058C00060914B0670914C0680914D062D2D4C2F0A
:1058D000F80109950E94271C462F282F672FC70122
:1058E0000E94DD1ACF5FE0CF81E0D03308F080E086
:1058F000DF91CF911F910F91FF90EF90DF9008956E
:10590000EF92FF920F931F93CF93DF937C018B0154
:105910000E948F1D811119C0E70101151105A1F029
:105920008091E80085FD0AC08091E8008E77809321
:10593000E8000E948F1D882381F307C0899180931E
:10594000F10001501109E9CF80E0DF91CF911F9163
:105950000F91FF90EF9008951F93CF93DF93CDB7F2
:10596000DEB7AA970FB6F894DEBF0FBECDBFEAE34D
:10597000F6E08091F100819326E0E234F207C9F766
:1059800080913B06833009F460C030F4813071F0BF
:10599000823009F49AC0B1C08A3009F486C08B30D5
:1059A00009F46BC0893009F0A8C020C080913A0684
:1059B000813A09F0A2C08091E800877F8093E800D7
:1059C00080913E0690913F06892B21F460E286E1AA
:1059D00096E003C060E080E090E070E00E94521F1B
:1059E0008091E8008B778093E80087C080913A0629
:1059F000813209F082C080913E0690913F06029765
:105A000008F07BC08091E800877F8093E800809158
:105A1000E80082FD05C0809138068111F8CF6DC085
:105A20002091F3008091F20090E0922B029729F4EC
:105A30008091F1008B7F813021F48091F10080937F
:105A400015068091E8008B7754C080913A06813A20
:105A500009F053C080913E0690913F06892B09F0D2
:105A60004CC08091E800877F8093E8008091E80037
:105A700080FFFCCF8091180137C080913A068132B7
:105A8000E1F580913E0690913F06892BB1F580911A
:105A9000E800877F8093E8000E94C21D80913C0649
:105AA000809318010E94E12928C080913A06813232
:105AB00021F58091E800877F8093E8000E94C21D55
:105AC00080913D068093140618C080913A06813A71
:105AD000A1F48091E800877F8093E8008091E8003E
