:100000000C94DF030C94FC030C94FC030C94FC0391
:100010000C94FC030C94FC030C94FC030C94FC0364
:100020000C94FC030C94FC030C940E1A0C94CA1947
:100030000C94DC2E0C94FC030C94FC030C94FC0339
:100040000C94FC030C94FC030C94FC030C94FC0334
:100050000C94FC030C94E8150C94FC030C94FC0326
:100060000C94FC030C94FC030C94FC030C94FC0314
:100070000C94FC030C94FC030C94FC030C94FC0304
:100080000C94FC030C94FC030C94FC030C94FC03F4
:100090000C94FC030C94FC030C94FC030C94FC03E4
:1000A0000C94FC030C94FC030C94FC030000000073
:1000B0000000000000000000000000000000000040
:1000C0007E0F00D4FFFFFFC7000000780000000093
:1000D000000000002A2B28000000000000000000A3
:1000E0000000000000000029000000002C1E342049
:1000F000212224342627252E362D3738271E1F206F
:100100002122232425263333362E37381F040506B3
:100110000708090A0B0C0D0E0F10111213141516F7
:100120001718191A1B1C1D2F3130232D35040506F5
:100130000708090A0B0C0D0E0F10111213141516D7
:100140001718191A1B1C1D2F3130354C00010101E5
:100150000101010101010202020202020202020384
:100160000303030303030304040404040404050554
:100170000505050606060606070707070708080817
:1001800008090909090A0A0A0B0B0B0C0C0C0D0DC6
:100190000D0E0E0E0F0F0F1010111111121213135E
:1001A0001414151516161717181819191A1A1B1BD7
:1001B0001C1D1D1E1E1F2020212222232424252633
:1001C00026272829292A2B2C2D2D2E2F303132326B
:1001D000333435363738393A3B3C3D3E3F40414277
:1001E000434445464748494A4C4D4E4F505153545D
:1001F000555658595A5B5D5E5F6162646566686911
:100200006B6C6D6F7072737577787A7B7D7E808290
:10021000838587888A8C8E8F91939596989A9C9ED9
:10022000A0A2A3A5A7A9ABADAFB1B3B5B7BABCBEE9
:10023000C0C2C4C6C9CBCDCFD1D4D6D8DBDDDFE2B6
:10024000E4E7E9EBEEF0F3F5F8FAFDFF2E002B0002
:100250002900D75C354100001E00140004001D6118
:10026000085D4D001F001A0016001B00E1042A0063
:10027000200008000700060050002C002100150097
:10028000090019004F004A00220017000A0005006B
:1002900000006564010002530000576F0000E30096
:1002A0000353015300000F5D0000E20023001C0017
:1002B0000B00110000002961240018000D0010003F
:1002C00052004B0025000C000E00360051002800A3
:1002D000260012000F0037002F004C0027001300EB
:1002E0003342387130002D002D0031003468D85C65
:1002F000015100002900010001000100010000007F
:100300003A001E02200222022E000E5D3B001F0258
:10031000210223020100C95C3C002F0226022F00AB
:100320000100CA5C3D0030022702300001000D5D73
:100330003E003102350035020000C35C01000100BF
:100340000000010000000C5D010001000000010040
:100350000000C25C3F0052005100240200000B5D0F
:100360004000240021001E00010001004100250082
:1003700022001F003700C55C420026002300200039
:100380002700C65C430025022E0231002E0001002A
:10039000440045003402010001000000010001009A
:1003A0000100010001000000010001000100010046
:1003B0000100010001000100F20001000100010044
:1003C0000100F000F1000100F40001000100010053
:1003D000F3000100F500010001000100010001002F
:1003E0000000010001000100000001000000010008
:1003F00001000100000001000000010001000100F7
:100400000100010000000100010001005000010096
:10041000A9000100010052005100AC00AA00010037
:10042000010001004F00AB00A80001000100010025
:100430000100010001000100005C0100AE000100AC
:1004400001000000010001000100010001000000A6
:100450000100010001000100010001000100010094
:100460001500010001000100010009001600010053
:10047000010001000100130017000100010001004C
:1004800001000A0007000100000001000100010056
:100490000000010000000100010001000000010057
:1004A0000000010001000D0001000E00000001002D
:1004B00001000F00110001000100010001001800FF
:1004C000080001000100010001001C000C000100F7
:1004D00001000100010033001200010001000100D1
:1004E00001000100010001000100000001012C01D8
:1004F000043130307C0102E10101220103E10104F9
:100500003130307C0102E10101370103E1010431A6
:1005100030307C0102E10101220103E101043130AC
:10052000307C010128000A00000000000306B20030
:10053000080001000000A800080002000200A0005E
:100540001400030057494E555342000000000000BC
:10055000000000008400040007002A004400650039
:10056000760069006300650049006E007400650054
:100570007200660061006300650047005500490095
:1005800044007300000050007B003900440042002A
:10059000370046003100460044002D00370045007A
:1005A000370041002D0034003000300038002D00AD
:1005B00039003300360042002D0036004200410071
:1005C000360043003100390041003300300038006C
:1005D00063007D00000000001B0301636F6E66690D
:1005E000677572652E6572676F646F782D657A2EF8
:1005F000636F6D0005010902A10185020901A100D7
:1006000005091901290515002501950575018102C6
:100610009501750381010501093009311581257F97
:1006200095027508810609381581257F95017508A1
:100630008106050C0A38021581257F950175088110
:1006400006C0C005010980A10185031A81002A8323
:1006500000160100260300950175108100C0050CED
:100660000901A10185041A01002A9C021601002635
:100670009C02950175108100C005010906A1018544
:1006800005050719E029E715002501950875018181
:10069000020507190029EF1500250195F075018164
:1006A0000205081901290595057501910295017545
:1006B000039101C005010906A101050719E029E719
:1006C00015002501950875018102950175088101C4
:1006D0000507190029FF150026FF009506750881FA
:1006E0000005081901290595057501910295017507
:1006F000039101C009025200030100A0FA0904009D
:10070000000103010100092111010001224000073D
:1007100005810308000A0904010001030000000923
:10072000211101000122C0000705820320000A09EF
:1007300004020002FF0000000705830340000507D4
:100740000504034000051201100200000008EDFE40
:100750000713010001020301040330000000160327
:100760004500720067006F0064006F007800200091
:1007700045005A00000008035A00530041000000E1
:1007800004030904050F3900021C100500DF60DDB9
:10079000D88945C74C9CD2659D9E648A9F00000302
:1007A00006B20045001810050038B60834A909A0A3
:1007B000478BFDA0768815B6650001420000112424
:1007C0001FBECFEFDAE0DEBFCDBF13E0A0E0B1E0A7
:1007D000E2E8F9E602C005900D92A63BB107D9F711
:1007E00026E0A6EBB3E001C01D92A536B207E1F703
:1007F0000E94B72B0C946A340C940000E8EDF0E0F2
:1008000080818E7F80831092E2001092DA00109235
:10081000E100A0EEB0E08C9181608C9380818F77B5
:10082000808319BCA7EDB0E08C918E7F8C93808182
:100830008F7E80831092240608952091E4003091E9
:10084000E50095E6A9012091EC00822F817020FF40
:1008500006C08091E80080FF06C080E008952091E6
:10086000E80022FD1AC080914A06882389F085306D
:1008700089F08091EB0085FD0FC02091E40030915C
:10088000E50042175307F9F29150E1F684E008952C
:1008900082E0089583E0089581E00895EF92FF9249
:1008A0000F931F93CF937C018B010E941D04C82FCF
:1008B000882371F08C2FCF911F910F91FF90EF90B3
:1008C0000895F70181917F018093F1000150110992
:1008D0000115110579F38091E80085FDF2CF809133
:1008E000E8008E778093E8000E941D04882381F33E
:1008F000C82FE0CF80914C0687FF13C08091E8009D
:1009000082FF06C08091E8008B778093E80004C0E6
:1009100080914A068111F2CF089580914A0688237A
:10092000D9F38091E80080FFF8CF8091E8008E77BE
:10093000ECCF982F9093E900242F762F50E0891761
:1009400031F07091EC002091ED005091F00021FD0C
:1009500007C09F5F973071F78093E90081E00895A9
:100960003091EB003E7F3093EB003091ED003D7F06
:100970003093ED003091EB0031603093EB007093D9
:10098000EC002093ED005093F0002091EE0027FD45
:10099000E0CF80E00895CF92DF92EF92FF920F9325
:1009A0001F93CF93DF93C8EDD0E088818F7E88833B
:1009B000E7EDF0E080818160808384E082BF81E0A8
:1009C0008093240688818E7F888302EE10E0F801F0
:1009D00010821092DA0081EEC82ED12CF60110821E
:1009E00088818F77888388818068888388818F7DDC
:1009F000888319BC10924A0610924B061092490641
:100A00001092480690EEE92EF12CF70180818B7F41
:100A1000808388818160888342E060E080E00E947A
:100A20009904F60180818E7F8083F8018081816046
:100A30008083808188608083F70180818E7F8083BE
:100A4000888180618883DF91CF911F910F91FF9002
:100A5000EF90DF90CF900895FC0180915206909125
:100A6000530686179707A0F06115710529F4809148
:100A7000E8008E778093E80090E06115710551F4ED
:100A8000911108C08091E80082FF35C080E0089590
:100A9000BC01F2CF80914A068823C9F18530C9F1A3
:100AA0008091E80083FD31C08091E80082FDEACFAB
:100AB0008091E80080FFE1CF8091F3002091F20067
:100AC000382F6115710519F02830310558F091E083
:100AD0002830310509F090E08091E8008E7780930E
:100AE000E800CBCF84918093F10031966150710979
:100AF0002F5F3F4FE6CF80914A06882341F0853033
:100B000041F08091E80083FFBDCF81E0089582E04D
:100B1000089583E00895FC01809152069091530658
:100B200086179707A0F06115710529F49091E800E8
:100B30009E779093E80090E06115710551F4911152
:100B400008C08091E80082FF34C080E00895BC01B5
:100B5000F2CF80914A068823C1F18530C1F180919E
:100B6000E80083FD30C08091E80082FDEACF8091EB
:100B7000E80080FFE1CF8091F3002091F200382F50
:100B80006115710519F02830310558F091E02830D1
:100B9000310509F090E02091E8002E772093E800DD
:100BA000CBCF81918093F100615071092F5F3F4F4E
:100BB000E7CF80914A06882341F0853041F080914B
:100BC000E80083FFBECF81E0089582E0089583E0CE
:100BD000089580914A06843011F482E0089581E0FE
:100BE000089580912706089520914A06243099F4AB
:100BF00023E02093E90070E050E040E00E944E04C2
:100C0000882321F010922206109223068091E8009A
:100C10008E778093E800089590910606803F41F416
:100C20008091070687FD10920706992371F00895B9
:100C3000813F29F4809107061816ACF3F6CF823F66
:100C400081F497FFF2CF10920606809107069091EB
:100C50000806892B90910906892B49F710920A06FC
:100C60000895833F19F4191674F3DFCF893F39F4DF
:100C7000809108061816CCF610920806D6CF8A3F47
:100C800029F48091080687FFD0CFF6CF8B3F39F447
:100C90008091090687FFC9CF10920906C6CF8C3F05
:100CA00029F4809109061816BCF3BFCF843F31F4B4
:100CB000809105068E7F80930506B7CF853F21F48E
:100CC000809105068D7FF7CF863F21F48091050640
:100CD0008B7FF1CF873F21F480910506877FEBCF93
:100CE000883F21F4809105068F7EE5CF8D3F31F45A
:100CF0008091D8058E7F8093D80597CF8E3F21F4C1
:100D00008091D8058D7FF7CF8F3F09F08ECF8091EE
:100D1000D8058B7FF0CF8091D80580FD16C081FD6E
:100D200016C082FD16C080910A068823A1F0883281
:100D300080F428E0829FC001112468E270E00E94E4
:100D4000F72F862F672B39F0089582E0089584E00D
:100D5000089588E0089581E008958091D80580FD88
:100D600016C081FD16C082FD18C080910A06882336
:100D700091F08C3390F423E2829FC00111246CE344
:100D800070E00E94F72F862F672B49F0089588E0C6
:100D9000089581E1089585E0089583E2089581E052
:100DA0000895803F31F40E94AD0681958093070637
:100DB0000895813F19F40E94AD06F8CF823F31F4C7
:100DC0000E94AD068195809306060895833F19F42D
:100DD0000E94AD06F8CF893F29F40E948B068093CC
:100DE000080608958A3F21F40E948B068195F7CF6B
:100DF0008B3F31F40E948B068195809309060895FC
:100E00008C3F19F40E948B06F8CF843F31F4809117
:100E100005068160809305060895853F21F4809141
:100E200005068260F7CF863F21F480910506846035
:100E3000F1CF873F21F4809105068860EBCF883F92
:100E400021F4809105068061E5CF8D3F31F48091DA
:100E5000D80581608093D80508958E3F21F4809154
:100E6000D8058260F7CF8F3FB9F78091D8058460AD
:100E7000F1CFCF92DF92EF92FF920F931F932FB794
:100E8000F8944091D4055091D5056091D6057091A4
:100E9000D7052FBF6A017B01EE24FF248C0130E0CF
:100EA00020E0C016D106E206F30650F0481B590BAD
:100EB000CA011F910F91FF90EF90DF90CF9008959E
:100EC00041505109F3CFCF92DF92EF92FF926C0124
:100ED000EE24FF2420E0C114D104E104F10419F050
:100EE000C701B60120E1C72ED82EE92EFF24C11478
:100EF000D104E104F10419F0285FC701B6016B01C8
:100F00007C0154E0F694E794D794C7945A95D1F7AE
:100F1000C114D104E104F10419F02C5FC701B6013A
:100F20006B017C0142E0F694E794D794C7944A950C
:100F3000D1F7C114D104E104F10419F02E5FC70107
:100F4000B6019695879577956795672B682B692BE2
:100F500009F02F5F822FFF90EF90DF90CF900895E0
:100F60008091CF0581111092CF0508958091CE0513
:100F70009091CD05892B9091CC05892B8093B60358
:100F80009091CF059923A1F0892B8093B60380918E
:100F90001801882341F18091F10587FF24C08EE17B
:100FA000E8EBF3E090E0815000F591110E94B0076A
:100FB000E091F305F091F4053097E1F0809118018C
:100FC000882359F08091F10587FF07C08091B6030F
:100FD0008093B70385E08093B6030280F381E02D10
:100FE00086EB93E0099486E0DBCF21912223D9F2AE
:100FF0009F5FD9CF0895909118019923D1F09091D6
:10100000F10597FF16C0E82FE695E695E695EE31D7
:10101000E0F4F0E0EA54FC4F282F277081E090E0E4
:1010200001C0880F2A95EAF78095928189238283EF
:101030000895E8EBF3E09191891303C0DF01119764
:101040001C9293E0EE3BF907B1F7089590911801D7
:101050009923C1F09091F10597FF14C0E82FE69510
:10106000E695E695EE31F8F4F0E0EA54FC4F87702F
:1010700021E030E001C0220F8A95EAF78281822BBD
:1010800082830895A8EBB3E0EFEF90E02D918217F3
:1010900051F0EF3F19F4211101C0E92F9F5F963005
:1010A000A9F7EF3F09F408950E2E000CFF0BEA5448
:1010B000FC4FE6CFE92FEE0FE90FEE0F8E0F982FC2
:1010C000977086958695869525E0829FF00111247C
:1010D000EC56FA4F50E040E080E0219130E0092EDC
:1010E00002C0369527950A94E2F721703327042E23
:1010F00001C0220F0A94EAF7822B4F5F5F4F453001
:10110000510559F70895E92FEE0FE90FEE0F8E0FF5
:10111000982F977041E001C0440F9A95EAF78695A1
:101120008695869595E0899FF0011124EC56FA4F3B
:1011300030E020E070E05191DF011197CB01022EE9
:1011400002C0969587950A94E2F78170819585276C
:10115000842385278C932F5F3F4F2530310559F726
:1011600008958091930590916205981301C00895A8
:101170008F5F8770FACF882341F080959091CD05DD
:1011800089238093CD050C94B6070895882339F000
:101190009091CD05982B9093CD050C94B6070895AA
:1011A000882341F080959091CE0589238093CE05C8
:1011B0000C94B6070895882339F09091CE05982BAA
:1011C0009093CE050C94B607089520914105309177
:1011D00042052817390771F0909342058093410525
:1011E000E091F305F091F405309721F00084F1854A
:1011F000E02D0994089520913F053091400528176E
:10120000390771F09093400580933F05E091F30515
:10121000F091F405309721F00680F781E02D0994D4
:101220000895E091F305F091F405309721F00190D5
:10123000F081E02D099480E00895FA01811101C048
:10124000FB0109948033910538F5880F991F880FA9
:10125000991FFC01E85CFE4F5281338180818370CD
:10126000E181A82FB0E070E9879FC0011124895067
:101270009C4FE80FF92FF11DB4976083FC01E50F37
:10128000F11DB4974083830F911DFC01B497208317
:10129000AB50BC4F81E08C930895FF920F931F9346
:1012A000CF93DF93182F062FF42ED0E0C0E02F2D20
:1012B000402F612FCE010E9422092196C033D10513
:1012C000B1F7DF91CF911F910F91FF9008950C948A
:1012D0004D090C9422090F931F9310E0F801EE0FB3
:1012E000FF1FEB5DFC4F9081905797FD9195000F8C
:1012F000111FF801EA5DFC4F00810052110B200321
:10130000F001219FF00D112408E310E0091B1109E1
:1013100097FD139540039001419F300D1124E20F7A
:10132000F31F9F01220F331F2E0F3F1F37FF02C0F5
:1013300021583F4F220F232F221F330B620F1F9183
:101340000F9108950F931F93522F10E0F801EE0FA5
:10135000FF1FEA5DFC4FA081A052BB0B9D01520311
:10136000F001539FF00D1124000F111FD801AB5D48
:10137000BC4F0C910057110B40039001419F300D61
:1013800011242E0F3F1F37FF02C0215C3F4F96E014
:10139000359527959A95E1F7620F1F910F91089562
:1013A0000F931F93522F10E0F801EE0FFF1FEA5D1D
:1013B000FC4FA081A052BB0B9D015203F001539F33
:1013C000F00D1124000F111FD801AB5DBC4F0C9123
:1013D0000057110B40039001419F300D11242E0F37
:1013E0003F1F37FF02C021583F4F220F232F221FDC
:1013F000330B620F1F910F910895EF920F93972F68
:1014000023E0029FB0011124759567956E0D792F29
:101410000F91EF900895322F50E0FA01EE0FFF1F69
:10142000EA5DFC4F9081905297FD9195440F551FB6
:10143000FA01EB5DFC4F2081231B330B290F311D7B
:1014400097FD3A95620F0895E42FF0E0EE0FFF1F2D
:10145000EA5DFC4F6081621B0895E42FF0E0EE0F1F
:10146000FF1FEB5DFC4F6081621B0895622F0895A2
:10147000E42FF0E0EE0FFF1FEB5DFC4F408134EEF8
:10148000439F412D1124E82FF0E050E0445E5F4F70
:10149000DA01A21BB1099D01B7FF03C03195219567
:1014A000310993E0220F331F9A95E1F7AF01421BF8
:1014B000530B9A0157FD20E0582F259F212D112411
:1014C000822F0895E42FF0E0EE0FFF1FEB5DFC4F3D
:1014D000408134EE439F412D1124E72FF0E050E08E
:1014E000445E5F4FDA01A21BB1099D01B7FF03C043
:1014F00031952195310993E0220F331F9A95E1F739
:10150000AF01421B530B9A0157FD20E0279F212D6D
:101510001124722F0895FC019B01009729F480E0AB
:1015200077FF2BC080E80895AC0197FF04C04427E3
:101530005527481B590BB901640F751F37FD10C0A3
:10154000241B350BC901A5E0880F991FAA95E1F767
:101550000E94F72F80E2861BF7FF0FC08195089548
:10156000CB0165E0880F991F6A95E1F7BA01621B0C
:10157000730B0E94F72F80E6EECF0895EF920F9342
:10158000CF93DF93D72FC82FC9010E19BA010E943C
:101590008B0A602F681B7D2F8C2FDF91CF910F91CD
:1015A000EF9008950F93CF93DF93D72FC82FC901E2
:1015B000BA010E948B0A682F600F7D2F8C2FDF915C
:1015C000CF910F910895EF920F931F93CF93DF93D5
:1015D000D62FC72F182FC9010E19010FBA010E946B
:1015E0008B0A081B202F219F212D1124822F6D2F64
:1015F0007C2FDF91CF911F910F91EF900895EF9283
:101600000F931F93CF93DF93D62F172FC82FC901A6
:101610000E19070FBA010E948B0A702F781B719F59
:10162000712D11246D2F8C2FDF91CF911F910F9170
:10163000EF9008950F931F93CF93DF93D62FC72F6B
:10164000182FC901212F201B022FBA010E948B0ADB
:10165000982F990F990F891B800F282F219F212DDB
:101660001124822F6D2F7C2FDF91CF911F910F912D
:1016700008950F931F93CF93DF93D62F172FC82F63
:10168000C901272F201B022FBA010E948B0A982F15
:10169000990F990F782F791B700F719F712D11245D
:1016A0006D2F8C2FDF91CF911F910F910895E82F0F
:1016B00086FDE0952E2F2F7086FD2F5FE695E6952F
:1016C000E695E670F0E0E05DFE4F9181929F902DEF
:1016D000212D112492959F702295207F922B20819D
:1016E000920F87FD919580E8890F0895AC018230B3
:1016F000910508F408959FEF413E8EE1580740F4AC
:101700009A0195E0369527959A95E1F798E0920F22
:1017100061E0E62FE90FFF27FF1F9F013595279511
:10172000822F229FF001239FF00DF00D11244E1700
:101730005F0738F49FEF920F961758F78FEF860FD9
:1017400008952F3FE9F361E0620FF6CF0F93CF9337
:10175000DF93D72FC82F47FD419588E390E0841B86
:10176000910947FD9395889FB001899F700D700D79
:101770001124229FC001239F900D900D1124860FEC
:10178000971F0E94760B982F990F890F682F600F73
:101790007D2F8C2FDF91CF910F91089530E020E0C5
:1017A000869F212D969F200D311D1124C90108957A
:1017B000AF92BF92CF92DF92FF920F931F93CF937E
:1017C000DF93362F472FE82FF0E0E45BFE4F7111D7
:1017D0000DC06491762F862FDF91CF911F910F91CD
:1017E000FF90DF90CF90BF90AF900895C72FD0E0CB
:1017F0002491F22E022F10E056E0659FC0011124C3
:10180000EFEFF0E0BF010E94E32F832F90E0880FFD
:10181000991F35E5369FD001379FB00D11248A1BE3
:101820009B0B982F990F980F6F01CC1ADD0AC09E61
:10183000D001C19EB00DD09EB00D11248B2F949F6E
:10184000A0011124452F55276F01C41AD50AC09E47
:10185000A001C19E500DD09E500D11245F01A91A08
:10186000B108AC9E6001AD9ED00CBC9ED00C112482
:10187000CD2CDD24EC19FD09E09FE001E19FD00DA6
:10188000F09FD00D1124ED2F62307105A1F048F4C6
:101890006115710569F06130710589F0EB2F852FB5
:1018A00007C06430710571F088F066307105B1F7DA
:1018B0006E2F722F91CFE22F2B2F8D2FF9CFE22F8A
:1018C000252FF6CFEB2F822F2D2FF2CF2B2F8F2D01
:1018D000E52FEECF9F92AF92BF92CF92DF92EF9221
:1018E000FF920F931F93CF93DF936C0180911901A7
:1018F000C82FCC0FCC0FC80F15E01C0FB12E113321
:1019000010F030E3B32E6091600666956695809185
:101910005406909155060E94CE0BF82E80E48F0D50
:101920000E94570B90E8A92EA80E8F2D0E94570BEE
:1019300020E8922E980ED0E0CB1580F081E0103395
:1019400008F080E0DF91CF911F910F91FF90EF9011
:10195000DF90CF90BF90AF909F900895FE01EB571E
:10196000FC4F808190911A018923A1F060915D065E
:1019700070915E0680915F06EF2C0C2F292D4A2D69
:10198000F60109950E94D80B462F282F672FCE010C
:101990000E9469092196D0CF7F928F929F92AF9239
:1019A000BF92CF92DF92EF92FF920F931F93CF934C
:1019B000DF935C0180911901C82FCC0FCC0FC80FA9
:1019C00015E01C0FF12E113310F030E3F32E60916F
:1019D0006006669580915406909155060E94CE0B44
:1019E000782ED0E0CF1590F081E0103308F080E041
:1019F000DF91CF911F910F91FF90EF90DF90CF90EB
:101A0000BF90AF909F908F907F900895FE01EB570D
:101A1000FC4F808190911A018923C9F1CE01880F72
:101A2000991F8F529D4FFC01EC5AFF4F2081422F8E
:101A30004057550B6A018B5A9F4FFC018081282F1C
:101A40002052330B4901449F9001459F300D300DCA
:101A50001124889CC001899C900D900D1124820F47
:101A6000931F0E94760B082F60915D0670915E06B1
:101A700080915F06E72C9401A601F50109950E946B
:101A8000D80B462F282F672FCE010E946909219677
:101A9000A9CFCF92DF92EF92FF920F931F93CF9334
:101AA000DF937C0180911901C82FCC0FCC0FC80F98
:101AB00015E01C0FD12E113310F030E3D32E6091BE
:101AC0006006669580915406909155060E94CE0B53
:101AD000C82ED0E0CD1568F081E0103308F080E02A
:101AE000DF91CF911F910F91FF90EF90DF90CF90FA
:101AF0000895FE01EB57FC4F808190911A018923D4
:101B000011F1CE01880F991F8F529D4FFC01EB5AA6
:101B1000FF4F20812052330B8C5A9F4FFC01408194
:101B20004057550B60915D0670915E0680915F068F
:101B30000C2DF70109950E94D80B462F282F672FEF
:101B4000CE010E9469092196C5CFDF92EF92FF92E4
:101B50000F931F93CF93DF937C0180911901C82FBE
:101B6000CC0FCC0FC80F15E01C0F012F113308F05C
:101B700000E36091600666956695809154069091A9
:101B800055060E94CE0BD82ED0E0C01760F081E041
:101B9000103308F080E0DF91CF911F910F91FF90FB
:101BA000EF90DF900895FE01EB57FC4F80819091FC
:101BB0001A01892391F060915D0670915E06809113
:101BC0005F062D2D4C2FF70109950E94D80B462F4B
:101BD000282F672FCE010E9469092196D6CF9091B8
:101BE000F10592FF06C0282F28712830F9F4877F6D
:101BF000846093FF06C0282F28712831F1F4877E76
:101C000084612091F20520FF06C0382F38713830EA
:101C1000D9F4877F816021FF06C0282F28712831E1
:101C2000D1F4877E816194FD877E0895282F2471E9
:101C30002430F9F68B7F8860DCCF282F2471243183
:101C400001F78B7E8861DDCF382F3171313019F784
:101C50008E7F8860E0CF282F2171213121F78E7E81
:101C60008861E1CFCF93DF93972F70E026E0929FBA
:101C7000600D711D1124FB0134E5839FE00DF11D02
:101C80001124EE0FFF1FE45BFD4FC591D491CE01EF
:101C9000C238D105B9F1E8F5C133D10509F499C0CD
:101CA00050F5C932D10509F48DC0CA32D10509F405
:101CB00097C0C11542E5D40708F0C4C0C11521E59D
:101CC000D20708F038C1C83ED10508F09DC0C03E1B
:101CD000D10568F5C83AD10508F089C0C53AD105E3
:101CE00008F005C1C130D10511F1209709F443C0B6
:101CF0002497E8F440C0C533D10509F45CC0C9336A
:101D0000D105B9F62091F105237089F080EE90E0BD
:101D10000EC0C33ED10591F168F4C03ED105F9F083
:101D2000C23ED10531F62091F10522FD20C0DF91A0
:101D3000CF910895C63ED10561F1C73ED10581F12D
:101D4000C43ED10509F0B5CF2091F20521FFEFCFB8
:101D50008091F10584FD0FC087EE90E0E8CF2091DF
:101D6000F10520FD19C13091F20530FFE0CF83EE7F
:101D700090E024FFDCCF90E080E0D9CF2091F10506
:101D800022FD0DC13091F20530FDC0CF24FFCFCF31
:101D9000F2CF2091F10523FFCACF24FDECCFDCCF99
:101DA0002091F10523FDFEC03091F20531FFEECF09
:101DB00084EE90E0BCCF2091F10525FFB8CF89E2F9
:101DC00090E0B5CF2091F10525FFB1CF85E390E0FC
:101DD000AECF2091F10526FFAACF8AE290E0A7CFEF
:101DE0002091F10526FFA3CF81E390E0A0CFCF3B68
:101DF000D10508F6C85AD0E0CC0FDD1FCD55DD4F18
:101E000088819981946493CFC11530E2D30760F43F
:101E1000C11541E0D40708F08ACFCE019065C03FDC
:101E2000D10508F084CFA7CFC11580E4D80708F406
:101E3000A2CFC11590E5D90708F061C0CE019F700F
:101E4000906A75CFC11526E5D20718F5C11535E59D
:101E5000D30708F086C0C11544E5D40708F07CC05C
:101E60009C2F96959695AE0143705527C115D34585
:101E700008F466C021E030E002C0220F331F4A950B
:101E8000E2F740E2949FC0011124822B932B9A68C1
:101E90004ECFC1159AE5D90778F4C11529E5D207C7
:101EA00008F069C0C11538E5D30708F464CF9C2F4A
:101EB0008827806F906A3BCFC1154BE5D40708F4A3
:101EC0005ACFC1158CE5D80708F462C0CE019056F0
:101ED0008115904208F04FCF8D2F8F710E94EF0D2A
:101EE00090E0982F882788279F718C2B42C0C55A75
:101EF000D0E0C056DD4F888190E0906418CF9E01FD
:101F0000E4E036952795EA95E1F723708C2F8695C6
:101F10008695837030E2839FC0011124922BC37099
:101F200021E030E002C0220F331FCA95E2F7822B76
:101F3000932B9C68FCCE9C2F8827816F906AF7CEEC
:101F400021E030E002C0220F331F4A95E2F740E261
:101F5000949FC0011124EBCF9C2F8827846F906A37
:101F6000E6CE8C2F0E94EF0D90E0982F88278827CF
:101F70009F719062DCCE8C2F8F700E94EF0D34E049
:101F8000D695C7953A95E1F7CF709C2F9069CFCE43
:101F9000CE0199279066CBCE89E390E0C8CE82EE41
:101FA00090E0C5CE86EE90E0C2CEBF92CF92DF9297
:101FB000EF92FF920F931F93CF93DF938C01C0900A
:101FC0001D06D0901E06E0901F06F090200680911E
:101FD000D0059091D105A091D205B091D305C82A22
:101FE000D92AEA2AFB2ACFE1D0E0BC2ED701C601CC
:101FF0000C2E04C0B695A795979587950A94D2F7AD
:1020000080FD0EC0219788F7B12C8B2DDF91CF91E9
:102010001F910F91FF90EF90DF90CF90BF900895A8
:10202000B8018C2F0E94320E019761F3EECFCF934F
:10203000DF93EC010E94D50FBE01DF91CF910C948C
:10204000320E0E941710292F2F7092959F70925078
:102050009E3078F4E92FF0E0E459FB4C0C940B30FF
:10206000803F19F020F4883E20F481E00895843FF9
:10207000E1F380E00895883EC0F3813FD1F7F5CFCA
:10208000822F8695869586950895CF93DF939C0140
:102090003A9521153F4168F5EC01CC27D170DC0160
:1020A000AA27B270AC01442754709C0122273870D3
:1020B00094FF11C080E1CD2B09F480E0AB2B09F037
:1020C0008062452B09F08064232B09F08068FB01B6
:1020D000DF91CF91099481E0CD2B09F480E0AB2B07
:1020E00009F08260452B09F08460232B81F388601E
:1020F000EECFDF91CF91089540E060E080E00E9454
:10210000670981E080932506089527982F98089500
:1021100026982E98089525982D98089556985E989B
:102120000895279A2F9A0895269A2E9A0895259A07
:102130002D9A0895CF92DF92EF92FF92CF936B0189
:102140007C010E946307C82F0E948E100E948B1092
:102150000E9488100E948510C150C73040F4EC2FB7
:10216000F0E0E658FB4C0C940B300E949710C7012E
:10217000B601CF91FF90EF90DF90CF9008950E942D
:1021800097100E949410F3CF0E9497100E94911014
:10219000EECF0E9497100E949410F8CF84B1807FF8
:1021A00084B985B1807F85B98AB1837F8AB98BB1C3
:1021B000837F8BB93E984698089580B38C7080BB1E
:1021C00081B3836F81BB0895CF9384E090E00E9438
:1021D0005830C82F81E290E00E945830982F8C2F01
:1021E000CF910895CF93DF9300D00F92CDB7DEB794
:1021F00090914A06943019F589837B836A8382E043
:102200008093E9008FEF9091E800815095FD06C022
:1022100095ED9A95F1F700008111F5CF8091E800D6
:1022200085FF0DC050E040E063E070E0CE01019614
:102230000E944E048091E8008E778093E8000F9012
:102240000F900F90DF91CF910895CF93DF93EC0122
:102250000E94E905823011F0843031F4BE0184E03F
:10226000DF91CF910C94F210DF91CF910895BC01D2
:102270006058710983E00C94F210CF93DF93EC0166
:102280000E94E905823011F08430F9F482E08093F5
:10229000E9008FEF9091E800815095FD06C095ED23
:1022A0009A95F1F700008111F5CF8091E80085FF44
:1022B0000CC050E040E066E070E0CE010E944E04A9
:1022C0008091E8008E778093E800DF91CF910895A8
:1022D000CF93DF93EC010E94E905823011F0843046
:1022E000B9F5809118018823B1F18091F10587FF3C
:1022F00032C060E282E08093E9008FEF9091E800C5
:10230000815095FD06C095ED9A95F1F70000811179
:10231000F5CF8091E80085FF1BC08091180170E027
:1023200050E040E0811104C050E040E068E070E01F
:10233000CE010E944E048091E8008E778093E800E1
:1023400080E2FE01A8E2B6E001900D928A95E1F7E5
:10235000DF91CF91089568E081E0CDCFEF92FF92B9
:102360000F931F93CF93DF930E948E100E948B10C8
:102370000E9488100E94851088E8E82EF12C8FEFCB
:1023800090E0F701918380830AE810E0F8019183DF
:102390008083CCE8D0E0998388830E949710FFEF78
:1023A00020E782E0F15020408040E1F700C00000CB
:1023B0000E9494109FEFE0E7F2E09150E040F0407F
:1023C000E1F700C000000E9491102FEF80E792E03B
:1023D000215080409040E1F700C000000E948B1027
:1023E000EFEFF0E722E0E150F0402040E1F700C0DD
:1023F00000000E9488108FEF90E7E2E0815090404B
:10240000E040E1F700C000000E9485108091DF05E8
:102410008770FFEF8F9FC001112495958795959543
:1024200087959927F70191838083F80191838083B1
:10243000998388830E948E100E948B100E948810BE
:10244000DF91CF911F910F91FF90EF900C94851029
:102450006091DB058CE090E00C947C306FEE7EEFB9
:1024600090E080E00E949A3060E082E090E00E947C
:102470007C3060E083E090E00E947C301092D005D8
:102480001092D1051092D2051092D30560E084E03D
:1024900090E00E947C3060E081E290E00E947C301D
:1024A00060E085E090E00E947C3060E086E090E0B3
:1024B0000E947C306FEF87E090E00E947C3040E02B
:1024C00050E0BA0188E090E00E948E3060E08DE03C
:1024D00090E00E947C3040E050E0BA0188E190E05A
:1024E0000E948E3060E087E190E00E947C3040E006
:1024F00050E0BA018CE190E00E948E3060E080E212
:1025000090E00E947C301092DF051092E00510925E
:10251000E1051092E20584E080618093DF0540913F
:10252000DF055091E0056091E1057091E2058FE0D3
:1025300090E00E948E3040E050E0BA0183E190E0EC
:102540000C948E300F931F93CF93DF93082F000FBF
:10255000EB0114E21093E103E2EEF3E0DE018D9172
:10256000819383E0E23FF807D1F724E630E041E1D0
:1025700050E061EE73E0802F0E94B82F105F6096EC
:10258000143B41F7DF91CF911F910F9108958091F6
:10259000F503882329F067EF73E084E70E94A21215
:1025A0001092F5038091F603882329F067E874E020
:1025B00087E70E94A2121092F6030895E1EEF3E07D
:1025C0006083418324E630E042E050E0BF01880FA1
:1025D0000C94B82F0F931F93CF93DF93082FE62F00
:1025E000F0E0E55CFA4F8081882379F082E1689F12
:1025F000E0011124C95EDA4F10E04991612F802F6C
:102600000E94DE121F5F1231C1F7DF91CF911F913F
:102610000F910895CF93DF93C82F4BE06DEF0E9489
:10262000DE1240E06AE08C2F0E94DE128FE39CE90C
:102630000197F1F700C0000040E060E08C2F0E949D
:10264000DE1240E061E08C2F0E94DE1240E066E086
:102650008C2F0E94DE1240E06DEF8C2F0E94DE1264
:10266000D0E040E06D2F8C2F0E94DE12DF5FD23170
:10267000C1F740E06D2F8C2F0E94DE12DF5FD43255
:10268000C1F740E06D2F8C2F0E94DE12DF5FD43B3C
:10269000C1F74BE06DEF8C2F0E94DE1241E06AE043
:1026A0008C2F0E94DE1240E06DEF8C2FDF91CF91D6
:1026B0000C94DE126F927F928F929F92AF92BF9294
:1026C000CF92DF92EF92FF920F931F93CF93DF93FE
:1026D0000E94032F84E70E940A1387E70E940A13CF
:1026E00068E3E62E61E0F62ED12CC12C72E1772E44
:1026F000E8E08E2E912CAA24A394B12C6624639436
:10270000F701418150E0CA01849702810452110B04
:10271000C381C452DD0BF601EE0FFF1FEE0FFF1F4A
:10272000E85CFE4F2081237030E0FC0197FD379676
:1027300043E0F595E7954A95E1F7729EA001739EF7
:10274000500D1124495E5A4FE40FF52FF11DB401CD
:102750000E94F72FA50101C0440F8A95EAF78081F6
:10276000842B8083F80117FD379693E0F595E79564
:102770009A95E1F7729EC001739E900D1124895EB7
:102780009A4FE80FF92FF11DC801B4010E94F72FED
:10279000A50101C0440F8A95EAF78081842B8083CC
:1027A000FE01D7FD379683E0F595E7958A95E1F729
:1027B000729EC001739E900D1124895E9A4FE80F9E
:1027C000F92FF11DCE01B4010E94F72FA50101C020
:1027D000440F8A95EAF78081842B8083255C3A4FE9
:1027E000F9016082FFEFCF1ADF0A84E0E80EF11CE6
:1027F000E0E3CE16D10409F083CF60E084E70E94C5
:10280000EA1261E087E7DF91CF911F910F91FF906E
:10281000EF90DF90CF90BF90AF909F908F907F9080
:102820006F900C94EA1245E050E06CE170E08CE5AA
:1028300096E00C946C3080915C06982F9695969556
:102840009F5F9F738370963148F4990F990F892B7E
:1028500080935C0610920B010C9413148460F8CFE3
:1028600080915C06845080935C06982F9C7F21F4B5
:102870008370846580935C0610920B010C94131492
:10288000ECE5F6E08181885F81830C941314ECE51C
:10289000F6E08181885081830C941314ECE5F6E016
:1028A000228130E1230F08F42FEF22830C941314BC
:1028B000ECE5F6E0228130E1231B08F420E02283DE
:1028C0000C941314ECE5F6E0238130E1230F08F4B7
:1028D0002FEF23830C941314ECE5F6E0238130E111
:1028E000231B08F420E023830C941314ECE5F6E09A
:1028F000248130E1230F08F42FEF24830C94131468
:10290000ECE5F6E0248130E1231B08F420E0248389
:102910000C941314ECE5F6E0880F880F9081937007
:10292000982B908310920B010C94131490915C06D9
:1029300096959695981720F0961710F40C941B1402
:102940000C948A14ECE5F6E081E3808380911C010D
:1029500090911D01A0911E0181839283A3838FE733
:1029600084830C9413140E945A1390E080E00E9418
:1029700066308F3E9E4F21F00E942E120E94A214BC
:1029800045E050E06CE170E08CE596E00E94483054
:1029900080915C068C7F11F40C94A214089580E25F
:1029A00090E090930D0180930C018091E0038111E0
:1029B0000EC00E94032F81E08093E0032FEF83ED90
:1029C00090E3215080409040E1F700C0000064E6B1
:1029D00070E080E40E94092F90930D0180930C0118
:1029E000892B09F04EC064E670E080E00E94652FFC
:1029F00090930D0180930C01892B09F042C064E68D
:102A000070E080E00E94652F90930D0180930C018F
:102A1000892BB9F564E670E08FE30E94652F9093EF
:102A20000D0180930C01892B61F50E94DF2F64E674
:102A300070E080E40E94092F90930D0180930C01B7
:102A4000892BF9F464E670E08CE00E94652F909386
:102A50000D0180930C01892BA1F464E670E080E005
:102A60000E94652F90930D0180930C01892B49F4EE
:102A700064E670E08FE30E94652F90930D018093D0
:102A80000C010E94DF2F80910C010895CF93C82F75
:102A9000873070F580910C0190910D01892B89F59B
:102AA00064E670E080E40E94092F90930D0180930A
:102AB0000C01892BD1F464E670E082E10E94652F5D
:102AC00090930D0180930C01892B79F481E090E0C3
:102AD00001C0880FCA95EAF764E670E080950E940D
:102AE000652F90930D0180930C01CF910C94DF2FF3
:102AF0008A30B9F040F4883071F0893079F0209A4A
:102B00002898CF9108958C3091F070F08D30B9F7FE
:102B10003E9A4698F6CF219A2998F3CF229A2A987E
:102B2000F0CF239A2B98EDCF529A5A98EACF539A26
:102B30005B98E7CFCF93873008F040C080910C01BD
:102B400090910D01C0E0892B71F464E670E080E49F
:102B50000E94092F90930D0180930C01892B31F075
:102B6000C0E00E94DF2F8C2FCF91089564E670E0C3
:102B700083E10E94652F90930D0180930C01892BB6
:102B800079F764E670E081E40E94092F90930D01CB
:102B900080930C01892B21F784E690E00E94942F0A
:102BA00097FF05C090930D0180930C01D9CFC82FDA
:102BB000C09510920D0110920C01D3CFCFB18FB1FF
:102BC000869586958C73C3708C2BC82FC095CBCF00
:102BD00078941F921FB61F9211248F939F93AF93E7
:102BE000BF938091D4059091D505A091D605B09161
:102BF000D7050196A11DB11D8093D4059093D505ED
:102C0000A093D605B093D705BF91AF919F918F91B7
:102C10001F901FBE1F9018952FB7F8948091D40570
:102C20009091D505A091D605B091D7052FBF0895F5
:102C3000E091F305F091F405309749F082E080933C
:102C400004060480F581E02D84E096E009950E9459
:102C50000C1690930C0680930B0608951092CD05E8
:102C60001092CC050E94B60786E0E4E0F6E0DF01B2
:102C70001D928A95E9F710920A061092D8050E94D3
:102C8000181690E080E00E94FB0890E080E00C9431
:102C9000E508CF92DF92EF92FF92CF93DF9300D0BF
:102CA00000D0CDB7DEB70E949A106B017C018091F5
:102CB0002106882321F080912206811115C0C0923F
:102CC0001D06D0921E06E0921F06F09220060E947A
:102CD0002E160F900F900F900F90DF91CF91FF90D5
:102CE000EF90DF90CF900895198282E08A83C70128
:102CF000B6010E9463078B838EEF8C8364E0CE0164
:102D000001960E94F405DBCF0F931F9341E050E042
:102D100060E070E004C0440F551F661F771F8A955E
:102D2000D2F7CB01BA01609570958095909500918E
:102D30001D0610911E0620911F063091200660236B
:102D40007123822393231F910F910C944916909124
:102D5000CB05809589238093CB05282F277071F4AC
:102D6000282F082E000C330B9217130639F0859587
:102D7000859585950E9484161092CB0508950F9332
:102D80001F9341E050E060E070E004C0440F551F25
:102D9000661F771F8A95D2F780911D0690911E06B7
:102DA000A0911F06B09120068A019B01082B192BC8
:102DB0002A2B3B2BC901B8011F910F910C94491686
:102DC0006093D0057093D1058093D2059093D3057D
:102DD0000C942E161092CE0580911801E8EBF3E0CA
:102DE000882359F08091F10587FF07C08EE1DF014C
:102DF0001D928A95E9F70C942E1686E0F8CF1F9362
:102E0000CF93DF93CDB7DEB7AA970FB6F894DEBFA6
:102E10000FBECDBF8CE496E02091F100FC01219320
:102E2000CF01F6E084359F07B9F780914D068930D0
:102E300009F444C018F5823009F4B7C0833009F4AE
:102E40006CC0813031F580914C06813A11F580914A
:102E5000E800877F8093E8008091500690915106AA
:102E6000892B41F560E288E296E070E00E948B05D4
:102E70008091E8008B778093E8000BC08B3009F4D9
:102E800069C008F481C0823409F4A0C0853409F413
:102E9000BAC08091E80083FF65C280914C06909192
:102EA0004D069A3008F05EC2E92FF0E0EF57FB4C78
:102EB0000C940B3060E090E080E0D7CF80914C061E
:102EC000813239F78091500690915106029708F7A8
:102ED0008091E800877F8093E8008091E80082FF7E
:102EE00017C09091F3008091F200029729F480912D
:102EF000F1008B7F813021F48091F10080932706CF
:102F00008091E8008B778093E8000E947A04C1CF1B
:102F100080914A068111E1CFBCCF80914C06813A65
:102F200009F0B7CF8091500690915106892B09F096
:102F3000B0CF8091E800877F8093E8008091E8001F
:102F400080FFFCCF809118018093F1008091E80010
:102F50008E77D9CF80914C06813209F09ACF80913B
:102F6000500690915106892B09F093CF8091E8008B
:102F7000877F8093E8000E947A0480914E068093B8
:102F800018010E94EA1685CF80914C06813209F023
:102F900080CF8091E800877F8093E8000E947A04C8
:102FA00080914F068093260674CF80914C06813A1B
:102FB00009F06FCF8091E800877F8093E8008091CF
:102FC000E80080FFFCCF80912606BECF80914C06A2
:102FD000803C09F05ECF8091500690915106029797
:102FE00039F580914E0690914F06892B09F5809115
:102FF000E800877F8093E8006BE170E088ED95E062
:103000000E942C0582CF80914C06803C09F041CF74
:103010008091500690915106079751F48091E800F5
:10302000877F8093E80062EB70E086E295E0E8CF6E
:103030008091EB0080628093EB002BCF803899F079
:10304000823809F08FC1809150068F70873008F068
:1030500089C18093E9008091EB0085FB882780F986
:103060001092E90006C0809148069091490691119E
:1030700082609091E800977F9093E8008093F10040
:103080001092F1008091E8008E7768C1882309F4DE
:1030900056C1823009F066C180914E06811159C136
:1030A000809150068F702FEF280F263008F05AC1FC
:1030B0008093E9002091EB0020FF4BC1933031F465
:1030C0008091EB0080628093EB0043C19091EB0014
:1030D00090619093EB0021E030E001C0220F8A95CF
:1030E000EAF72093EA001092EA008091EB008860F2
:1030F000EACF811137C110914E061F778091E3000E
:103100008078812B8093E3008091E800877F809313
:10311000E8000E947A048091E80080FFFCCF809153
:10312000E30080688093E30082E0111183E08093E4
:103130004A0618C18058823008F014C180914E06AA
:1031400090914F068C3D23E09207A1F583E08A839E
:103150008AE289834FB7F894DE01139620E03EE0BF
:1031600051E2E32FF0E050935700E49120FF03C0B9
:10317000E295EF703F5FEF708E2F90E0EA30C0F085
:10318000C7968D939D932F5F243159F74FBF809140
:10319000E800877F8093E8006AE270E0CE01019644
:1031A0000E948B058091E8008B778093E800DAC05D
:1031B000C096E7CF4091500650915106292F3327F2
:1031C0002330310569F1A0F42130310509F46CC0D8
:1031D00062E570E084EF96E02230310509F0C2C06C
:1031E0002091E800277F2093E8000E942C05DACF89
:1031F0002132310509F440C02232310509F448C0BA
:103200002F30310509F0AEC0E6E8F7E0E4916E2F0B
:1032100070E084E897E06115710509F4A3C0E0CF80
:10322000992781309105C1F0009771F082309105A6
:10323000D9F0039709F096C0E8E5F7E0E4916E2F26
:1032400070E088E597E0E7CFE0E8F7E0E4916E2FE3
:1032500070E080E897E0DFCFE6E7F7E0E4916E2FDB
:1032600070E086E797E0D7CFEEE5F7E0E4916E2FC8
:1032700070E08EE597E0CFCF41155105D1F0413098
:10328000510509F06FC069E070E08FE197E0A8CFC9
:103290004115510599F04130510509F063C060ECCA
:1032A00070E084EF95E09CCF62E170E086E497E007
:1032B00097CF69E070E086E097E092CF60E470E03D
:1032C00084EB96E08DCF803809F04CC08091E80007
:1032D000877F8093E80080914B068093F100D2CEE7
:1032E000811140C010914E061230E0F58091E80047
:1032F000877F8093E80010934B060E947A04112385
:1033000011F084E005C08091E30087FDFACF81E0F1
:1033100080934A0642E061EC81E00E94990442E217
:1033200061EC82E00E94990442E361EC83E00E9438
:10333000990442E360EC84E00E94990413C08091F8
:103340004E06813079F481E0933009F080E080937B
:1033500049061092E9008091E800877F8093E80099
:103360000E947A048091E80083FF0AC08091E800FF
:10337000877F8093E8008091EB0080628093EB0070
:10338000AA960FB6F894DEBF0FBECDBFDF91CF91E6
:103390001F9108951F920F920FB60F9211242F9331
:1033A0003F934F935F936F937F938F939F93AF93CD
:1033B000BF93CF93DF93EF93FF93D091E900DF703A
:1033C0008091EC00C82FC17080FDC0E81092E90028
:1033D0008091F000877F8093F00078940E94FF1620
:1033E0001092E9008091F00088608093F000CD2B6E
:1033F000CF70C093E900FF91EF91DF91CF91BF9122
:10340000AF919F918F917F916F915F914F913F917C
:103410002F910F900FBE0F901F9018951F920F9233
:103420000FB60F9211242F933F934F935F936F9397
:103430007F938F939F93AF93BF93EF93FF9380916D
:10344000E10082FF09C08091E20082FF05C0809107
:10345000E1008B7F8093E1008091DA0080FF24C03F
:103460008091D80080FF20C08091DA008E7F809309
:10347000DA008091D90080FFA1C080E189BD82E19E
:1034800089BD09B400FEFDCF81E080934A0680919A
:103490002406811109C00E94FE030E94CB04809182
:1034A000E20084608093E2008091E10080FF17C019
:1034B0008091E20080FF13C08091E2008E7F8093B4
:1034C000E2008091E20080618093E2008091D80068
:1034D00080628093D80019BC85E080934A06809171
:1034E000E10084FF2FC08091E20084FF2BC080E1C7
:1034F00089BD82E189BD89B5982F917080FFFBCF8E
:103500008091D8008F7D8093D8008091E1008F7EDC
:103510008093E1008091E2008F7E8093E2008091B1
:10352000E20081608093E20080914B06882309F4D9
:103530004BC084E080934A060E94EA160E9411095B
:10354000109225068091E10083FF27C08091E20060
:1035500083FF23C08091E100877F8093E10082E0B8
:1035600080934A0610924B068091E1008E7F8093F3
:10357000E1008091E2008E7F8093E2008091E20082
:1035800080618093E20042E060E080E00E94990464
:103590008091F00088608093F000FF91EF91BF91DF
:1035A000AF919F918F917F916F915F914F913F91DB
:1035B0002F910F900FBE0F901F90189519BC10926D
:1035C0004A061092240670CF8091E30087FD93E0B5
:1035D00090934A06B1CF882309F459C0823871F418
:1035E0000E94110981FF53C089E30E9426080E94AE
:1035F000B60789E30E94FB070C94B607833859F499
:103600000E94110980FF43C083E50E9426080E94A2
:10361000B60783E5EFCF843859F40E94110982FF81
:1036200036C087E40E9426080E94B60787E4E2CFEE
:103630009CEF980F913AF0F290E2980F983088F44E
:10364000877021E030E0A90102C0440F551F8A9520
:10365000E2F7CA0180959091CE0589238093CE052B
:10366000CBCF9BE5980F933020F490E080E00C9452
:10367000FB0898E5980F973120F490E080E00C94D7
:10368000E508803F20F00E940C060C94181608955F
:10369000CF93DF93EC010E94EB1A6BEB78E0CE0145
:1036A000DF91CF910C944510882309F47BC08238B8
:1036B000B9F40E94110981FD75C089E30E942608B2
:1036C0000E94B6072FEF81EE94E021508040904099
:1036D000E1F700C0000089E30E94FB070C94B607E5
:1036E0008338A1F40E94110980FD5CC083E50E942B
:1036F00026080E94B6072FEF81EE94E0215080400B
:103700009040E1F700C0000083E5E6CF8438A1F4E3
:103710000E94110982FD46C087E40E9426080E948B
:10372000B6072FEF81EE94E0215080409040E1F702
:1037300000C0000087E4D0CF9CEF980F913A18F4B6
:103740000E942608CBCF90E2980F983068F48770DB
:1037500021E030E001C0220F8A95EAF78091CE0582
:10376000822B8093CE05BACFEBE5E80FE33038F437
:10377000F0E0E056FD4F808190E00C94FB08E8E516
:10378000E80FE73148F4F0E0EE0FFF1FED55FD4F75
:10379000808191810C94E508803F20F00E94D10641
:1037A0000C9418160895CF93C82F0E94541BC93348
:1037B00049F42FEF87EE93E0215080409040E1F7ED
:1037C00000C000008C2FCF910C94EB1AFF920F9346
:1037D0001F93CF93DF93E82FF0E0E453FF4FF49073
:1037E000C82FC695C695C695D0E0FE01E454FF4F9C
:1037F0000491877010E0082E02C0159507950A9471
:10380000E2F701701127C455DF4FFE01C491D0E0EB
:1038100002C0D595C7958A95E2F7C170DD270115DD
:10382000110519F081EE0E94541B209719F086EEC5
:103830000E94541B8F2D0E94D31BCD2B19F086EEB6
:103840000E94EB1A012B41F081EEDF91CF911F9185
:103850000F91FF900C94EB1ADF91CF911F910F9174
:10386000FF900895CF93C82F66EC78E00E94451032
:103870008C2FCF910C94541BCF93DF93C0915205A2
:10388000D09153052097E1F0809154059091550512
:103890000E9439072091090130910A012817390740
:1038A00090F4D260CE010E94321CCE010E94481BCF
:1038B000109255051092540510925305109252051E
:1038C000DF91CF9108958C2F0E94D31BF1CF0F93DE
:1038D0001F93CF93DF93C62FD42F022FFC01828139
:1038E0008823A1F0609356050E940C1690933E0524
:1038F00080933D05C77081E001C0880FCA95EAF743
:10390000DF91CF911F910F910C94DB081091560518
:10391000161335C080913D0590913E050E943907F0
:10392000883C910560F5C0E2CD0F1D17B9F080E22B
:10393000810F883040F4177081E001C0880F1A951C
:10394000EAF70E94D008C83048F481E09D2F9770B4
:1039500001C0880F9A95EAF70E94DB08802F0E9429
:10396000D31BC83098F4D77081E001C0880FDA9576
:10397000EAF7DF91CF911F910F910C94D008C77097
:1039800081E001C0880FCA95EAF7F3CFDF91CF91AC
:103990001F910F9108954F925F926F927F928F9235
:1039A0009F92AF92BF92CF92DF92EF92FF920F93CE
:1039B0001F93CF93DF93CDB7DEB728970FB6F89458
:1039C000DEBF0FBECDBF7C01FC0183819481892BBA
:1039D00041F01081B180812F8B218F3F11F00C9429
:1039E000322528960FB6F894DEBF0FBECDBFDF910B
:1039F000CF911F910F91FF90EF90DF90CF90BF90EC
:103A0000AF909F908F907F906F905F904F900895B0
:103A10000E94D50F082F682F89819A810E94830800
:103A2000E12FF0E026E0B29EE00DF11D112434E517
:103A3000039FE00DF11D1124EE0FFF1FE45BFD4F0E
:103A40000591149180912106882329F08091220606
:103A500081110C941E25F70182810930FDE51F07B5
:103A600069F10A302DE5120709F4FCC0023C3CE57F
:103A7000130709F01DC1882309F4B3CF90911A01EF
:103A80008091DF059F3F09F00CC110921A018F7ED3
:103A90008093DF0540E060E080E00E94670940918C
:103AA000DF055091E0056091E1057091E2058FE03E
:103AB00090E00E948E3095CF81E1C6C78823C9F17E
:103AC0008091DF0591E0980F9770887F953008F41A
:103AD000892B8093DF058091DF0587706FEF869FCC
:103AE000C001112495958795959587959927909371
:103AF00089008093880090938B0080938A00909334
:103B00008D0080938C004091DF055091E00560911D
:103B1000E1057091E2058FE090E00E948E306091A7
:103B20001D0670911E0680911F06909120060E942E
:103B30009A10F7018281882391F0033EFCE51F076C
:103B400009F475C108F063C1013E3CE5130709F4AF
:103B500069C181E0023E6CE5160709F469C117FFEF
:103B600052C0F7018281882309F490C18091CE056B
:103B7000809351051092CE058091DB05813009F4C8
:103B800060C1882309F459C1823009F463C18430CB
:103B900009F467C18FE39CE90197F1F700C00000C9
:103BA0004801E89497F85CE0A52EB12C94010A2C0A
:103BB00002C0369527950A94E2F72F7087E290E0CD
:103BC00031F0822F90E02A3008F050C14D960E94CB
:103BD000D31B94E0A91AB108ECEFAE16EFEFBE06C6
:103BE00029F78091DB05813009F446C1882309F467
:103BF0003FC1823009F43CC1843009F441C1809155
:103C000051058093CE05F7018281882309F43EC1D6
:103C10000436110571F008F054C10B32110549F05A
:103C2000C8010C32110508F02DC10497849708F0E3
:103C30002DC10E943C1C80910801882309F45AC1BF
:103C40008091CE05811156C10E940C1690935505A6
:103C500080935405109353050093520582E00E940F
:103C6000A716BFCE882309F464CF9091DF05892F72
:103C7000877F93FF88608093DF0583FF05C040E066
:103C800060E080E00E9467094091DF055091E00507
:103C90006091E1057091E2058FE090E00E948E3026
:103CA00048CF9FEF90931A0180618093DF05F7CE94
:103CB0000D307DE5170709F490C0B8F40B30EDE541
:103CC0001E0709F483C00C30FDE51F0709F031CF52
:103CD000882309F486CE81E00E948A148CEA8093BE
:103CE0005D068FEF80935E0685C00E302DE51207CE
:103CF00009F485C00F303DE5130709F01ACF88237A
:103D000009F417CF6CEE862E64E0962E7AE0772EBB
:103D1000F4018491882309F40CCF813009F052C05A
:103D20005401FFEFAF1ABF0AF5018491813069F4A5
:103D30005401F2E0AF0EB11CF5019490892D0E9460
:103D4000541B892D0E94EB1A0AC0823069F4540179
:103D5000F2E0AF0EB11CF50184910E94541B4501A5
:103D60002FEF821A920AD4CF833039F45401F2E053
:103D7000AF0EB11CF5018491E5CF843081F7540179
:103D8000F2E0AF0EB11CF501249190E080E0F50166
:103D900031962053330B2A30310548F00197F8F261
:103DA000EFE9FFE03197F1F700C00000F7CF789E10
:103DB000A001799E500D1124C901840F951F2491F3
:103DC0005F01E5CF0E94E61B5401C9CF882309F4A7
:103DD00008CE81E00E948A1404CE882309F401CE23
:103DE00081E00E948A1486E580935D068FEF8093C0
:103DF0005E0680E880935F060E941314F2CD88234C
:103E000009F4EFCD81E00E948A148BE168CF043E73
:103E10007CE5170781F0053E8CE5180709F09FCE79
:103E200084E006C01092DB050E94281298CE82E042
:103E30008093DB05F9CF83E0FBCF82EE0E94541B19
:103E4000A9CE88E193E00E94321C88E193E00E94B1
:103E5000481BA0CE82EE0E94541B87E50E94D31B14
:103E600099CE86EE0E94D31B88E1F8CF0697AFCE9D
:103E700082EE0E94EB1AC3CE8CE20E94D31BBFCE0F
:103E800088E2FBCF8D970C9708F4D3CE0E943C1CA0
:103E9000033FFCE51F0709F41DC108F006C1083DFA
:103EA0003CE5130709F412C1093D6CE5160709F456
:103EB0001DC1073D7CE51707E9F426E241EE61EEFE
:103EC00001C10931FCE51F0709F479C008F060C0A1
:103ED00007313CE5130709F46CC08091090190910A
:103EE0000A01059708316CE5160781F690930A01DF
:103EF00080930901F7019281992309F4C9C51092B1
:103F000056050230FCE51F0708F4CEC506312CE546
:103F1000120738F098012A5F3C452730310508F038
:103F2000C3C50E94E4109093F2058093F1050F3011
:103F30003CE5130709F491C108F012C108307CE593
:103F4000170709F474C108F0E5C004309CE51907AF
:103F500009F461C108F0CDC00230FCE51F0709F487
:103F600056C18091F105826003301C4509F4E4C01C
:103F70006091F1051091F20584E090E00E947C30A0
:103F8000612F81E290E00E947C300E94EA1629CDE8
:103F90000B317CE5170709F484C008F47EC00C31AE
:103FA0009CE5190709F072CF109208010E943C1C91
:103FB000A1CF8091090190910A01059697CF809138
:103FC0000A018F93809109018F938FE191E09F9374
:103FD0008F931F9288E08F93DF92CF920E94CB3114
:103FE0000FB6F894DEBF0FBECDBF4AE0A42EF60197
:103FF0008081882309F47ECF813009F04BC0818114
:10400000B280813051F4F2E0CF0ED11C8B2D0E9492
:10401000541B8B2D0E94EB1A08C0823051F422E011
:10402000C20ED11C8B2D0E94541BEFEFCE1ADE0A5C
:10403000DECF833021F432E0C30ED11CEACF8430CE
:1040400021F06FEFC61AD60AF0CF72E0C70ED11C6E
:1040500030E020E0A6014F5F5F4F6B2D6053770B80
:10406000CB016A30710550F021503109F0F28FE92F
:104070009FE00197F1F700C00000F6CFA29EB001CB
:10408000A39E700D11249C01260F371FF601B180ED
:104090006A01E0CF0E94E61BC8CF80910801811120
:1040A00083CF81E08093080125CF053F8CE5180779
:1040B000C9F0A0F027E245EE66EE063FECE51E07EC
:1040C00009F018CFC7010E94671C8BCC27E245EE90
:1040D00065EEF8CF26E241EE60EEF4CF27E245EE42
:1040E00064EEF0CF26E241EE62EEECCF28E241E052
:1040F000EFCF8091F105806106303CE51307E1F0D8
:104100008091F105886007301C45B0F08091F10581
:10411000806212C00B307CE5170709F496C078F472
:1041200009309CE5190709F486C08091F1058C607F
:104130000A301C4509F01CCF8093F10519CF8091FE
:10414000F1058B7F0D30FCE51F07B1F38091F10580
:104150008D7F0E301C4580F38091F105877FECCF79
:104160000A3F3CE5130709F45AC048F502317CE5E3
:10417000170709F47AC060F400319CE5190709F4C7
:1041800070C08091F1058F7B01311C45A9F2F0CE02
:104190000431FCE51F0709F476C008F46CC0053152
:1041A0001C4509F0E5CE8091F10582FB992790F935
:1041B00021E0922790FB82F990FB83F9BDCF0D3F60
:1041C0006CE5160709F445C070F40B3F8CE5180741
:1041D00051F18091F2058E7F0C3F1C4509F0C8CE4D
:1041E0008093F205C5CE0F3FECE51E0709F447C0EA
:1041F00040F101151D4509F0BBCE8091F205982FC5
:10420000909591708E7F892B90FB81F9E9CF8091F9
:10421000F105816091CF8091F10584608DCF80910F
:10422000F2058160DDCF8091F2058260D9CF809167
:10423000F105806481CF0E94EA168091F1058068C3
:104240007BCF8091F2058360CBCF8091F1058E7F8B
:1042500073CF8091F2058D7FC3CF8091F1058F7E62
:104260006BCF8091F1058F7D67CF0E94EA16809118
:10427000F1058F7761CF8091F105837F5DCF8091CC
:10428000F2058C7FADCF0E94EA169091F105892F3F
:1042900097FB87F9805850CF85E316C485E301C4A6
:1042A000992309F4B8C08091CE058272F801E25CCE
:1042B000FC45E431F10508F059C0E557FB4C0C947E
:1042C0000B3080915C0691E0892780935C06109208
:1042D0000B0192CD40E354E16BE174E10E941D09B2
:1042E00080CB4BE154E160E374E1F8CF47E454E163
:1042F00060E474E1F3CF40E454E167E474E1EECFAD
:1043000048E554E16EE474E1E9CF4EE454E168E538
:1043100074E1E4CF4CE654E162E674E1DFCF42E6BB
:1043200054E16CE674E1DACF40E854E166E774E109
:10433000D5CF46E754E160E874E1D0CF65E082E094
:104340000E9496144ECB68E086E0FACF6EE089E0DA
:10435000F7CF64E18FE0F4CF67E185E1F1CF88E149
:1043600039CD62E289E1ECCF83E234CD0E3D3CE50C
:10437000130709F446C008306DE5160709F444C078
:1043800001151C4509F047C00E94EA168FEF94E31F
:10439000ECE081509040E040E1F700C00000F8946C
:1043A00081E08093E00080E28093D8001092C90001
:1043B0008FE19EE40197F1F700C000001DBA109252
:1043C00068001CBC10BE1FBA10927A0010926E00DA
:1043D00010926F0010927100109272001092C9003A
:1043E0001092BC0014B817B81AB81DB810BA1092C1
:1043F000BC0015B818B81BB81EB811BA0C94003F11
:10440000F0CA0E942E12EDCA8091230691E08927FE
:1044100080932306E6CAF701008111819923C9F12F
:10442000C8010E94D50FD82E682FC8010E948308AA
:10443000B8018D2D0E94320E8C01B82EF701C58077
:10444000C2943FE0C322D280D1101092CD0580915A
:10445000CB05877079F0DD2069F080E2800F88302D
:1044600048F082E00E94A7168091CB058770AA24AD
:10447000A3948111A12C912E92942FE09222FBE023
:10448000F91508F440C0E92DF0E0E156FB4C0C941E
:104490000B30C8010E945A08D82ECACF212F2F7086
:1044A000C22E107F19F0C29490EFC922DD20C9F00E
:1044B000CC2069F080E2800F883010F0B1100BC082
:1044C0008091CE05C82AC092CE050E94B607802FE3
:1044D0000E94541B18C08091CD05C82AC092CD05FA
:1044E000F4CF802F0E94EB1ACC2069F0C094005EBC
:1044F000083010F0B11028C08091CE05C822C092BB
:10450000CE050E94B607292D2850330B24303105E3
:1045100010F40E941109AA2009F463CA8091CB0506
:1045200080FD5FCAF70112828595859585950E9469
:10453000BF16C7010E94CB1C8091CB058595859540
:1045400085950E9484164DCA8091CD05C822C092DF
:10455000CD05D7CF312F3F70832E107F103219F049
:10456000829480EF8822BB2041F061E0B61631F1E1
:10457000DD2079F1CC2041F1AACFDD2091F090919E
:10458000CF05882D892BC11003C00E94DB08BBCF4B
:1045900071E0C712FACF891709F4B5CF8093CF0520
:1045A000B2CFC11006C00E94B007882D0E94D0086B
:1045B000AACF81E0C81609F4A6CFF5CFDD2031F0EF
:1045C00091E09C1508F49FCF882DDFCFC1109BCFC1
:1045D000ECCFCC2051F3093349F4EFEFF7EE23E0B1
:1045E000E150F0402040E1F700C00000802F0E9421
:1045F000EB1A89CF812F86958695837061F0813083
:1046000009F081CFC8019370D11002C090E080E022
:104610000E94E50878CFC8019370D11002C090E0E5
:1046200080E00E94FB086FCFDD2009F1053F99F083
:10463000063FB9F0043F49F480915805909159051F
:1046400081609093590580935805802F0E94D10670
:104650000E94181658CF8091580590915905826094
:10466000F0CF80915805909159058460EACF053FBD
:1046700089F0063FA9F0043F49F4809158059091D4
:1046800059058E7F9093590580935805802F0E947D
:104690000C06DECF80915805909159058D7FF2CFA1
:1046A00080915805909159058B7FECCF812F8370B5
:1046B00009F066C0D11027CF802F8295869587702C
:1046C000880F880F602F6F70462E512C712C612C33
:1046D000082E04C0440C551C661C771C0A94D2F7A3
:1046E00040E050E0BA0104FF0FC04FE050E060E04E
:1046F00070E004C0440F551F661F771F8A95D2F7DC
:104700004095509560957095812F8695869583701C
:10471000823019F1D8F40091D0051091D105209183
:10472000D2053091D305813069F044295529662995
:104730007729CB01BA0160237123822393230E943E
:10474000E016E1CE402A512A622A732ACB01BA012F
:104750006429752986299729F2CF44295529662984
:1047600077290091D0051091D1052091D205309183
:10477000D305CB01BA016027712782279327DFCFAA
:104780008695DD2011F0812F8170882309F4BBCE3E
:10479000802F829586958770880F880F602F6F70A5
:1047A000462E512C712C612C082E04C0440C551C33
:1047B000661C771C0A94D2F740E050E0BA0104FF6F
:1047C0000FC04FE050E060E070E004C0440F551FA0
:1047D000661F771F8A95D2F7409550956095709522
:1047E000812F869586958370823019F1D8F40091D7
:1047F0001D0610911E0620911F0630912006813063
:1048000069F04429552966297729CB01BA0160232B
:104810007123822393230E94491675CE402A512A80
:10482000622A732ACB01BA0164297529862997293E
:10483000F2CF442955296629772900911D06109148
:104840001E0620911F0630912006CB01BA01602779
:10485000712782279327DFCF1F70DD2029F0812F5A
:104860000E94BF16802F91CE802F0E94D008812FEA
:104870000E94841648CE802F32EFB31609F44EC042
:104880003B1578F060EFB61619F171EFB71609F421
:104890003DC0DD2009F465C0C11019CE812F8F7194
:1048A0003AC093EFB91609F43EC0E4EFBE12F1CF5F
:1048B000DD2009F44BC01F71812F0E94BF1628E034
:1048C000129FC001112483608093CB05812F23C0E8
:1048D000DD20B9F0C11017CE1F7161E070E080E0FB
:1048E00090E004C0660F771F881F991F1A95D2F7B2
:1048F00000911D0610911E0620911F063091200682
:10490000A6CFF1E0FC1508F4FECDE6CF812F8F7124
:10491000DD2009F4ADCF0E94BF16F5CD812F8F7138
:10492000DD20C9F3A5CF60E070E0CB01DD2009F404
:1049300072CF1F7161E070E080E090E004C0660F0C
:10494000771F881F991F1A95D2F765CF81E00E94C3
:10495000A71631E03C1508F0D6CD82E00E94A716DC
:10496000D2CDCC2059F0893309F040CE6FEF77EEED
:1049700083E0615070408040E1F736CE812F8F7127
:1049800077CF92EFB916D1F19B1500F1E0EFBE168B
:1049900049F1F1EFBF16D1F180915A05CC2009F40D
:1049A00041C0882341F080915B0591E08927809385
:1049B0005B0510925A05802FD1108ACD0E94EB1A08
:1049C00086E0F70111928A95E9F79DCD24EFB216A2
:1049D000C1F0B21688F035EFB312DECFD11093CD0F
:1049E00081E007C0DD2009F48ECD80915B0591E068
:1049F000892780935B0587CD81E0D826D0925B051F
:104A000082CDD11080CD10925B057DCDDD2039F0B7
:104A100080915A05882349F310925A0574CDCC2011
:104A200021F371CD882309F46ECDD1106CCD809126
:104A30005B0591E0892780935B05EECFF7018281CA
:104A40001982811139C882E18A83F70180818B83C1
:104A500081818C838EEF8D8365E0C6010E94F40511
:104A60000C942B1D85E09E012F5F3F4F6901D901FA
:104A700001900D928A95E1F7F701228189819A814F
:104A800021110C94081D0E945A08082F0C94101D27
:104A900006311C4509F0BFCC809157058111FECB32
:104AA00089E20E94FB0712C006312CE5120709F0CB
:104AB000F7CB8091CE058A7A91E009F490E090934B
:104AC00057058111E9CB89E20E9426080E94B607AA
:104AD0000C94F11C1F93CF93DF9380916105807F2D
:104AE000C1F480915E058823A1F080919305C09167
:104AF000620560915C0570915D0540915F05509184
:104B00006005D62FD723DA01A095B09516E0C8131B
:104B100004C0DF91CF911F91089590E04115510598
:104B200011F0DF3F31F401968770F1CF2A0F3B1F60
:104B300017C0189FF001199FF00D1124ED59FA4F7D
:104B400021812713F0CF20812613EDCF228121115F
:104B5000EACF238134812417350740F3241B350B1A
:104B6000283C310500F7209161052F7020612093CA
:104B7000610526E0289FF001299FF00D1124E859D6
:104B8000FA4F80818F70806180838CE595E00E9470
:104B9000CB1CDF91CF911F910C94B108BF92CF92A3
:104BA000DF92EF92FF920F931F93CF93DF93CDB7D6
:104BB000DEB761970FB6F894DEBF0FBECDBF8C0194
:104BC00085E0F801DE011D9601900D928A95E1F7CE
:104BD000D8012C9111963C9111971296EC90129756
:104BE00080915F0590916005009709F463C1409141
:104BF0005C0550915D05642F65236F3F09F45AC130
:104C00001396CD90DC90B0905E05BB2009F413C1E3
:104C1000C816D906C0F1F601E81BF90BCF01FF2435
:104C2000F394883C910508F0F12C80916105982F50
:104C3000907FFF2009F4C1C091117DC0FE2C531359
:104C400027C0421325C0E11023C08F70806180937C
:104C500061058CE595E00E94CB1C80916105D8012F
:104C600015968C938F2D61960FB6F894DEBF0FBE0C
:104C7000CDBFDF91CF911F910F91FF90EF90DF900B
:104C8000CF90BF900895809590958C0D9D1DC7CFB6
:104C9000CD2829F0822F83238F3F09F035C180E092
:104CA000B82FB170DB2E80FF3CC0809193054091FE
:104CB000620556E0841315C02D873E878D859E853D
:104CC0000E941710292F22952F702230F0F02430E7
:104CD00018F59F70F1F0F8019581907FD1F4D12CF7
:104CE0001EC090E0589FF001599FF00D1124ED591E
:104CF000FA4F6181361306C06081261303C06281BA
:104D0000E6120FC001968770D5CF9F7011F08823EF
:104D100031F3805E883018F3C8010E94CB1CFD2C53
:104D2000A1CFEE2009F49ECF809161058160809330
:104D30006105F12C97CF531313C0421311C0E1103A
:104D40000FC0D80115968C93C8010E94CB1C86E039
:104D5000F801ACE5B5E001900D928A95E1F782CFBC
:104D60002D873E878D859E850E942110882309F11D
:104D7000EE20F9F080916105803270F020915C05A1
:104D800030915D0538872F831986DB86CA868C872C
:104D9000CE0107960E94CB1C86E0F801ACE5B5E099
:104DA00001900D928A95E1F70E946A25FF24F39401
:104DB00059CFC8010E94CB1CF9CF91110CC08CE5D2
:104DC00095E00E94CB1C86E0ECE5F5E0DF011D924A
:104DD0008A95E9F747CF531312C0421310C0E11070
:104DE0000EC0F8018583C8010E94CB1CECE5F5E0FC
:104DF00086E0DF011D928A95E9F7FB2C33CF2D87E2
:104E00003E878D859E850E942110882391F2EE2099
:104E100081F280916105803208F4BECF20915C055B
:104E200030915D053A8329831B82DD82CC828E839B
:104E3000CE010196AFCFC816D90640F0C81AD90ADC
:104E4000B8ECCB16D10448F0F12CBDCF80959095ED
:104E50008C0D9D1D883C9105B8F7FE2CEE2009F4C1
:104E6000A8CF531316C0421314C08091610580FD72
:104E70006ECF982F907F09F46ACFF8018583903F19
:104E800009F462CF982F907F905F8F70892B858374
:104E90005BCF2D873E878D859E850E9421108111D5
:104EA0007BCF80916105816080936105C8010E947C
:104EB000CB1CD8CEEE2009F47CCF2D873E878D8584
:104EC0009E850E942110F82E882309F472CF86E077
:104ED000F801ACE5B5E001900D928A95E1F780917B
:104EE0005C0590915D050E94171092959F70963019
:104EF00041F480915B0591E0892780935B05909355
:104F00005A050E946A25AECE81E08E25C9CE1F9338
:104F1000CF93DF93CDB7DEB767970FB6F894DEBFB8
:104F20000FBECDBF6D8B7E8B8F8B8E899F89892B1A
:104F3000E1F0852F84238F3F09F098C05FEF4FEF9A
:104F400014C030915B05332309F44EC0E42FF0E028
:104F500036E0539FE00DF11D1124EE0FFF1FE850C6
:104F6000FE4F40815181822B8C931A8A198A4B8B78
:104F70005C8B85E0FE017396DE011D9601900D921B
:104F80008A95E1F786E0FE013D96DE0117960190D5
:104F90000D928A95E1F7CE0107960E94CE258111E8
:104FA00012C086E0FE013796DE01119601900D9247
:104FB0008A95E1F78A859B85892B29F08F819885D1
:104FC00089238F3FC9F516E0809193059091620582
:104FD000891320C067960FB6F894DEBF0FBECDBF11
:104FE000DF91CF911F91089580958223BDCF96E0E8
:104FF000929FD001939FB00D1124AD59BA4FFE017D
:10500000319601900D929A95E1F7809362050E9486
:10501000B108D9CF819FC00111248D599A4F0E94A8
:10502000CE258823B9F28091930590E00196877090
:10503000992780939305C8CF2091620530E0C9017C
:10504000019687709927409193054817190679F6BC
:105050000E94EA16109262051092930586E0ECE534
:10506000F5E0DF011D928A95E9F7ADCF81E090E090
:10507000042E01C0880F0A94EAF7A52FB0E0AD5BBB
:10508000BA4F2C913D8931115CCF322F38235BCF41
:105090008F929F92AF92BF92CF92DF92EF92FF9248
:1050A0000F931F93CF93DF9380910C0190910D018B
:1050B000892BA1F08091DF038F5F8093DF03811143
:1050C0000DC00E94CF1490E090930D0180930C01CD
:1050D000892B21F40E94B3140E94AE1163EEE62ED8
:1050E00065E0F62E6701C0E010E007E00C0F8C2FA2
:1050F0000E944615802F0E9446158C2F0E949A15FB
:10510000F60191916F01D0E0891719F031978083F2
:10511000D1E0802F0E949A15F6019681891709F433
:1051200064C0868381E08D2B182B0E94CE10CF5F48
:10513000C730D9F60E940C166AEF70E00E94E32F88
:10514000B82FA091D703AA2309F47BC21092D703EA
:10515000E091D905F091DA054F012EE0820E911C05
:1051600040E00BEF5AEFC52ED12C51915B3F81F0FF
:10517000652F70E02B2F392F8517C8F1261B370BB1
:105180002E313105D4F19F0121503109E901088305
:105190008E169F0651F74093D703111102C041119B
:1051A00052C21092D603A091D905B091DA05209190
:1051B000D703E6EFF5E044E056E090E06191E701C7
:1051C00039917E01631741F06C916B3FC1F48C9370
:1051D000EF012197388321E011964E175F0771F791
:1051E0002093D7039093D60332C280E09CCFE60190
:1051F000C61BD70B2C0F3D1FC3CF4A2FC9CF91E041
:10520000EBCF0197A109B1093BC2840F951FA61FDF
:10521000B71F6CC210921901C0925406D092550665
:10522000E0925606F092570681E080930B0181C20E
:1052300080910701081316C090915C06937020912D
:10524000060130E081E09217130609F480E08170D6
:1052500080931B01063110F5E02FF0E0E555FB4C83
:105260000C940B3081E0F3CF882309F443C0809184
:105270001901C82FCC0FCC0FC80F35E0F32EFC0E50
:10528000EF2CE0E3EF1510F420E3E22ED0E0CE1592
:1052900038F081E09FE2A92EAF1460F580E02AC0CB
:1052A00020E040E060E0CE010E9469092196EFCF46
:1052B00080911901C82FCC0FCC0FC80FD5E0ED2E6F
:1052C000EC0EFE2C80E3B82EBE1410F4B0E3FB2EDF
:1052D00060915D0670915E0680915F060E94D80B1A
:1052E000D62EC72EB82ED0E0CF15B0F081E03FE229
:1052F0003E15A0F2909119019F5F909319018111C1
:1053000018C282E080930B0180911B01811111C2B0
:1053100001110FC283E089CFFE01EB57FC4F808162
:1053200090911A01892331F02B2D4D2D6C2DCE013A
:105330000E9469092196D8CF80911901C82FCC0FFE
:10534000CC0FC80FA5E0FA2EFC0EDF2C80E38F15E2
:1053500010F4F0E3DF2EC0905E06B0905F0620915F
:105360006006E0E4EE2E3E2D329F312D1124E32E17
:10537000D0E0CD1530F081E09FE29F1508F0BACF64
:105380008DCFFE01EB57FC4F808190911A0189234C
:10539000B9F0FE01EE0FFF1FEA5DFC4F80818295A0
:1053A0008F7060915D068E9D600D11247C2D8B2D7C
:1053B0000E94D80B462F282F672FCE010E94690923
:1053C0002196D7CF80911901C82FCC0FCC0FC80FD1
:1053D00065E0F62EFC0EDF2CD0E3DF1510F450E371
:1053E000D52EC0905E06B0905F062091600640E426
:1053F000E42E3E2D329F312D1124E32ED0E0CD1529
:1054000008F0B9CFFE01EB57FC4F808190911A0153
:105410008923D9F0FE01EE0FFF1FEB5DFC4F608189
:10542000E69EB001112435E0759567953A95E1F750
:1054300080915D06680F7C2D8B2D0E94D80B462F26
:10544000282F672FCE010E9469092196D8CF80911D
:105450001901C82FCC0FCC0FC80F95E0F92EFC0E08
:10546000EF2CD0E3DF1510F480E3E82ED0905D063A
:10547000D0915E06C0905F06609160066695669565
:10548000669580915406909155060E94CE0B0E941D
:10549000570B805887FD8195880F282F3C2D239F1F
:1054A000212D1124822F6D2D7D2F0E94D80BD62EF9
:1054B000C72EB82ED0E0CE1508F05DCFFE01EB5719
:1054C000FC4F808190911A01892331F02B2D4D2DB5
:1054D0006C2DCE010E9469092196EDCF82E69AE0FB
:1054E0000E94A50D07CF88E39AE0FACF89E39BE0FD
:1054F0000E94490DFFCE8AE19BE0FACF8FEF9AE040
:105500000E94CC0CF7CE83EE9AE0FACF86E39AE0C5
:10551000E7CF8DE29AE0E4CF84E29AE0E1CF8BE03E
:105520009AE0DECF8DEF99E0EBCF86EA9BE0E0CF0B
:1055300082ED9AE0DDCF8EEB9AE0E2CF80ED99E04C
:105540000E946A0CD7CE82EA99E0FACF8BE699E006
:10555000F7CF0093070180915C068370809306016A
:105560000E94C712D7CE40915406509155066091C3
:105570005606709157062FB7F8948091D4059091F4
:10558000D505A091D605B091D7052FBF84179507F3
:10559000A607B70760F0841B950BA60BB70B4A97BD
:1055A000A105B10508F4C5C010920B01C2C0019756
:1055B000A109B109F0CF9170892B09F4CCC0809179
:1055C000DD039091DE038130984780F0109223062E
:1055D00060911D0670911E0680911F069091200615
:1055E0000E949A101092DE031092DD038091DD0379
:1055F0009091DE0301969093DE038093DD03812F6B
:10560000DF91CF911F910F91FF90EF90DF90CF909E
:10561000BF90AF909F908F9008950E949410A2C069
:10562000892B69F31092DE031092DD0360911D0651
:1056300070911E0680911F06909120060E949A107C
:10564000DECF1111AECD9091D6039111AACD40912C
:10565000D8035091D9036091DA037091DB032FB71F
:10566000F8948091D4059091D505A091D605B0917C
:10567000D7052FBF84179507A607B70708F4C1CD34
:10568000841B950BA60BB70B2FB7F894C090D405CD
:10569000D090D505E090D605F090D7052FBFC092E9
:1056A000D803D092D903E092DA03F092DB03409161
:1056B00058065091590660915A0670915B064F3F0B
:1056C000DFEF5D076D077D07C9F0AA27BB274C01F7
:1056D0005D0180949094A094B09484169506A606DB
:1056E000B70608F092CD8FEF9FEFDC01809358064C
:1056F00090935906A0935A06B0935B0680912506B5
:1057000000E0811108C080915C06082F037019F039
:10571000082F0695069580910B01813009F488CDFC
:10572000882309F477CD823009F413CF833009F44C
:105730001ACF8091DD039091DE032091230622236E
:1057400009F46ECF009709F036CF0E948B100E94AB
:1057500088100E948510C091DC03CC2309F45DCF32
:105760000E94881081E0C827C093DC0328CFCDB702
:10577000DEB7C955D1090FB6F894DEBF0FBECDBF55
:1057800084B7877F84BF0FB6F894A8958091600096
:10579000886180936000109260000FBE80E890E006
:1057A0000FB6F89480936100909361000FBE85B7A7
:1057B000806885BF85B7806885BF0E94FE030E9410
:1057C000CB048091E20084608093E2007894809121
:1057D0004A068823A1F01091E9001F709091EC0017
:1057E000892F817090FD80E8182B1092E90080913C
:1057F000E80083FD0E94FF161F701093E90082E00D
:1058000084BD93E095BD9AEF97BD80936E000E9492
:10581000CF1490E090930D0180930C010E94CE1064
:105820000E94DD10A3EEB5E084E096E0E6EFF5E03F
:1058300011921D928E179F07D9F78EE090E00E947B
:10584000A0308093D9059093DA05FC010E962BEFDA
:105850002193E817F907E1F790E080E00E946630B5
:105860008F3E9E4F11F00E942E120E94B3148CE0C6
:1058700090E00E94583090E0B0E0A0E08093DB051B
:105880009093DC05A093DD05B093DE0589EA809353
:10589000800089E08093810024982C983F988AB1F9
:1058A0008F7C8AB96E98479A8BB180638BB9769A50
:1058B0008FE090E00E9460306093DF057093E00518
:1058C0008093E1059093E20567708FEF869FB001AA
:1058D000112475956795759567957727709389005D
:1058E0006093880070938B0060938A0070938D00A2
:1058F00060938C009091DF0594FFF2C080931A01B1
:105900000E94AE1190E080E00E9466308F3E9E4F74
:1059100011F00E942E1282E090E00E945830809395
:105920000E060E94E4109093F2058093F10583E047
:1059300090E00E945830682F70E090E080E00E9474
:10594000E01680915C06837011F410920B01809137
:105950005C068C7F816080935C068EE091E0909382
:10596000F4058093F305EE24EA948EEFF82E93E08D
:10597000492E21E4C22ED12CCC0EDD1E82E0C80EB1
:10598000D11C30E1732E42E1642E58E1A52EB12CDA
:1059900060E4562E80914A06853009F4A4C00E9426
:1059A0004828AFE0B6E0E6EFF5E010E000E0302F89
:1059B00081912D91281709F4E7C090E099249394E0
:1059C0002827422F492109F4DAC061969FAF6197D9
:1059D00062963FAF6297892191E009F490E0639667
:1059E0009FAF63970E940C168160782F65969FAFDA
:1059F0008EAF659761964FAD619762965FAD629786
:105A000063966FAD639765968FAD65970E94872704
:105A1000F801E15FF94F80819826908280910B0612
:105A200090910C060E9439079C0190910A069923D7
:105A300019F02431310578F0209106069090070680
:105A400010910806009109062111C4C0812F8929EF
:105A5000802B09F0ADC10E94110990910D068917A4
:105A600021F00E94110980930D0680914A0684302E
:105A700009F090CF8093E9008091E80082FF8ACFFF
:105A80008091E80090E085FF06C00E941D048823F5
:105A900009F404C191E08091E8008B778093E800DD
:105AA000992309F477CF1981111114C1809123062C
:105AB000882309F429C11092230681E080932206ED
:105AC00022961FAE229723961FAE23972496FFAEF1
:105AD000249763E0CE018F5B9F4F0E94F4055ACF5D
